{
	"contracts/Medicine.sol": {
		"Medicine": {
			"abi": [
				{
					"inputs": [
						{
							"internalType": "address",
							"name": "_manufacturerAddr",
							"type": "address"
						},
						{
							"internalType": "bytes32",
							"name": "_description",
							"type": "bytes32"
						},
						{
							"internalType": "address[]",
							"name": "_rawAddr",
							"type": "address[]"
						},
						{
							"internalType": "uint256",
							"name": "_quantity",
							"type": "uint256"
						},
						{
							"internalType": "address[]",
							"name": "_transporterAddr",
							"type": "address[]"
						},
						{
							"internalType": "address",
							"name": "_receiverAddr",
							"type": "address"
						},
						{
							"internalType": "uint256",
							"name": "RcvrType",
							"type": "uint256"
						}
					],
					"stateMutability": "nonpayable",
					"type": "constructor"
				},
				{
					"anonymous": false,
					"inputs": [
						{
							"indexed": true,
							"internalType": "address",
							"name": "BatchID",
							"type": "address"
						},
						{
							"indexed": true,
							"internalType": "address",
							"name": "Shipper",
							"type": "address"
						},
						{
							"indexed": true,
							"internalType": "address",
							"name": "Receiver",
							"type": "address"
						},
						{
							"indexed": false,
							"internalType": "uint256",
							"name": "TransporterType",
							"type": "uint256"
						},
						{
							"indexed": false,
							"internalType": "uint256",
							"name": "Status",
							"type": "uint256"
						}
					],
					"name": "ShippmentUpdate",
					"type": "event"
				},
				{
					"inputs": [],
					"name": "getBatchIDStatus",
					"outputs": [
						{
							"internalType": "uint256",
							"name": "",
							"type": "uint256"
						}
					],
					"stateMutability": "view",
					"type": "function"
				},
				{
					"inputs": [],
					"name": "getMedicineInfo",
					"outputs": [
						{
							"internalType": "address",
							"name": "_manufacturerAddr",
							"type": "address"
						},
						{
							"internalType": "bytes32",
							"name": "_description",
							"type": "bytes32"
						},
						{
							"internalType": "address[]",
							"name": "_rawAddr",
							"type": "address[]"
						},
						{
							"internalType": "uint256",
							"name": "_quantity",
							"type": "uint256"
						},
						{
							"internalType": "address[]",
							"name": "_transporterAddr",
							"type": "address[]"
						},
						{
							"internalType": "address",
							"name": "_distributor",
							"type": "address"
						},
						{
							"internalType": "address",
							"name": "_customer",
							"type": "address"
						}
					],
					"stateMutability": "view",
					"type": "function"
				},
				{
					"inputs": [],
					"name": "getWDC",
					"outputs": [
						{
							"internalType": "address[3]",
							"name": "WDP",
							"type": "address[3]"
						}
					],
					"stateMutability": "view",
					"type": "function"
				},
				{
					"inputs": [
						{
							"internalType": "address",
							"name": "_transporterAddr",
							"type": "address"
						}
					],
					"name": "pickMedicine",
					"outputs": [],
					"stateMutability": "nonpayable",
					"type": "function"
				},
				{
					"inputs": [
						{
							"internalType": "address",
							"name": "receiver",
							"type": "address"
						}
					],
					"name": "receivedDtoC",
					"outputs": [],
					"stateMutability": "nonpayable",
					"type": "function"
				},
				{
					"inputs": [
						{
							"internalType": "address",
							"name": "_receiverAddr",
							"type": "address"
						}
					],
					"name": "receivedMedicine",
					"outputs": [
						{
							"internalType": "uint256",
							"name": "",
							"type": "uint256"
						}
					],
					"stateMutability": "nonpayable",
					"type": "function"
				},
				{
					"inputs": [
						{
							"internalType": "address",
							"name": "receiver",
							"type": "address"
						}
					],
					"name": "receivedWtoD",
					"outputs": [],
					"stateMutability": "nonpayable",
					"type": "function"
				},
				{
					"inputs": [
						{
							"internalType": "address",
							"name": "receiver",
							"type": "address"
						},
						{
							"internalType": "address",
							"name": "sender",
							"type": "address"
						}
					],
					"name": "sendDtoC",
					"outputs": [],
					"stateMutability": "nonpayable",
					"type": "function"
				},
				{
					"inputs": [
						{
							"internalType": "address",
							"name": "receiver",
							"type": "address"
						},
						{
							"internalType": "address",
							"name": "sender",
							"type": "address"
						}
					],
					"name": "sendWtoD",
					"outputs": [],
					"stateMutability": "nonpayable",
					"type": "function"
				},
				{
					"inputs": [
						{
							"internalType": "address",
							"name": "_transporterAddr",
							"type": "address"
						}
					],
					"name": "updateTransporterArray",
					"outputs": [],
					"stateMutability": "nonpayable",
					"type": "function"
				}
			],
			"devdoc": {
				"methods": {}
			},
			"evm": {
				"assembly": "    /* \"contracts/Medicine.sol\":55:4904  contract Medicine {... */\n  mstore(0x40, 0x80)\n    /* \"contracts/Medicine.sol\":725:1472  constructor(... */\n  callvalue\n    /* \"--CODEGEN--\":5:14   */\n  dup1\n    /* \"--CODEGEN--\":2:4   */\n  iszero\n  tag_1\n  jumpi\n    /* \"--CODEGEN--\":27:28   */\n  0x00\n    /* \"--CODEGEN--\":24:25   */\n  dup1\n    /* \"--CODEGEN--\":17:29   */\n  revert\n    /* \"--CODEGEN--\":2:4   */\ntag_1:\n    /* \"contracts/Medicine.sol\":725:1472  constructor(... */\n  pop\n  mload(0x40)\n  sub(codesize, bytecodeSize)\n  dup1\n  bytecodeSize\n  dup4\n  codecopy\n  dup2\n  dup2\n  add\n  0x40\n  mstore\n    /* \"--CODEGEN--\":15:18   */\n  0xe0\n    /* \"--CODEGEN--\":10:13   */\n  dup2\n    /* \"--CODEGEN--\":7:19   */\n  lt\n    /* \"--CODEGEN--\":4:6   */\n  iszero\n  tag_2\n  jumpi\n    /* \"--CODEGEN--\":32:33   */\n  0x00\n    /* \"--CODEGEN--\":29:30   */\n  dup1\n    /* \"--CODEGEN--\":22:34   */\n  revert\n    /* \"--CODEGEN--\":4:6   */\ntag_2:\n    /* \"contracts/Medicine.sol\":725:1472  constructor(... */\n  dup2\n  add\n  swap1\n  dup1\n  dup1\n  mload\n  swap1\n  0x20\n  add\n  swap1\n  swap3\n  swap2\n  swap1\n  dup1\n  mload\n  swap1\n  0x20\n  add\n  swap1\n  swap3\n  swap2\n  swap1\n  dup1\n  mload\n  mload(0x40)\n  swap4\n  swap3\n  swap2\n  swap1\n  dup5\n    /* \"--CODEGEN--\":19:30   */\n  0x0100000000\n    /* \"--CODEGEN--\":14:17   */\n  dup3\n    /* \"--CODEGEN--\":11:31   */\n  gt\n    /* \"--CODEGEN--\":8:10   */\n  iszero\n  tag_3\n  jumpi\n    /* \"--CODEGEN--\":44:45   */\n  0x00\n    /* \"--CODEGEN--\":41:42   */\n  dup1\n    /* \"--CODEGEN--\":34:46   */\n  revert\n    /* \"--CODEGEN--\":8:10   */\ntag_3:\n    /* \"--CODEGEN--\":71:82   */\n  dup4\n    /* \"--CODEGEN--\":66:69   */\n  dup3\n    /* \"--CODEGEN--\":62:83   */\n  add\n    /* \"--CODEGEN--\":55:83   */\n  swap2\n  pop\n    /* \"--CODEGEN--\":123:127   */\n  0x20\n    /* \"--CODEGEN--\":118:121   */\n  dup3\n    /* \"--CODEGEN--\":114:128   */\n  add\n    /* \"--CODEGEN--\":159:168   */\n  dup6\n    /* \"--CODEGEN--\":141:157   */\n  dup2\n    /* \"--CODEGEN--\":138:169   */\n  gt\n    /* \"--CODEGEN--\":135:137   */\n  iszero\n  tag_4\n  jumpi\n    /* \"--CODEGEN--\":182:183   */\n  0x00\n    /* \"--CODEGEN--\":179:180   */\n  dup1\n    /* \"--CODEGEN--\":172:184   */\n  revert\n    /* \"--CODEGEN--\":135:137   */\ntag_4:\n    /* \"--CODEGEN--\":219:222   */\n  dup3\n    /* \"--CODEGEN--\":213:223   */\n  mload\n    /* \"--CODEGEN--\":331:340   */\n  dup7\n    /* \"--CODEGEN--\":325:327   */\n  0x20\n    /* \"--CODEGEN--\":311:323   */\n  dup3\n    /* \"--CODEGEN--\":307:328   */\n  mul\n    /* \"--CODEGEN--\":289:305   */\n  dup4\n    /* \"--CODEGEN--\":285:329   */\n  add\n    /* \"--CODEGEN--\":282:341   */\n  gt\n    /* \"--CODEGEN--\":261:272   */\n  0x0100000000\n    /* \"--CODEGEN--\":247:259   */\n  dup3\n    /* \"--CODEGEN--\":244:273   */\n  gt\n    /* \"--CODEGEN--\":233:349   */\n  or\n    /* \"--CODEGEN--\":230:232   */\n  iszero\n  tag_5\n  jumpi\n    /* \"--CODEGEN--\":362:363   */\n  0x00\n    /* \"--CODEGEN--\":359:360   */\n  dup1\n    /* \"--CODEGEN--\":352:364   */\n  revert\n    /* \"--CODEGEN--\":230:232   */\ntag_5:\n    /* \"--CODEGEN--\":385:397   */\n  dup1\n    /* \"--CODEGEN--\":380:383   */\n  dup4\n    /* \"--CODEGEN--\":373:398   */\n  mstore\n    /* \"--CODEGEN--\":421:425   */\n  0x20\n    /* \"--CODEGEN--\":416:419   */\n  dup4\n    /* \"--CODEGEN--\":412:426   */\n  add\n    /* \"--CODEGEN--\":405:426   */\n  swap3\n  pop\n    /* \"--CODEGEN--\":0:433   */\n  pop\n  pop\n    /* \"contracts/Medicine.sol\":725:1472  constructor(... */\n  swap1\n  dup1\n  mload\n  swap1\n  0x20\n  add\n  swap1\n  0x20\n  mul\n  dup1\n  dup4\n  dup4\n    /* \"--CODEGEN--\":23:24   */\n  0x00\n    /* \"--CODEGEN--\":8:108   */\ntag_6:\n    /* \"--CODEGEN--\":33:36   */\n  dup4\n    /* \"--CODEGEN--\":30:31   */\n  dup2\n    /* \"--CODEGEN--\":27:37   */\n  lt\n    /* \"--CODEGEN--\":8:108   */\n  iszero\n  tag_8\n  jumpi\n    /* \"--CODEGEN--\":99:100   */\n  dup1\n    /* \"--CODEGEN--\":94:97   */\n  dup3\n    /* \"--CODEGEN--\":90:101   */\n  add\n    /* \"--CODEGEN--\":84:102   */\n  mload\n    /* \"--CODEGEN--\":80:81   */\n  dup2\n    /* \"--CODEGEN--\":75:78   */\n  dup5\n    /* \"--CODEGEN--\":71:82   */\n  add\n    /* \"--CODEGEN--\":64:103   */\n  mstore\n    /* \"--CODEGEN--\":52:54   */\n  0x20\n    /* \"--CODEGEN--\":49:50   */\n  dup2\n    /* \"--CODEGEN--\":45:55   */\n  add\n    /* \"--CODEGEN--\":40:55   */\n  swap1\n  pop\n    /* \"--CODEGEN--\":8:108   */\n  jump(tag_6)\ntag_8:\n    /* \"--CODEGEN--\":12:26   */\n  pop\n    /* \"contracts/Medicine.sol\":725:1472  constructor(... */\n  pop\n  pop\n  pop\n  swap1\n  pop\n  add\n  0x40\n  mstore\n  0x20\n  add\n  dup1\n  mload\n  swap1\n  0x20\n  add\n  swap1\n  swap3\n  swap2\n  swap1\n  dup1\n  mload\n  mload(0x40)\n  swap4\n  swap3\n  swap2\n  swap1\n  dup5\n    /* \"--CODEGEN--\":19:30   */\n  0x0100000000\n    /* \"--CODEGEN--\":14:17   */\n  dup3\n    /* \"--CODEGEN--\":11:31   */\n  gt\n    /* \"--CODEGEN--\":8:10   */\n  iszero\n  tag_9\n  jumpi\n    /* \"--CODEGEN--\":44:45   */\n  0x00\n    /* \"--CODEGEN--\":41:42   */\n  dup1\n    /* \"--CODEGEN--\":34:46   */\n  revert\n    /* \"--CODEGEN--\":8:10   */\ntag_9:\n    /* \"--CODEGEN--\":71:82   */\n  dup4\n    /* \"--CODEGEN--\":66:69   */\n  dup3\n    /* \"--CODEGEN--\":62:83   */\n  add\n    /* \"--CODEGEN--\":55:83   */\n  swap2\n  pop\n    /* \"--CODEGEN--\":123:127   */\n  0x20\n    /* \"--CODEGEN--\":118:121   */\n  dup3\n    /* \"--CODEGEN--\":114:128   */\n  add\n    /* \"--CODEGEN--\":159:168   */\n  dup6\n    /* \"--CODEGEN--\":141:157   */\n  dup2\n    /* \"--CODEGEN--\":138:169   */\n  gt\n    /* \"--CODEGEN--\":135:137   */\n  iszero\n  tag_10\n  jumpi\n    /* \"--CODEGEN--\":182:183   */\n  0x00\n    /* \"--CODEGEN--\":179:180   */\n  dup1\n    /* \"--CODEGEN--\":172:184   */\n  revert\n    /* \"--CODEGEN--\":135:137   */\ntag_10:\n    /* \"--CODEGEN--\":219:222   */\n  dup3\n    /* \"--CODEGEN--\":213:223   */\n  mload\n    /* \"--CODEGEN--\":331:340   */\n  dup7\n    /* \"--CODEGEN--\":325:327   */\n  0x20\n    /* \"--CODEGEN--\":311:323   */\n  dup3\n    /* \"--CODEGEN--\":307:328   */\n  mul\n    /* \"--CODEGEN--\":289:305   */\n  dup4\n    /* \"--CODEGEN--\":285:329   */\n  add\n    /* \"--CODEGEN--\":282:341   */\n  gt\n    /* \"--CODEGEN--\":261:272   */\n  0x0100000000\n    /* \"--CODEGEN--\":247:259   */\n  dup3\n    /* \"--CODEGEN--\":244:273   */\n  gt\n    /* \"--CODEGEN--\":233:349   */\n  or\n    /* \"--CODEGEN--\":230:232   */\n  iszero\n  tag_11\n  jumpi\n    /* \"--CODEGEN--\":362:363   */\n  0x00\n    /* \"--CODEGEN--\":359:360   */\n  dup1\n    /* \"--CODEGEN--\":352:364   */\n  revert\n    /* \"--CODEGEN--\":230:232   */\ntag_11:\n    /* \"--CODEGEN--\":385:397   */\n  dup1\n    /* \"--CODEGEN--\":380:383   */\n  dup4\n    /* \"--CODEGEN--\":373:398   */\n  mstore\n    /* \"--CODEGEN--\":421:425   */\n  0x20\n    /* \"--CODEGEN--\":416:419   */\n  dup4\n    /* \"--CODEGEN--\":412:426   */\n  add\n    /* \"--CODEGEN--\":405:426   */\n  swap3\n  pop\n    /* \"--CODEGEN--\":0:433   */\n  pop\n  pop\n    /* \"contracts/Medicine.sol\":725:1472  constructor(... */\n  swap1\n  dup1\n  mload\n  swap1\n  0x20\n  add\n  swap1\n  0x20\n  mul\n  dup1\n  dup4\n  dup4\n    /* \"--CODEGEN--\":23:24   */\n  0x00\n    /* \"--CODEGEN--\":8:108   */\ntag_12:\n    /* \"--CODEGEN--\":33:36   */\n  dup4\n    /* \"--CODEGEN--\":30:31   */\n  dup2\n    /* \"--CODEGEN--\":27:37   */\n  lt\n    /* \"--CODEGEN--\":8:108   */\n  iszero\n  tag_14\n  jumpi\n    /* \"--CODEGEN--\":99:100   */\n  dup1\n    /* \"--CODEGEN--\":94:97   */\n  dup3\n    /* \"--CODEGEN--\":90:101   */\n  add\n    /* \"--CODEGEN--\":84:102   */\n  mload\n    /* \"--CODEGEN--\":80:81   */\n  dup2\n    /* \"--CODEGEN--\":75:78   */\n  dup5\n    /* \"--CODEGEN--\":71:82   */\n  add\n    /* \"--CODEGEN--\":64:103   */\n  mstore\n    /* \"--CODEGEN--\":52:54   */\n  0x20\n    /* \"--CODEGEN--\":49:50   */\n  dup2\n    /* \"--CODEGEN--\":45:55   */\n  add\n    /* \"--CODEGEN--\":40:55   */\n  swap1\n  pop\n    /* \"--CODEGEN--\":8:108   */\n  jump(tag_12)\ntag_14:\n    /* \"--CODEGEN--\":12:26   */\n  pop\n    /* \"contracts/Medicine.sol\":725:1472  constructor(... */\n  pop\n  pop\n  pop\n  swap1\n  pop\n  add\n  0x40\n  mstore\n  0x20\n  add\n  dup1\n  mload\n  swap1\n  0x20\n  add\n  swap1\n  swap3\n  swap2\n  swap1\n  dup1\n  mload\n  swap1\n  0x20\n  add\n  swap1\n  swap3\n  swap2\n  swap1\n  pop\n  pop\n  pop\n    /* \"contracts/Medicine.sol\":989:1006  _manufacturerAddr */\n  dup7\n    /* \"contracts/Medicine.sol\":981:986  Owner */\n  0x00\n  dup1\n    /* \"contracts/Medicine.sol\":981:1006  Owner = _manufacturerAddr */\n  0x0100\n  exp\n  dup2\n  sload\n  dup2\n  0xffffffffffffffffffffffffffffffffffffffff\n  mul\n  not\n  and\n  swap1\n  dup4\n  0xffffffffffffffffffffffffffffffffffffffff\n  and\n  mul\n  or\n  swap1\n  sstore\n  pop\n    /* \"contracts/Medicine.sol\":1031:1048  _manufacturerAddr */\n  dup7\n    /* \"contracts/Medicine.sol\":1016:1028  manufacturer */\n  0x04\n  0x00\n    /* \"contracts/Medicine.sol\":1016:1048  manufacturer = _manufacturerAddr */\n  0x0100\n  exp\n  dup2\n  sload\n  dup2\n  0xffffffffffffffffffffffffffffffffffffffff\n  mul\n  not\n  and\n  swap1\n  dup4\n  0xffffffffffffffffffffffffffffffffffffffff\n  and\n  mul\n  or\n  swap1\n  sstore\n  pop\n    /* \"contracts/Medicine.sol\":1072:1084  _description */\n  dup6\n    /* \"contracts/Medicine.sol\":1058:1069  description */\n  0x01\n    /* \"contracts/Medicine.sol\":1058:1084  description = _description */\n  dup2\n  swap1\n  sstore\n  pop\n    /* \"contracts/Medicine.sol\":1109:1117  _rawAddr */\n  dup5\n    /* \"contracts/Medicine.sol\":1094:1106  rawMaterials */\n  0x02\n    /* \"contracts/Medicine.sol\":1094:1117  rawMaterials = _rawAddr */\n  swap1\n  dup1\n  mload\n  swap1\n  0x20\n  add\n  swap1\n  tag_17\n  swap3\n  swap2\n  swap1\n  tag_18\n  jump\t// in\ntag_17:\n  pop\n    /* \"contracts/Medicine.sol\":1138:1147  _quantity */\n  dup4\n    /* \"contracts/Medicine.sol\":1127:1135  quantity */\n  0x08\n    /* \"contracts/Medicine.sol\":1127:1147  quantity = _quantity */\n  dup2\n  swap1\n  sstore\n  pop\n    /* \"contracts/Medicine.sol\":1172:1188  _transporterAddr */\n  dup3\n    /* \"contracts/Medicine.sol\":1157:1169  transporters */\n  0x03\n    /* \"contracts/Medicine.sol\":1157:1188  transporters = _transporterAddr */\n  swap1\n  dup1\n  mload\n  swap1\n  0x20\n  add\n  swap1\n  tag_19\n  swap3\n  swap2\n  swap1\n  tag_18\n  jump\t// in\ntag_19:\n  pop\n    /* \"contracts/Medicine.sol\":1213:1214  1 */\n  0x01\n    /* \"contracts/Medicine.sol\":1201:1209  RcvrType */\n  dup2\n    /* \"contracts/Medicine.sol\":1201:1214  RcvrType == 1 */\n  eq\n    /* \"contracts/Medicine.sol\":1198:1343  if(RcvrType == 1) {... */\n  iszero\n  tag_20\n  jumpi\n    /* \"contracts/Medicine.sol\":1243:1256  _receiverAddr */\n  dup2\n    /* \"contracts/Medicine.sol\":1230:1240  wholesaler */\n  0x05\n  0x00\n    /* \"contracts/Medicine.sol\":1230:1256  wholesaler = _receiverAddr */\n  0x0100\n  exp\n  dup2\n  sload\n  dup2\n  0xffffffffffffffffffffffffffffffffffffffff\n  mul\n  not\n  and\n  swap1\n  dup4\n  0xffffffffffffffffffffffffffffffffffffffff\n  and\n  mul\n  or\n  swap1\n  sstore\n  pop\n    /* \"contracts/Medicine.sol\":1198:1343  if(RcvrType == 1) {... */\n  jump(tag_21)\ntag_20:\n    /* \"contracts/Medicine.sol\":1289:1290  2 */\n  0x02\n    /* \"contracts/Medicine.sol\":1277:1285  RcvrType */\n  dup2\n    /* \"contracts/Medicine.sol\":1277:1290  RcvrType == 2 */\n  eq\n    /* \"contracts/Medicine.sol\":1273:1343  if( RcvrType == 2){... */\n  iszero\n  tag_22\n  jumpi\n    /* \"contracts/Medicine.sol\":1319:1332  _receiverAddr */\n  dup2\n    /* \"contracts/Medicine.sol\":1305:1316  distributor */\n  0x06\n  0x00\n    /* \"contracts/Medicine.sol\":1305:1332  distributor = _receiverAddr */\n  0x0100\n  exp\n  dup2\n  sload\n  dup2\n  0xffffffffffffffffffffffffffffffffffffffff\n  mul\n  not\n  and\n  swap1\n  dup4\n  0xffffffffffffffffffffffffffffffffffffffff\n  and\n  mul\n  or\n  swap1\n  sstore\n  pop\n    /* \"contracts/Medicine.sol\":1273:1343  if( RcvrType == 2){... */\ntag_22:\n    /* \"contracts/Medicine.sol\":1198:1343  if(RcvrType == 1) {... */\ntag_21:\n    /* \"contracts/Medicine.sol\":1352:1376  Transactions txnContract */\n  0x00\n    /* \"contracts/Medicine.sol\":1396:1413  _manufacturerAddr */\n  dup8\n    /* \"contracts/Medicine.sol\":1379:1414  new Transactions(_manufacturerAddr) */\n  mload(0x40)\n  tag_23\n  swap1\n  tag_24\n  jump\t// in\ntag_23:\n  dup1\n  dup3\n  0xffffffffffffffffffffffffffffffffffffffff\n  and\n  0xffffffffffffffffffffffffffffffffffffffff\n  and\n  dup2\n  mstore\n  0x20\n  add\n  swap2\n  pop\n  pop\n  mload(0x40)\n  dup1\n  swap2\n  sub\n  swap1\n  0x00\n  create\n  dup1\n  iszero\n    /* \"--CODEGEN--\":8:17   */\n  dup1\n    /* \"--CODEGEN--\":5:7   */\n  iszero\n  tag_25\n  jumpi\n    /* \"--CODEGEN--\":45:61   */\n  returndatasize\n    /* \"--CODEGEN--\":42:43   */\n  0x00\n    /* \"--CODEGEN--\":39:40   */\n  dup1\n    /* \"--CODEGEN--\":24:62   */\n  returndatacopy\n    /* \"--CODEGEN--\":77:93   */\n  returndatasize\n    /* \"--CODEGEN--\":74:75   */\n  0x00\n    /* \"--CODEGEN--\":67:94   */\n  revert\n    /* \"--CODEGEN--\":5:7   */\ntag_25:\n    /* \"contracts/Medicine.sol\":1379:1414  new Transactions(_manufacturerAddr) */\n  pop\n    /* \"contracts/Medicine.sol\":1352:1414  Transactions txnContract = new Transactions(_manufacturerAddr) */\n  swap1\n  pop\n    /* \"contracts/Medicine.sol\":1453:1464  txnContract */\n  dup1\n    /* \"contracts/Medicine.sol\":1424:1442  txnContractAddress */\n  0x09\n  0x01\n    /* \"contracts/Medicine.sol\":1424:1465  txnContractAddress = address(txnContract) */\n  0x0100\n  exp\n  dup2\n  sload\n  dup2\n  0xffffffffffffffffffffffffffffffffffffffff\n  mul\n  not\n  and\n  swap1\n  dup4\n  0xffffffffffffffffffffffffffffffffffffffff\n  and\n  mul\n  or\n  swap1\n  sstore\n  pop\n    /* \"contracts/Medicine.sol\":725:1472  constructor(... */\n  pop\n  pop\n  pop\n  pop\n  pop\n  pop\n  pop\n  pop\n    /* \"contracts/Medicine.sol\":55:4904  contract Medicine {... */\n  jump(tag_26)\ntag_18:\n  dup3\n  dup1\n  sload\n  dup3\n  dup3\n  sstore\n  swap1\n  0x00\n  mstore\n  keccak256(0x00, 0x20)\n  swap1\n  dup2\n  add\n  swap3\n  dup3\n  iszero\n  tag_27\n  jumpi\n  swap2\n  0x20\n  mul\n  dup3\n  add\ntag_28:\n  dup3\n  dup2\n  gt\n  iszero\n  tag_29\n  jumpi\n  dup3\n  mload\n  dup3\n  exp(0x0100, 0x00)\n  dup2\n  sload\n  dup2\n  0xffffffffffffffffffffffffffffffffffffffff\n  mul\n  not\n  and\n  swap1\n  dup4\n  0xffffffffffffffffffffffffffffffffffffffff\n  and\n  mul\n  or\n  swap1\n  sstore\n  pop\n  swap2\n  0x20\n  add\n  swap2\n  swap1\n  0x01\n  add\n  swap1\n  jump(tag_28)\ntag_29:\ntag_27:\n  pop\n  swap1\n  pop\n  tag_30\n  swap2\n  swap1\n  tag_31\n  jump\t// in\ntag_30:\n  pop\n  swap1\n  jump\t// out\ntag_24:\n  dataSize(sub_1)\n  dup1\n  dataOffset(sub_1)\n  dup4\n  codecopy\n  add\n  swap1\n  jump\t// out\ntag_31:\n  tag_32\n  swap2\n  swap1\ntag_33:\n  dup1\n  dup3\n  gt\n  iszero\n  tag_34\n  jumpi\n  0x00\n  dup2\n  dup2\n  0x0100\n  exp\n  dup2\n  sload\n  swap1\n  0xffffffffffffffffffffffffffffffffffffffff\n  mul\n  not\n  and\n  swap1\n  sstore\n  pop\n  0x01\n  add\n  jump(tag_33)\ntag_34:\n  pop\n  swap1\n  jump\ntag_32:\n  swap1\n  jump\t// out\ntag_26:\n  dataSize(sub_0)\n  dup1\n  dataOffset(sub_0)\n  0x00\n  codecopy\n  0x00\n  return\nstop\n\nsub_0: assembly {\n        /* \"contracts/Medicine.sol\":55:4904  contract Medicine {... */\n      mstore(0x40, 0x80)\n      callvalue\n        /* \"--CODEGEN--\":5:14   */\n      dup1\n        /* \"--CODEGEN--\":2:4   */\n      iszero\n      tag_1\n      jumpi\n        /* \"--CODEGEN--\":27:28   */\n      0x00\n        /* \"--CODEGEN--\":24:25   */\n      dup1\n        /* \"--CODEGEN--\":17:29   */\n      revert\n        /* \"--CODEGEN--\":2:4   */\n    tag_1:\n        /* \"contracts/Medicine.sol\":55:4904  contract Medicine {... */\n      pop\n      jumpi(tag_2, lt(calldatasize, 0x04))\n      shr(0xe0, calldataload(0x00))\n      dup1\n      0xac42a415\n      gt\n      tag_13\n      jumpi\n      dup1\n      0xac42a415\n      eq\n      tag_8\n      jumpi\n      dup1\n      0xc8f5f189\n      eq\n      tag_9\n      jumpi\n      dup1\n      0xd2f3fcc7\n      eq\n      tag_10\n      jumpi\n      dup1\n      0xe002c8a5\n      eq\n      tag_11\n      jumpi\n      dup1\n      0xf5c0e383\n      eq\n      tag_12\n      jumpi\n      jump(tag_2)\n    tag_13:\n      dup1\n      0x1fedd36c\n      eq\n      tag_3\n      jumpi\n      dup1\n      0x2f1d7588\n      eq\n      tag_4\n      jumpi\n      dup1\n      0x93a668b7\n      eq\n      tag_5\n      jumpi\n      dup1\n      0xaab3a9d6\n      eq\n      tag_6\n      jumpi\n      dup1\n      0xabb428a6\n      eq\n      tag_7\n      jumpi\n    tag_2:\n        /* \"--CODEGEN--\":12:13   */\n      0x00\n        /* \"--CODEGEN--\":9:10   */\n      dup1\n        /* \"--CODEGEN--\":2:14   */\n      revert\n        /* \"contracts/Medicine.sol\":3041:3909  function receivedMedicine(... */\n    tag_3:\n      tag_14\n      0x04\n      dup1\n      calldatasize\n      sub\n        /* \"--CODEGEN--\":15:17   */\n      0x20\n        /* \"--CODEGEN--\":10:13   */\n      dup2\n        /* \"--CODEGEN--\":7:18   */\n      lt\n        /* \"--CODEGEN--\":4:6   */\n      iszero\n      tag_15\n      jumpi\n        /* \"--CODEGEN--\":31:32   */\n      0x00\n        /* \"--CODEGEN--\":28:29   */\n      dup1\n        /* \"--CODEGEN--\":21:33   */\n      revert\n        /* \"--CODEGEN--\":4:6   */\n    tag_15:\n        /* \"contracts/Medicine.sol\":3041:3909  function receivedMedicine(... */\n      dup2\n      add\n      swap1\n      dup1\n      dup1\n      calldataload\n      0xffffffffffffffffffffffffffffffffffffffff\n      and\n      swap1\n      0x20\n      add\n      swap1\n      swap3\n      swap2\n      swap1\n      pop\n      pop\n      pop\n      tag_16\n      jump\t// in\n    tag_14:\n      mload(0x40)\n      dup1\n      dup3\n      dup2\n      mstore\n      0x20\n      add\n      swap2\n      pop\n      pop\n      mload(0x40)\n      dup1\n      swap2\n      sub\n      swap1\n      return\n        /* \"contracts/Medicine.sol\":4416:4682  function sendDtoC(... */\n    tag_4:\n      tag_17\n      0x04\n      dup1\n      calldatasize\n      sub\n        /* \"--CODEGEN--\":15:17   */\n      0x40\n        /* \"--CODEGEN--\":10:13   */\n      dup2\n        /* \"--CODEGEN--\":7:18   */\n      lt\n        /* \"--CODEGEN--\":4:6   */\n      iszero\n      tag_18\n      jumpi\n        /* \"--CODEGEN--\":31:32   */\n      0x00\n        /* \"--CODEGEN--\":28:29   */\n      dup1\n        /* \"--CODEGEN--\":21:33   */\n      revert\n        /* \"--CODEGEN--\":4:6   */\n    tag_18:\n        /* \"contracts/Medicine.sol\":4416:4682  function sendDtoC(... */\n      dup2\n      add\n      swap1\n      dup1\n      dup1\n      calldataload\n      0xffffffffffffffffffffffffffffffffffffffff\n      and\n      swap1\n      0x20\n      add\n      swap1\n      swap3\n      swap2\n      swap1\n      dup1\n      calldataload\n      0xffffffffffffffffffffffffffffffffffffffff\n      and\n      swap1\n      0x20\n      add\n      swap1\n      swap3\n      swap2\n      swap1\n      pop\n      pop\n      pop\n      tag_19\n      jump\t// in\n    tag_17:\n      stop\n        /* \"contracts/Medicine.sol\":4190:4409  function receivedWtoD(... */\n    tag_5:\n      tag_20\n      0x04\n      dup1\n      calldatasize\n      sub\n        /* \"--CODEGEN--\":15:17   */\n      0x20\n        /* \"--CODEGEN--\":10:13   */\n      dup2\n        /* \"--CODEGEN--\":7:18   */\n      lt\n        /* \"--CODEGEN--\":4:6   */\n      iszero\n      tag_21\n      jumpi\n        /* \"--CODEGEN--\":31:32   */\n      0x00\n        /* \"--CODEGEN--\":28:29   */\n      dup1\n        /* \"--CODEGEN--\":21:33   */\n      revert\n        /* \"--CODEGEN--\":4:6   */\n    tag_21:\n        /* \"contracts/Medicine.sol\":4190:4409  function receivedWtoD(... */\n      dup2\n      add\n      swap1\n      dup1\n      dup1\n      calldataload\n      0xffffffffffffffffffffffffffffffffffffffff\n      and\n      swap1\n      0x20\n      add\n      swap1\n      swap3\n      swap2\n      swap1\n      pop\n      pop\n      pop\n      tag_22\n      jump\t// in\n    tag_20:\n      stop\n        /* \"contracts/Medicine.sol\":2917:3034  function updateTransporterArray(address _transporterAddr) public {... */\n    tag_6:\n      tag_23\n      0x04\n      dup1\n      calldatasize\n      sub\n        /* \"--CODEGEN--\":15:17   */\n      0x20\n        /* \"--CODEGEN--\":10:13   */\n      dup2\n        /* \"--CODEGEN--\":7:18   */\n      lt\n        /* \"--CODEGEN--\":4:6   */\n      iszero\n      tag_24\n      jumpi\n        /* \"--CODEGEN--\":31:32   */\n      0x00\n        /* \"--CODEGEN--\":28:29   */\n      dup1\n        /* \"--CODEGEN--\":21:33   */\n      revert\n        /* \"--CODEGEN--\":4:6   */\n    tag_24:\n        /* \"contracts/Medicine.sol\":2917:3034  function updateTransporterArray(address _transporterAddr) public {... */\n      dup2\n      add\n      swap1\n      dup1\n      dup1\n      calldataload\n      0xffffffffffffffffffffffffffffffffffffffff\n      and\n      swap1\n      0x20\n      add\n      swap1\n      swap3\n      swap2\n      swap1\n      pop\n      pop\n      pop\n      tag_25\n      jump\t// in\n    tag_23:\n      stop\n        /* \"contracts/Medicine.sol\":1970:2128  function getWDC() public view returns(... */\n    tag_7:\n      tag_26\n      tag_27\n      jump\t// in\n    tag_26:\n      mload(0x40)\n      dup1\n      dup3\n      mul(0x20, 0x03)\n      dup1\n      dup4\n      dup4\n        /* \"--CODEGEN--\":23:24   */\n      0x00\n        /* \"--CODEGEN--\":8:108   */\n    tag_28:\n        /* \"--CODEGEN--\":33:36   */\n      dup4\n        /* \"--CODEGEN--\":30:31   */\n      dup2\n        /* \"--CODEGEN--\":27:37   */\n      lt\n        /* \"--CODEGEN--\":8:108   */\n      iszero\n      tag_30\n      jumpi\n        /* \"--CODEGEN--\":99:100   */\n      dup1\n        /* \"--CODEGEN--\":94:97   */\n      dup3\n        /* \"--CODEGEN--\":90:101   */\n      add\n        /* \"--CODEGEN--\":84:102   */\n      mload\n        /* \"--CODEGEN--\":80:81   */\n      dup2\n        /* \"--CODEGEN--\":75:78   */\n      dup5\n        /* \"--CODEGEN--\":71:82   */\n      add\n        /* \"--CODEGEN--\":64:103   */\n      mstore\n        /* \"--CODEGEN--\":52:54   */\n      0x20\n        /* \"--CODEGEN--\":49:50   */\n      dup2\n        /* \"--CODEGEN--\":45:55   */\n      add\n        /* \"--CODEGEN--\":40:55   */\n      swap1\n      pop\n        /* \"--CODEGEN--\":8:108   */\n      jump(tag_28)\n    tag_30:\n        /* \"--CODEGEN--\":12:26   */\n      pop\n        /* \"contracts/Medicine.sol\":1970:2128  function getWDC() public view returns(... */\n      pop\n      pop\n      pop\n      swap1\n      pop\n      add\n      swap2\n      pop\n      pop\n      mload(0x40)\n      dup1\n      swap2\n      sub\n      swap1\n      return\n        /* \"contracts/Medicine.sol\":2245:2907  function pickMedicine(... */\n    tag_8:\n      tag_31\n      0x04\n      dup1\n      calldatasize\n      sub\n        /* \"--CODEGEN--\":15:17   */\n      0x20\n        /* \"--CODEGEN--\":10:13   */\n      dup2\n        /* \"--CODEGEN--\":7:18   */\n      lt\n        /* \"--CODEGEN--\":4:6   */\n      iszero\n      tag_32\n      jumpi\n        /* \"--CODEGEN--\":31:32   */\n      0x00\n        /* \"--CODEGEN--\":28:29   */\n      dup1\n        /* \"--CODEGEN--\":21:33   */\n      revert\n        /* \"--CODEGEN--\":4:6   */\n    tag_32:\n        /* \"contracts/Medicine.sol\":2245:2907  function pickMedicine(... */\n      dup2\n      add\n      swap1\n      dup1\n      dup1\n      calldataload\n      0xffffffffffffffffffffffffffffffffffffffff\n      and\n      swap1\n      0x20\n      add\n      swap1\n      swap3\n      swap2\n      swap1\n      pop\n      pop\n      pop\n      tag_33\n      jump\t// in\n    tag_31:\n      stop\n        /* \"contracts/Medicine.sol\":4689:4902  function receivedDtoC(... */\n    tag_9:\n      tag_34\n      0x04\n      dup1\n      calldatasize\n      sub\n        /* \"--CODEGEN--\":15:17   */\n      0x20\n        /* \"--CODEGEN--\":10:13   */\n      dup2\n        /* \"--CODEGEN--\":7:18   */\n      lt\n        /* \"--CODEGEN--\":4:6   */\n      iszero\n      tag_35\n      jumpi\n        /* \"--CODEGEN--\":31:32   */\n      0x00\n        /* \"--CODEGEN--\":28:29   */\n      dup1\n        /* \"--CODEGEN--\":21:33   */\n      revert\n        /* \"--CODEGEN--\":4:6   */\n    tag_35:\n        /* \"contracts/Medicine.sol\":4689:4902  function receivedDtoC(... */\n      dup2\n      add\n      swap1\n      dup1\n      dup1\n      calldataload\n      0xffffffffffffffffffffffffffffffffffffffff\n      and\n      swap1\n      0x20\n      add\n      swap1\n      swap3\n      swap2\n      swap1\n      pop\n      pop\n      pop\n      tag_36\n      jump\t// in\n    tag_34:\n      stop\n        /* \"contracts/Medicine.sol\":2134:2238  function getBatchIDStatus() public view returns(... */\n    tag_10:\n      tag_37\n      tag_38\n      jump\t// in\n    tag_37:\n      mload(0x40)\n      dup1\n      dup3\n      dup2\n      mstore\n      0x20\n      add\n      swap2\n      pop\n      pop\n      mload(0x40)\n      dup1\n      swap2\n      sub\n      swap1\n      return\n        /* \"contracts/Medicine.sol\":1479:1962  function getMedicineInfo () public view returns(... */\n    tag_11:\n      tag_39\n      tag_40\n      jump\t// in\n    tag_39:\n      mload(0x40)\n      dup1\n      dup9\n      0xffffffffffffffffffffffffffffffffffffffff\n      and\n      0xffffffffffffffffffffffffffffffffffffffff\n      and\n      dup2\n      mstore\n      0x20\n      add\n      dup8\n      dup2\n      mstore\n      0x20\n      add\n      dup1\n      0x20\n      add\n      dup7\n      dup2\n      mstore\n      0x20\n      add\n      dup1\n      0x20\n      add\n      dup6\n      0xffffffffffffffffffffffffffffffffffffffff\n      and\n      0xffffffffffffffffffffffffffffffffffffffff\n      and\n      dup2\n      mstore\n      0x20\n      add\n      dup5\n      0xffffffffffffffffffffffffffffffffffffffff\n      and\n      0xffffffffffffffffffffffffffffffffffffffff\n      and\n      dup2\n      mstore\n      0x20\n      add\n      dup4\n      dup2\n      sub\n      dup4\n      mstore\n      dup9\n      dup2\n      dup2\n      mload\n      dup2\n      mstore\n      0x20\n      add\n      swap2\n      pop\n      dup1\n      mload\n      swap1\n      0x20\n      add\n      swap1\n      0x20\n      mul\n      dup1\n      dup4\n      dup4\n        /* \"--CODEGEN--\":23:24   */\n      0x00\n        /* \"--CODEGEN--\":8:108   */\n    tag_41:\n        /* \"--CODEGEN--\":33:36   */\n      dup4\n        /* \"--CODEGEN--\":30:31   */\n      dup2\n        /* \"--CODEGEN--\":27:37   */\n      lt\n        /* \"--CODEGEN--\":8:108   */\n      iszero\n      tag_43\n      jumpi\n        /* \"--CODEGEN--\":99:100   */\n      dup1\n        /* \"--CODEGEN--\":94:97   */\n      dup3\n        /* \"--CODEGEN--\":90:101   */\n      add\n        /* \"--CODEGEN--\":84:102   */\n      mload\n        /* \"--CODEGEN--\":80:81   */\n      dup2\n        /* \"--CODEGEN--\":75:78   */\n      dup5\n        /* \"--CODEGEN--\":71:82   */\n      add\n        /* \"--CODEGEN--\":64:103   */\n      mstore\n        /* \"--CODEGEN--\":52:54   */\n      0x20\n        /* \"--CODEGEN--\":49:50   */\n      dup2\n        /* \"--CODEGEN--\":45:55   */\n      add\n        /* \"--CODEGEN--\":40:55   */\n      swap1\n      pop\n        /* \"--CODEGEN--\":8:108   */\n      jump(tag_41)\n    tag_43:\n        /* \"--CODEGEN--\":12:26   */\n      pop\n        /* \"contracts/Medicine.sol\":1479:1962  function getMedicineInfo () public view returns(... */\n      pop\n      pop\n      pop\n      swap1\n      pop\n      add\n      dup4\n      dup2\n      sub\n      dup3\n      mstore\n      dup7\n      dup2\n      dup2\n      mload\n      dup2\n      mstore\n      0x20\n      add\n      swap2\n      pop\n      dup1\n      mload\n      swap1\n      0x20\n      add\n      swap1\n      0x20\n      mul\n      dup1\n      dup4\n      dup4\n        /* \"--CODEGEN--\":23:24   */\n      0x00\n        /* \"--CODEGEN--\":8:108   */\n    tag_44:\n        /* \"--CODEGEN--\":33:36   */\n      dup4\n        /* \"--CODEGEN--\":30:31   */\n      dup2\n        /* \"--CODEGEN--\":27:37   */\n      lt\n        /* \"--CODEGEN--\":8:108   */\n      iszero\n      tag_46\n      jumpi\n        /* \"--CODEGEN--\":99:100   */\n      dup1\n        /* \"--CODEGEN--\":94:97   */\n      dup3\n        /* \"--CODEGEN--\":90:101   */\n      add\n        /* \"--CODEGEN--\":84:102   */\n      mload\n        /* \"--CODEGEN--\":80:81   */\n      dup2\n        /* \"--CODEGEN--\":75:78   */\n      dup5\n        /* \"--CODEGEN--\":71:82   */\n      add\n        /* \"--CODEGEN--\":64:103   */\n      mstore\n        /* \"--CODEGEN--\":52:54   */\n      0x20\n        /* \"--CODEGEN--\":49:50   */\n      dup2\n        /* \"--CODEGEN--\":45:55   */\n      add\n        /* \"--CODEGEN--\":40:55   */\n      swap1\n      pop\n        /* \"--CODEGEN--\":8:108   */\n      jump(tag_44)\n    tag_46:\n        /* \"--CODEGEN--\":12:26   */\n      pop\n        /* \"contracts/Medicine.sol\":1479:1962  function getMedicineInfo () public view returns(... */\n      pop\n      pop\n      pop\n      swap1\n      pop\n      add\n      swap10\n      pop\n      pop\n      pop\n      pop\n      pop\n      pop\n      pop\n      pop\n      pop\n      pop\n      mload(0x40)\n      dup1\n      swap2\n      sub\n      swap1\n      return\n        /* \"contracts/Medicine.sol\":3916:4183  function sendWtoD(... */\n    tag_12:\n      tag_47\n      0x04\n      dup1\n      calldatasize\n      sub\n        /* \"--CODEGEN--\":15:17   */\n      0x40\n        /* \"--CODEGEN--\":10:13   */\n      dup2\n        /* \"--CODEGEN--\":7:18   */\n      lt\n        /* \"--CODEGEN--\":4:6   */\n      iszero\n      tag_48\n      jumpi\n        /* \"--CODEGEN--\":31:32   */\n      0x00\n        /* \"--CODEGEN--\":28:29   */\n      dup1\n        /* \"--CODEGEN--\":21:33   */\n      revert\n        /* \"--CODEGEN--\":4:6   */\n    tag_48:\n        /* \"contracts/Medicine.sol\":3916:4183  function sendWtoD(... */\n      dup2\n      add\n      swap1\n      dup1\n      dup1\n      calldataload\n      0xffffffffffffffffffffffffffffffffffffffff\n      and\n      swap1\n      0x20\n      add\n      swap1\n      swap3\n      swap2\n      swap1\n      dup1\n      calldataload\n      0xffffffffffffffffffffffffffffffffffffffff\n      and\n      swap1\n      0x20\n      add\n      swap1\n      swap3\n      swap2\n      swap1\n      pop\n      pop\n      pop\n      tag_49\n      jump\t// in\n    tag_47:\n      stop\n        /* \"contracts/Medicine.sol\":3041:3909  function receivedMedicine(... */\n    tag_16:\n        /* \"contracts/Medicine.sol\":3123:3127  uint */\n      0x00\n        /* \"contracts/Medicine.sol\":3182:3192  wholesaler */\n      0x05\n      0x00\n      swap1\n      sload\n      swap1\n      0x0100\n      exp\n      swap1\n      div\n      0xffffffffffffffffffffffffffffffffffffffff\n      and\n        /* \"contracts/Medicine.sol\":3165:3192  _receiverAddr == wholesaler */\n      0xffffffffffffffffffffffffffffffffffffffff\n      and\n        /* \"contracts/Medicine.sol\":3165:3178  _receiverAddr */\n      dup3\n        /* \"contracts/Medicine.sol\":3165:3192  _receiverAddr == wholesaler */\n      0xffffffffffffffffffffffffffffffffffffffff\n      and\n      eq\n        /* \"contracts/Medicine.sol\":3165:3224  _receiverAddr == wholesaler || _receiverAddr == distributor */\n      dup1\n      tag_51\n      jumpi\n      pop\n        /* \"contracts/Medicine.sol\":3213:3224  distributor */\n      0x06\n      0x00\n      swap1\n      sload\n      swap1\n      0x0100\n      exp\n      swap1\n      div\n      0xffffffffffffffffffffffffffffffffffffffff\n      and\n        /* \"contracts/Medicine.sol\":3196:3224  _receiverAddr == distributor */\n      0xffffffffffffffffffffffffffffffffffffffff\n      and\n        /* \"contracts/Medicine.sol\":3196:3209  _receiverAddr */\n      dup3\n        /* \"contracts/Medicine.sol\":3196:3224  _receiverAddr == distributor */\n      0xffffffffffffffffffffffffffffffffffffffff\n      and\n      eq\n        /* \"contracts/Medicine.sol\":3165:3224  _receiverAddr == wholesaler || _receiverAddr == distributor */\n    tag_51:\n        /* \"contracts/Medicine.sol\":3144:3303  require(... */\n      tag_52\n      jumpi\n      mload(0x40)\n      0x08c379a000000000000000000000000000000000000000000000000000000000\n      dup2\n      mstore\n      0x04\n      add\n      dup1\n      dup1\n      0x20\n      add\n      dup3\n      dup2\n      sub\n      dup3\n      mstore\n      0x35\n      dup2\n      mstore\n      0x20\n      add\n      dup1\n      data_89c77f2c40d912bd9f09538c8086ba81eef65966b4854bf260775f57bc97d116\n      0x35\n      swap2\n      codecopy\n      0x40\n      add\n      swap2\n      pop\n      pop\n      mload(0x40)\n      dup1\n      swap2\n      sub\n      swap1\n      revert\n    tag_52:\n        /* \"contracts/Medicine.sol\":3351:3352  1 */\n      0x01\n        /* \"contracts/Medicine.sol\":3340:3346  status */\n      0x09\n      0x00\n      swap1\n      sload\n      swap1\n      0x0100\n      exp\n      swap1\n      div\n      0xff\n      and\n        /* \"contracts/Medicine.sol\":3335:3347  uint(status) */\n      0x06\n      dup2\n      gt\n      iszero\n      tag_53\n      jumpi\n      invalid\n    tag_53:\n        /* \"contracts/Medicine.sol\":3335:3352  uint(status) >= 1 */\n      lt\n      iszero\n        /* \"contracts/Medicine.sol\":3314:3403  require(... */\n      tag_54\n      jumpi\n      mload(0x40)\n      0x08c379a000000000000000000000000000000000000000000000000000000000\n      dup2\n      mstore\n      0x04\n      add\n      dup1\n      dup1\n      0x20\n      add\n      dup3\n      dup2\n      sub\n      dup3\n      mstore\n      0x19\n      dup2\n      mstore\n      0x20\n      add\n      dup1\n      0x50726f64756374206e6f74207069636b65642075702079657400000000000000\n      dup2\n      mstore\n      pop\n      0x20\n      add\n      swap2\n      pop\n      pop\n      mload(0x40)\n      dup1\n      swap2\n      sub\n      swap1\n      revert\n    tag_54:\n        /* \"contracts/Medicine.sol\":3434:3444  wholesaler */\n      0x05\n      0x00\n      swap1\n      sload\n      swap1\n      0x0100\n      exp\n      swap1\n      div\n      0xffffffffffffffffffffffffffffffffffffffff\n      and\n        /* \"contracts/Medicine.sol\":3417:3444  _receiverAddr == wholesaler */\n      0xffffffffffffffffffffffffffffffffffffffff\n      and\n        /* \"contracts/Medicine.sol\":3417:3430  _receiverAddr */\n      dup3\n        /* \"contracts/Medicine.sol\":3417:3444  _receiverAddr == wholesaler */\n      0xffffffffffffffffffffffffffffffffffffffff\n      and\n      eq\n        /* \"contracts/Medicine.sol\":3417:3475  _receiverAddr == wholesaler && status == medicineStatus(1) */\n      dup1\n      iszero\n      tag_55\n      jumpi\n      pop\n        /* \"contracts/Medicine.sol\":3473:3474  1 */\n      0x01\n        /* \"contracts/Medicine.sol\":3458:3475  medicineStatus(1) */\n      0x06\n      dup2\n      gt\n      iszero\n      tag_56\n      jumpi\n      invalid\n    tag_56:\n        /* \"contracts/Medicine.sol\":3448:3475  status == medicineStatus(1) */\n      0x06\n      dup2\n      gt\n      iszero\n      tag_57\n      jumpi\n      invalid\n    tag_57:\n        /* \"contracts/Medicine.sol\":3448:3454  status */\n      0x09\n      0x00\n      swap1\n      sload\n      swap1\n      0x0100\n      exp\n      swap1\n      div\n      0xff\n      and\n        /* \"contracts/Medicine.sol\":3448:3475  status == medicineStatus(1) */\n      0x06\n      dup2\n      gt\n      iszero\n      tag_58\n      jumpi\n      invalid\n    tag_58:\n      eq\n        /* \"contracts/Medicine.sol\":3417:3475  _receiverAddr == wholesaler && status == medicineStatus(1) */\n    tag_55:\n        /* \"contracts/Medicine.sol\":3414:3903  if(_receiverAddr == wholesaler && status == medicineStatus(1)){... */\n      iszero\n      tag_59\n      jumpi\n        /* \"contracts/Medicine.sol\":3514:3515  3 */\n      0x03\n        /* \"contracts/Medicine.sol\":3499:3516  medicineStatus(3) */\n      0x06\n      dup2\n      gt\n      iszero\n      tag_60\n      jumpi\n      invalid\n    tag_60:\n        /* \"contracts/Medicine.sol\":3490:3496  status */\n      0x09\n      0x00\n        /* \"contracts/Medicine.sol\":3490:3516  status = medicineStatus(3) */\n      0x0100\n      exp\n      dup2\n      sload\n      dup2\n      0xff\n      mul\n      not\n      and\n      swap1\n      dup4\n      0x06\n      dup2\n      gt\n      iszero\n      tag_61\n      jumpi\n      invalid\n    tag_61:\n      mul\n      or\n      swap1\n      sstore\n      pop\n        /* \"contracts/Medicine.sol\":3605:3615  wholesaler */\n      0x05\n      0x00\n      swap1\n      sload\n      swap1\n      0x0100\n      exp\n      swap1\n      div\n      0xffffffffffffffffffffffffffffffffffffffff\n      and\n        /* \"contracts/Medicine.sol\":3535:3622  ShippmentUpdate(address(this), transporters[transporters.length - 1], wholesaler, 2, 3) */\n      0xffffffffffffffffffffffffffffffffffffffff\n      and\n        /* \"contracts/Medicine.sol\":3566:3578  transporters */\n      0x03\n        /* \"contracts/Medicine.sol\":3601:3602  1 */\n      0x01\n        /* \"contracts/Medicine.sol\":3579:3591  transporters */\n      0x03\n        /* \"contracts/Medicine.sol\":3579:3598  transporters.length */\n      dup1\n      sload\n      swap1\n      pop\n        /* \"contracts/Medicine.sol\":3579:3602  transporters.length - 1 */\n      sub\n        /* \"contracts/Medicine.sol\":3566:3603  transporters[transporters.length - 1] */\n      dup2\n      sload\n      dup2\n      lt\n      tag_62\n      jumpi\n      invalid\n    tag_62:\n      swap1\n      0x00\n      mstore\n      keccak256(0x00, 0x20)\n      add\n      0x00\n      swap1\n      sload\n      swap1\n      0x0100\n      exp\n      swap1\n      div\n      0xffffffffffffffffffffffffffffffffffffffff\n      and\n        /* \"contracts/Medicine.sol\":3535:3622  ShippmentUpdate(address(this), transporters[transporters.length - 1], wholesaler, 2, 3) */\n      0xffffffffffffffffffffffffffffffffffffffff\n      and\n        /* \"contracts/Medicine.sol\":3559:3563  this */\n      address\n        /* \"contracts/Medicine.sol\":3535:3622  ShippmentUpdate(address(this), transporters[transporters.length - 1], wholesaler, 2, 3) */\n      0xffffffffffffffffffffffffffffffffffffffff\n      and\n      0x7e89c4b1a4e2b51aae84eb1f90e8a34cb792ece5ac5cb63db4830c891220b28d\n        /* \"contracts/Medicine.sol\":3617:3618  2 */\n      0x02\n        /* \"contracts/Medicine.sol\":3620:3621  3 */\n      0x03\n        /* \"contracts/Medicine.sol\":3535:3622  ShippmentUpdate(address(this), transporters[transporters.length - 1], wholesaler, 2, 3) */\n      mload(0x40)\n      dup1\n      dup4\n      dup2\n      mstore\n      0x20\n      add\n      dup3\n      dup2\n      mstore\n      0x20\n      add\n      swap3\n      pop\n      pop\n      pop\n      mload(0x40)\n      dup1\n      swap2\n      sub\n      swap1\n      log4\n        /* \"contracts/Medicine.sol\":3643:3644  1 */\n      0x01\n        /* \"contracts/Medicine.sol\":3636:3644  return 1 */\n      swap1\n      pop\n      jump(tag_50)\n        /* \"contracts/Medicine.sol\":3414:3903  if(_receiverAddr == wholesaler && status == medicineStatus(1)){... */\n    tag_59:\n        /* \"contracts/Medicine.sol\":3681:3692  distributor */\n      0x06\n      0x00\n      swap1\n      sload\n      swap1\n      0x0100\n      exp\n      swap1\n      div\n      0xffffffffffffffffffffffffffffffffffffffff\n      and\n        /* \"contracts/Medicine.sol\":3664:3692  _receiverAddr == distributor */\n      0xffffffffffffffffffffffffffffffffffffffff\n      and\n        /* \"contracts/Medicine.sol\":3664:3677  _receiverAddr */\n      dup3\n        /* \"contracts/Medicine.sol\":3664:3692  _receiverAddr == distributor */\n      0xffffffffffffffffffffffffffffffffffffffff\n      and\n      eq\n        /* \"contracts/Medicine.sol\":3664:3723  _receiverAddr == distributor && status == medicineStatus(2) */\n      dup1\n      iszero\n      tag_65\n      jumpi\n      pop\n        /* \"contracts/Medicine.sol\":3721:3722  2 */\n      0x02\n        /* \"contracts/Medicine.sol\":3706:3723  medicineStatus(2) */\n      0x06\n      dup2\n      gt\n      iszero\n      tag_66\n      jumpi\n      invalid\n    tag_66:\n        /* \"contracts/Medicine.sol\":3696:3723  status == medicineStatus(2) */\n      0x06\n      dup2\n      gt\n      iszero\n      tag_67\n      jumpi\n      invalid\n    tag_67:\n        /* \"contracts/Medicine.sol\":3696:3702  status */\n      0x09\n      0x00\n      swap1\n      sload\n      swap1\n      0x0100\n      exp\n      swap1\n      div\n      0xff\n      and\n        /* \"contracts/Medicine.sol\":3696:3723  status == medicineStatus(2) */\n      0x06\n      dup2\n      gt\n      iszero\n      tag_68\n      jumpi\n      invalid\n    tag_68:\n      eq\n        /* \"contracts/Medicine.sol\":3664:3723  _receiverAddr == distributor && status == medicineStatus(2) */\n    tag_65:\n        /* \"contracts/Medicine.sol\":3661:3903  if(_receiverAddr == distributor && status == medicineStatus(2)){... */\n      iszero\n      tag_69\n      jumpi\n        /* \"contracts/Medicine.sol\":3762:3763  4 */\n      0x04\n        /* \"contracts/Medicine.sol\":3747:3764  medicineStatus(4) */\n      0x06\n      dup2\n      gt\n      iszero\n      tag_70\n      jumpi\n      invalid\n    tag_70:\n        /* \"contracts/Medicine.sol\":3738:3744  status */\n      0x09\n      0x00\n        /* \"contracts/Medicine.sol\":3738:3764  status = medicineStatus(4) */\n      0x0100\n      exp\n      dup2\n      sload\n      dup2\n      0xff\n      mul\n      not\n      and\n      swap1\n      dup4\n      0x06\n      dup2\n      gt\n      iszero\n      tag_71\n      jumpi\n      invalid\n    tag_71:\n      mul\n      or\n      swap1\n      sstore\n      pop\n        /* \"contracts/Medicine.sol\":3853:3864  distributor */\n      0x06\n      0x00\n      swap1\n      sload\n      swap1\n      0x0100\n      exp\n      swap1\n      div\n      0xffffffffffffffffffffffffffffffffffffffff\n      and\n        /* \"contracts/Medicine.sol\":3783:3870  ShippmentUpdate(address(this), transporters[transporters.length - 1], distributor,3, 4) */\n      0xffffffffffffffffffffffffffffffffffffffff\n      and\n        /* \"contracts/Medicine.sol\":3814:3826  transporters */\n      0x03\n        /* \"contracts/Medicine.sol\":3849:3850  1 */\n      0x01\n        /* \"contracts/Medicine.sol\":3827:3839  transporters */\n      0x03\n        /* \"contracts/Medicine.sol\":3827:3846  transporters.length */\n      dup1\n      sload\n      swap1\n      pop\n        /* \"contracts/Medicine.sol\":3827:3850  transporters.length - 1 */\n      sub\n        /* \"contracts/Medicine.sol\":3814:3851  transporters[transporters.length - 1] */\n      dup2\n      sload\n      dup2\n      lt\n      tag_72\n      jumpi\n      invalid\n    tag_72:\n      swap1\n      0x00\n      mstore\n      keccak256(0x00, 0x20)\n      add\n      0x00\n      swap1\n      sload\n      swap1\n      0x0100\n      exp\n      swap1\n      div\n      0xffffffffffffffffffffffffffffffffffffffff\n      and\n        /* \"contracts/Medicine.sol\":3783:3870  ShippmentUpdate(address(this), transporters[transporters.length - 1], distributor,3, 4) */\n      0xffffffffffffffffffffffffffffffffffffffff\n      and\n        /* \"contracts/Medicine.sol\":3807:3811  this */\n      address\n        /* \"contracts/Medicine.sol\":3783:3870  ShippmentUpdate(address(this), transporters[transporters.length - 1], distributor,3, 4) */\n      0xffffffffffffffffffffffffffffffffffffffff\n      and\n      0x7e89c4b1a4e2b51aae84eb1f90e8a34cb792ece5ac5cb63db4830c891220b28d\n        /* \"contracts/Medicine.sol\":3865:3866  3 */\n      0x03\n        /* \"contracts/Medicine.sol\":3868:3869  4 */\n      0x04\n        /* \"contracts/Medicine.sol\":3783:3870  ShippmentUpdate(address(this), transporters[transporters.length - 1], distributor,3, 4) */\n      mload(0x40)\n      dup1\n      dup4\n      dup2\n      mstore\n      0x20\n      add\n      dup3\n      dup2\n      mstore\n      0x20\n      add\n      swap3\n      pop\n      pop\n      pop\n      mload(0x40)\n      dup1\n      swap2\n      sub\n      swap1\n      log4\n        /* \"contracts/Medicine.sol\":3891:3892  2 */\n      0x02\n        /* \"contracts/Medicine.sol\":3884:3892  return 2 */\n      swap1\n      pop\n      jump(tag_50)\n        /* \"contracts/Medicine.sol\":3661:3903  if(_receiverAddr == distributor && status == medicineStatus(2)){... */\n    tag_69:\n        /* \"contracts/Medicine.sol\":3041:3909  function receivedMedicine(... */\n    tag_50:\n      swap2\n      swap1\n      pop\n      jump\t// out\n        /* \"contracts/Medicine.sol\":4416:4682  function sendDtoC(... */\n    tag_19:\n        /* \"contracts/Medicine.sol\":4543:4549  sender */\n      dup1\n        /* \"contracts/Medicine.sol\":4528:4549  distributor == sender */\n      0xffffffffffffffffffffffffffffffffffffffff\n      and\n        /* \"contracts/Medicine.sol\":4528:4539  distributor */\n      0x06\n      0x00\n      swap1\n      sload\n      swap1\n      0x0100\n      exp\n      swap1\n      div\n      0xffffffffffffffffffffffffffffffffffffffff\n      and\n        /* \"contracts/Medicine.sol\":4528:4549  distributor == sender */\n      0xffffffffffffffffffffffffffffffffffffffff\n      and\n      eq\n        /* \"contracts/Medicine.sol\":4507:4610  require(... */\n      tag_75\n      jumpi\n      mload(0x40)\n      0x08c379a000000000000000000000000000000000000000000000000000000000\n      dup2\n      mstore\n      0x04\n      add\n      dup1\n      dup1\n      0x20\n      add\n      dup3\n      dup2\n      sub\n      dup3\n      mstore\n      0x23\n      dup2\n      mstore\n      0x20\n      add\n      dup1\n      data_c7acab7d6db4a77da988a3cd7835825ad9103d7bf1cfa350bca35f769089b66f\n      0x23\n      swap2\n      codecopy\n      0x40\n      add\n      swap2\n      pop\n      pop\n      mload(0x40)\n      dup1\n      swap2\n      sub\n      swap1\n      revert\n    tag_75:\n        /* \"contracts/Medicine.sol\":4631:4639  receiver */\n      dup2\n        /* \"contracts/Medicine.sol\":4620:4628  customer */\n      0x07\n      0x00\n        /* \"contracts/Medicine.sol\":4620:4639  customer = receiver */\n      0x0100\n      exp\n      dup2\n      sload\n      dup2\n      0xffffffffffffffffffffffffffffffffffffffff\n      mul\n      not\n      and\n      swap1\n      dup4\n      0xffffffffffffffffffffffffffffffffffffffff\n      and\n      mul\n      or\n      swap1\n      sstore\n      pop\n        /* \"contracts/Medicine.sol\":4673:4674  5 */\n      0x05\n        /* \"contracts/Medicine.sol\":4658:4675  medicineStatus(5) */\n      0x06\n      dup2\n      gt\n      iszero\n      tag_76\n      jumpi\n      invalid\n    tag_76:\n        /* \"contracts/Medicine.sol\":4649:4655  status */\n      0x09\n      0x00\n        /* \"contracts/Medicine.sol\":4649:4675  status = medicineStatus(5) */\n      0x0100\n      exp\n      dup2\n      sload\n      dup2\n      0xff\n      mul\n      not\n      and\n      swap1\n      dup4\n      0x06\n      dup2\n      gt\n      iszero\n      tag_77\n      jumpi\n      invalid\n    tag_77:\n      mul\n      or\n      swap1\n      sstore\n      pop\n        /* \"contracts/Medicine.sol\":4416:4682  function sendDtoC(... */\n      pop\n      pop\n      jump\t// out\n        /* \"contracts/Medicine.sol\":4190:4409  function receivedWtoD(... */\n    tag_22:\n        /* \"contracts/Medicine.sol\":4297:4305  receiver */\n      dup1\n        /* \"contracts/Medicine.sol\":4282:4305  distributor == receiver */\n      0xffffffffffffffffffffffffffffffffffffffff\n      and\n        /* \"contracts/Medicine.sol\":4282:4293  distributor */\n      0x06\n      0x00\n      swap1\n      sload\n      swap1\n      0x0100\n      exp\n      swap1\n      div\n      0xffffffffffffffffffffffffffffffffffffffff\n      and\n        /* \"contracts/Medicine.sol\":4282:4305  distributor == receiver */\n      0xffffffffffffffffffffffffffffffffffffffff\n      and\n      eq\n        /* \"contracts/Medicine.sol\":4261:4366  require(... */\n      tag_79\n      jumpi\n      mload(0x40)\n      0x08c379a000000000000000000000000000000000000000000000000000000000\n      dup2\n      mstore\n      0x04\n      add\n      dup1\n      dup1\n      0x20\n      add\n      dup3\n      dup2\n      sub\n      dup3\n      mstore\n      0x23\n      dup2\n      mstore\n      0x20\n      add\n      dup1\n      data_c7acab7d6db4a77da988a3cd7835825ad9103d7bf1cfa350bca35f769089b66f\n      0x23\n      swap2\n      codecopy\n      0x40\n      add\n      swap2\n      pop\n      pop\n      mload(0x40)\n      dup1\n      swap2\n      sub\n      swap1\n      revert\n    tag_79:\n        /* \"contracts/Medicine.sol\":4400:4401  4 */\n      0x04\n        /* \"contracts/Medicine.sol\":4385:4402  medicineStatus(4) */\n      0x06\n      dup2\n      gt\n      iszero\n      tag_80\n      jumpi\n      invalid\n    tag_80:\n        /* \"contracts/Medicine.sol\":4376:4382  status */\n      0x09\n      0x00\n        /* \"contracts/Medicine.sol\":4376:4402  status = medicineStatus(4) */\n      0x0100\n      exp\n      dup2\n      sload\n      dup2\n      0xff\n      mul\n      not\n      and\n      swap1\n      dup4\n      0x06\n      dup2\n      gt\n      iszero\n      tag_81\n      jumpi\n      invalid\n    tag_81:\n      mul\n      or\n      swap1\n      sstore\n      pop\n        /* \"contracts/Medicine.sol\":4190:4409  function receivedWtoD(... */\n      pop\n      jump\t// out\n        /* \"contracts/Medicine.sol\":2917:3034  function updateTransporterArray(address _transporterAddr) public {... */\n    tag_25:\n        /* \"contracts/Medicine.sol\":2992:3004  transporters */\n      0x03\n        /* \"contracts/Medicine.sol\":3010:3026  _transporterAddr */\n      dup2\n        /* \"contracts/Medicine.sol\":2992:3027  transporters.push(_transporterAddr) */\n      swap1\n      dup1\n        /* \"--CODEGEN--\":39:40   */\n      0x01\n        /* \"--CODEGEN--\":33:36   */\n      dup2\n        /* \"--CODEGEN--\":27:37   */\n      sload\n        /* \"--CODEGEN--\":23:41   */\n      add\n        /* \"--CODEGEN--\":57:67   */\n      dup1\n        /* \"--CODEGEN--\":52:55   */\n      dup3\n        /* \"--CODEGEN--\":45:68   */\n      sstore\n        /* \"--CODEGEN--\":79:89   */\n      dup1\n        /* \"--CODEGEN--\":72:89   */\n      swap2\n      pop\n        /* \"--CODEGEN--\":0:93   */\n      pop\n        /* \"contracts/Medicine.sol\":2992:3027  transporters.push(_transporterAddr) */\n      0x01\n      swap1\n      sub\n      swap1\n      0x00\n      mstore\n      keccak256(0x00, 0x20)\n      add\n      0x00\n      swap1\n      swap2\n      swap1\n      swap2\n      swap1\n      swap2\n      0x0100\n      exp\n      dup2\n      sload\n      dup2\n      0xffffffffffffffffffffffffffffffffffffffff\n      mul\n      not\n      and\n      swap1\n      dup4\n      0xffffffffffffffffffffffffffffffffffffffff\n      and\n      mul\n      or\n      swap1\n      sstore\n      pop\n        /* \"contracts/Medicine.sol\":2917:3034  function updateTransporterArray(address _transporterAddr) public {... */\n      pop\n      jump\t// out\n        /* \"contracts/Medicine.sol\":1970:2128  function getWDC() public view returns(... */\n    tag_27:\n        /* \"contracts/Medicine.sol\":2017:2038  address[3] memory WDP */\n      tag_84\n      tag_85\n      jump\t// in\n    tag_84:\n        /* \"contracts/Medicine.sol\":2055:2121  return (... */\n      mload(0x40)\n      dup1\n      0x60\n      add\n      0x40\n      mstore\n      dup1\n        /* \"contracts/Medicine.sol\":2077:2087  wholesaler */\n      0x05\n      0x00\n      swap1\n      sload\n      swap1\n      0x0100\n      exp\n      swap1\n      div\n      0xffffffffffffffffffffffffffffffffffffffff\n      and\n        /* \"contracts/Medicine.sol\":2055:2121  return (... */\n      0xffffffffffffffffffffffffffffffffffffffff\n      and\n      0xffffffffffffffffffffffffffffffffffffffff\n      and\n      dup2\n      mstore\n      0x20\n      add\n        /* \"contracts/Medicine.sol\":2089:2100  distributor */\n      0x06\n      0x00\n      swap1\n      sload\n      swap1\n      0x0100\n      exp\n      swap1\n      div\n      0xffffffffffffffffffffffffffffffffffffffff\n      and\n        /* \"contracts/Medicine.sol\":2055:2121  return (... */\n      0xffffffffffffffffffffffffffffffffffffffff\n      and\n      0xffffffffffffffffffffffffffffffffffffffff\n      and\n      dup2\n      mstore\n      0x20\n      add\n        /* \"contracts/Medicine.sol\":2102:2110  customer */\n      0x07\n      0x00\n      swap1\n      sload\n      swap1\n      0x0100\n      exp\n      swap1\n      div\n      0xffffffffffffffffffffffffffffffffffffffff\n      and\n        /* \"contracts/Medicine.sol\":2055:2121  return (... */\n      0xffffffffffffffffffffffffffffffffffffffff\n      and\n      0xffffffffffffffffffffffffffffffffffffffff\n      and\n      dup2\n      mstore\n      pop\n      swap1\n      pop\n        /* \"contracts/Medicine.sol\":1970:2128  function getWDC() public view returns(... */\n      swap1\n      jump\t// out\n        /* \"contracts/Medicine.sol\":2245:2907  function pickMedicine(... */\n    tag_33:\n        /* \"contracts/Medicine.sol\":2365:2377  transporters */\n      0x03\n        /* \"contracts/Medicine.sol\":2400:2401  1 */\n      0x01\n        /* \"contracts/Medicine.sol\":2378:2390  transporters */\n      0x03\n        /* \"contracts/Medicine.sol\":2378:2397  transporters.length */\n      dup1\n      sload\n      swap1\n      pop\n        /* \"contracts/Medicine.sol\":2378:2401  transporters.length - 1 */\n      sub\n        /* \"contracts/Medicine.sol\":2365:2402  transporters[transporters.length - 1] */\n      dup2\n      sload\n      dup2\n      lt\n      tag_88\n      jumpi\n      invalid\n    tag_88:\n      swap1\n      0x00\n      mstore\n      keccak256(0x00, 0x20)\n      add\n      0x00\n      swap1\n      sload\n      swap1\n      0x0100\n      exp\n      swap1\n      div\n      0xffffffffffffffffffffffffffffffffffffffff\n      and\n        /* \"contracts/Medicine.sol\":2345:2402  _transporterAddr == transporters[transporters.length - 1] */\n      0xffffffffffffffffffffffffffffffffffffffff\n      and\n        /* \"contracts/Medicine.sol\":2345:2361  _transporterAddr */\n      dup2\n        /* \"contracts/Medicine.sol\":2345:2402  _transporterAddr == transporters[transporters.length - 1] */\n      0xffffffffffffffffffffffffffffffffffffffff\n      and\n      eq\n        /* \"contracts/Medicine.sol\":2324:2467  require(... */\n      tag_90\n      jumpi\n      mload(0x40)\n      0x08c379a000000000000000000000000000000000000000000000000000000000\n      dup2\n      mstore\n      0x04\n      add\n      dup1\n      dup1\n      0x20\n      add\n      dup3\n      dup2\n      sub\n      dup3\n      mstore\n      0x27\n      dup2\n      mstore\n      0x20\n      add\n      dup1\n      data_e2f8f2109acd7681cbf4c28d67b59caeec13239b7ff25e6228f0a92b59844a9d\n      0x27\n      swap2\n      codecopy\n      0x40\n      add\n      swap2\n      pop\n      pop\n      mload(0x40)\n      dup1\n      swap2\n      sub\n      swap1\n      revert\n    tag_90:\n        /* \"contracts/Medicine.sol\":2523:2524  0 */\n      0x00\n        /* \"contracts/Medicine.sol\":2508:2525  medicineStatus(0) */\n      0x06\n      dup2\n      gt\n      iszero\n      tag_91\n      jumpi\n      invalid\n    tag_91:\n        /* \"contracts/Medicine.sol\":2498:2525  status == medicineStatus(0) */\n      0x06\n      dup2\n      gt\n      iszero\n      tag_92\n      jumpi\n      invalid\n    tag_92:\n        /* \"contracts/Medicine.sol\":2498:2504  status */\n      0x09\n      0x00\n      swap1\n      sload\n      swap1\n      0x0100\n      exp\n      swap1\n      div\n      0xff\n      and\n        /* \"contracts/Medicine.sol\":2498:2525  status == medicineStatus(0) */\n      0x06\n      dup2\n      gt\n      iszero\n      tag_93\n      jumpi\n      invalid\n    tag_93:\n      eq\n        /* \"contracts/Medicine.sol\":2477:2583  require(... */\n      tag_94\n      jumpi\n      mload(0x40)\n      0x08c379a000000000000000000000000000000000000000000000000000000000\n      dup2\n      mstore\n      0x04\n      add\n      dup1\n      dup1\n      0x20\n      add\n      dup3\n      dup2\n      sub\n      dup3\n      mstore\n      0x20\n      dup2\n      mstore\n      0x20\n      add\n      dup1\n      0x5061636b616765206d757374206265206174204d616e7566616374757265722e\n      dup2\n      mstore\n      pop\n      0x20\n      add\n      swap2\n      pop\n      pop\n      mload(0x40)\n      dup1\n      swap2\n      sub\n      swap1\n      revert\n    tag_94:\n        /* \"contracts/Medicine.sol\":2619:2622  0x0 */\n      0x00\n        /* \"contracts/Medicine.sol\":2597:2623  wholesaler != address(0x0) */\n      0xffffffffffffffffffffffffffffffffffffffff\n      and\n        /* \"contracts/Medicine.sol\":2597:2607  wholesaler */\n      0x05\n      0x00\n      swap1\n      sload\n      swap1\n      0x0100\n      exp\n      swap1\n      div\n      0xffffffffffffffffffffffffffffffffffffffff\n      and\n        /* \"contracts/Medicine.sol\":2597:2623  wholesaler != address(0x0) */\n      0xffffffffffffffffffffffffffffffffffffffff\n      and\n      eq\n        /* \"contracts/Medicine.sol\":2594:2901  if(wholesaler != address(0x0)){... */\n      tag_95\n      jumpi\n        /* \"contracts/Medicine.sol\":2662:2663  1 */\n      0x01\n        /* \"contracts/Medicine.sol\":2647:2664  medicineStatus(1) */\n      0x06\n      dup2\n      gt\n      iszero\n      tag_96\n      jumpi\n      invalid\n    tag_96:\n        /* \"contracts/Medicine.sol\":2638:2644  status */\n      0x09\n      0x00\n        /* \"contracts/Medicine.sol\":2638:2664  status = medicineStatus(1) */\n      0x0100\n      exp\n      dup2\n      sload\n      dup2\n      0xff\n      mul\n      not\n      and\n      swap1\n      dup4\n      0x06\n      dup2\n      gt\n      iszero\n      tag_97\n      jumpi\n      invalid\n    tag_97:\n      mul\n      or\n      swap1\n      sstore\n      pop\n        /* \"contracts/Medicine.sol\":2732:2742  wholesaler */\n      0x05\n      0x00\n      swap1\n      sload\n      swap1\n      0x0100\n      exp\n      swap1\n      div\n      0xffffffffffffffffffffffffffffffffffffffff\n      and\n        /* \"contracts/Medicine.sol\":2683:2749  ShippmentUpdate(address(this), _transporterAddr, wholesaler, 1, 1) */\n      0xffffffffffffffffffffffffffffffffffffffff\n      and\n        /* \"contracts/Medicine.sol\":2714:2730  _transporterAddr */\n      dup2\n        /* \"contracts/Medicine.sol\":2683:2749  ShippmentUpdate(address(this), _transporterAddr, wholesaler, 1, 1) */\n      0xffffffffffffffffffffffffffffffffffffffff\n      and\n        /* \"contracts/Medicine.sol\":2707:2711  this */\n      address\n        /* \"contracts/Medicine.sol\":2683:2749  ShippmentUpdate(address(this), _transporterAddr, wholesaler, 1, 1) */\n      0xffffffffffffffffffffffffffffffffffffffff\n      and\n      0x7e89c4b1a4e2b51aae84eb1f90e8a34cb792ece5ac5cb63db4830c891220b28d\n        /* \"contracts/Medicine.sol\":2744:2745  1 */\n      0x01\n        /* \"contracts/Medicine.sol\":2747:2748  1 */\n      dup1\n        /* \"contracts/Medicine.sol\":2683:2749  ShippmentUpdate(address(this), _transporterAddr, wholesaler, 1, 1) */\n      mload(0x40)\n      dup1\n      dup4\n      dup2\n      mstore\n      0x20\n      add\n      dup3\n      dup2\n      mstore\n      0x20\n      add\n      swap3\n      pop\n      pop\n      pop\n      mload(0x40)\n      dup1\n      swap2\n      sub\n      swap1\n      log4\n        /* \"contracts/Medicine.sol\":2594:2901  if(wholesaler != address(0x0)){... */\n      jump(tag_98)\n    tag_95:\n        /* \"contracts/Medicine.sol\":2802:2803  2 */\n      0x02\n        /* \"contracts/Medicine.sol\":2787:2804  medicineStatus(2) */\n      0x06\n      dup2\n      gt\n      iszero\n      tag_99\n      jumpi\n      invalid\n    tag_99:\n        /* \"contracts/Medicine.sol\":2778:2784  status */\n      0x09\n      0x00\n        /* \"contracts/Medicine.sol\":2778:2804  status = medicineStatus(2) */\n      0x0100\n      exp\n      dup2\n      sload\n      dup2\n      0xff\n      mul\n      not\n      and\n      swap1\n      dup4\n      0x06\n      dup2\n      gt\n      iszero\n      tag_100\n      jumpi\n      invalid\n    tag_100:\n      mul\n      or\n      swap1\n      sstore\n      pop\n        /* \"contracts/Medicine.sol\":2872:2883  distributor */\n      0x06\n      0x00\n      swap1\n      sload\n      swap1\n      0x0100\n      exp\n      swap1\n      div\n      0xffffffffffffffffffffffffffffffffffffffff\n      and\n        /* \"contracts/Medicine.sol\":2823:2890  ShippmentUpdate(address(this), _transporterAddr, distributor, 1, 2) */\n      0xffffffffffffffffffffffffffffffffffffffff\n      and\n        /* \"contracts/Medicine.sol\":2854:2870  _transporterAddr */\n      dup2\n        /* \"contracts/Medicine.sol\":2823:2890  ShippmentUpdate(address(this), _transporterAddr, distributor, 1, 2) */\n      0xffffffffffffffffffffffffffffffffffffffff\n      and\n        /* \"contracts/Medicine.sol\":2847:2851  this */\n      address\n        /* \"contracts/Medicine.sol\":2823:2890  ShippmentUpdate(address(this), _transporterAddr, distributor, 1, 2) */\n      0xffffffffffffffffffffffffffffffffffffffff\n      and\n      0x7e89c4b1a4e2b51aae84eb1f90e8a34cb792ece5ac5cb63db4830c891220b28d\n        /* \"contracts/Medicine.sol\":2885:2886  1 */\n      0x01\n        /* \"contracts/Medicine.sol\":2888:2889  2 */\n      0x02\n        /* \"contracts/Medicine.sol\":2823:2890  ShippmentUpdate(address(this), _transporterAddr, distributor, 1, 2) */\n      mload(0x40)\n      dup1\n      dup4\n      dup2\n      mstore\n      0x20\n      add\n      dup3\n      dup2\n      mstore\n      0x20\n      add\n      swap3\n      pop\n      pop\n      pop\n      mload(0x40)\n      dup1\n      swap2\n      sub\n      swap1\n      log4\n        /* \"contracts/Medicine.sol\":2594:2901  if(wholesaler != address(0x0)){... */\n    tag_98:\n        /* \"contracts/Medicine.sol\":2245:2907  function pickMedicine(... */\n      pop\n      jump\t// out\n        /* \"contracts/Medicine.sol\":4689:4902  function receivedDtoC(... */\n    tag_36:\n        /* \"contracts/Medicine.sol\":4793:4801  receiver */\n      dup1\n        /* \"contracts/Medicine.sol\":4781:4801  customer == receiver */\n      0xffffffffffffffffffffffffffffffffffffffff\n      and\n        /* \"contracts/Medicine.sol\":4781:4789  customer */\n      0x07\n      0x00\n      swap1\n      sload\n      swap1\n      0x0100\n      exp\n      swap1\n      div\n      0xffffffffffffffffffffffffffffffffffffffff\n      and\n        /* \"contracts/Medicine.sol\":4781:4801  customer == receiver */\n      0xffffffffffffffffffffffffffffffffffffffff\n      and\n      eq\n        /* \"contracts/Medicine.sol\":4760:4859  require(... */\n      tag_102\n      jumpi\n      mload(0x40)\n      0x08c379a000000000000000000000000000000000000000000000000000000000\n      dup2\n      mstore\n      0x04\n      add\n      dup1\n      dup1\n      0x20\n      add\n      dup3\n      dup2\n      sub\n      dup3\n      mstore\n      0x20\n      dup2\n      mstore\n      0x20\n      add\n      dup1\n      0x5468697320437573746f6d6572206973206e6f74204173736f6369617465642e\n      dup2\n      mstore\n      pop\n      0x20\n      add\n      swap2\n      pop\n      pop\n      mload(0x40)\n      dup1\n      swap2\n      sub\n      swap1\n      revert\n    tag_102:\n        /* \"contracts/Medicine.sol\":4893:4894  6 */\n      0x06\n        /* \"contracts/Medicine.sol\":4878:4895  medicineStatus(6) */\n      dup1\n      dup2\n      gt\n      iszero\n      tag_103\n      jumpi\n      invalid\n    tag_103:\n        /* \"contracts/Medicine.sol\":4869:4875  status */\n      0x09\n      0x00\n        /* \"contracts/Medicine.sol\":4869:4895  status = medicineStatus(6) */\n      0x0100\n      exp\n      dup2\n      sload\n      dup2\n      0xff\n      mul\n      not\n      and\n      swap1\n      dup4\n      0x06\n      dup2\n      gt\n      iszero\n      tag_104\n      jumpi\n      invalid\n    tag_104:\n      mul\n      or\n      swap1\n      sstore\n      pop\n        /* \"contracts/Medicine.sol\":4689:4902  function receivedDtoC(... */\n      pop\n      jump\t// out\n        /* \"contracts/Medicine.sol\":2134:2238  function getBatchIDStatus() public view returns(... */\n    tag_38:\n        /* \"contracts/Medicine.sol\":2191:2195  uint */\n      0x00\n        /* \"contracts/Medicine.sol\":2224:2230  status */\n      0x09\n      0x00\n      swap1\n      sload\n      swap1\n      0x0100\n      exp\n      swap1\n      div\n      0xff\n      and\n        /* \"contracts/Medicine.sol\":2219:2231  uint(status) */\n      0x06\n      dup2\n      gt\n      iszero\n      tag_106\n      jumpi\n      invalid\n    tag_106:\n        /* \"contracts/Medicine.sol\":2212:2231  return uint(status) */\n      swap1\n      pop\n        /* \"contracts/Medicine.sol\":2134:2238  function getBatchIDStatus() public view returns(... */\n      swap1\n      jump\t// out\n        /* \"contracts/Medicine.sol\":1479:1962  function getMedicineInfo () public view returns(... */\n    tag_40:\n        /* \"contracts/Medicine.sol\":1536:1561  address _manufacturerAddr */\n      0x00\n        /* \"contracts/Medicine.sol\":1571:1591  bytes32 _description */\n      dup1\n        /* \"contracts/Medicine.sol\":1601:1626  address[] memory _rawAddr */\n      0x60\n        /* \"contracts/Medicine.sol\":1636:1650  uint _quantity */\n      0x00\n        /* \"contracts/Medicine.sol\":1660:1693  address[] memory _transporterAddr */\n      0x60\n        /* \"contracts/Medicine.sol\":1703:1723  address _distributor */\n      0x00\n        /* \"contracts/Medicine.sol\":1733:1750  address _customer */\n      dup1\n        /* \"contracts/Medicine.sol\":1787:1799  manufacturer */\n      0x04\n      0x00\n      swap1\n      sload\n      swap1\n      0x0100\n      exp\n      swap1\n      div\n      0xffffffffffffffffffffffffffffffffffffffff\n      and\n        /* \"contracts/Medicine.sol\":1813:1824  description */\n      sload(0x01)\n        /* \"contracts/Medicine.sol\":1838:1850  rawMaterials */\n      0x02\n        /* \"contracts/Medicine.sol\":1864:1872  quantity */\n      sload(0x08)\n        /* \"contracts/Medicine.sol\":1886:1898  transporters */\n      0x03\n        /* \"contracts/Medicine.sol\":1912:1923  distributor */\n      0x06\n      0x00\n      swap1\n      sload\n      swap1\n      0x0100\n      exp\n      swap1\n      div\n      0xffffffffffffffffffffffffffffffffffffffff\n      and\n        /* \"contracts/Medicine.sol\":1937:1945  customer */\n      0x07\n      0x00\n      swap1\n      sload\n      swap1\n      0x0100\n      exp\n      swap1\n      div\n      0xffffffffffffffffffffffffffffffffffffffff\n      and\n        /* \"contracts/Medicine.sol\":1767:1955  return(... */\n      dup5\n      dup1\n      sload\n      dup1\n      0x20\n      mul\n      0x20\n      add\n      mload(0x40)\n      swap1\n      dup2\n      add\n      0x40\n      mstore\n      dup1\n      swap3\n      swap2\n      swap1\n      dup2\n      dup2\n      mstore\n      0x20\n      add\n      dup3\n      dup1\n      sload\n      dup1\n      iszero\n      tag_108\n      jumpi\n      0x20\n      mul\n      dup3\n      add\n      swap2\n      swap1\n      0x00\n      mstore\n      keccak256(0x00, 0x20)\n      swap1\n    tag_109:\n      dup2\n      0x00\n      swap1\n      sload\n      swap1\n      0x0100\n      exp\n      swap1\n      div\n      0xffffffffffffffffffffffffffffffffffffffff\n      and\n      0xffffffffffffffffffffffffffffffffffffffff\n      and\n      dup2\n      mstore\n      0x20\n      add\n      swap1\n      0x01\n      add\n      swap1\n      dup1\n      dup4\n      gt\n      tag_109\n      jumpi\n    tag_108:\n      pop\n      pop\n      pop\n      pop\n      pop\n      swap5\n      pop\n      dup3\n      dup1\n      sload\n      dup1\n      0x20\n      mul\n      0x20\n      add\n      mload(0x40)\n      swap1\n      dup2\n      add\n      0x40\n      mstore\n      dup1\n      swap3\n      swap2\n      swap1\n      dup2\n      dup2\n      mstore\n      0x20\n      add\n      dup3\n      dup1\n      sload\n      dup1\n      iszero\n      tag_110\n      jumpi\n      0x20\n      mul\n      dup3\n      add\n      swap2\n      swap1\n      0x00\n      mstore\n      keccak256(0x00, 0x20)\n      swap1\n    tag_111:\n      dup2\n      0x00\n      swap1\n      sload\n      swap1\n      0x0100\n      exp\n      swap1\n      div\n      0xffffffffffffffffffffffffffffffffffffffff\n      and\n      0xffffffffffffffffffffffffffffffffffffffff\n      and\n      dup2\n      mstore\n      0x20\n      add\n      swap1\n      0x01\n      add\n      swap1\n      dup1\n      dup4\n      gt\n      tag_111\n      jumpi\n    tag_110:\n      pop\n      pop\n      pop\n      pop\n      pop\n      swap3\n      pop\n      swap7\n      pop\n      swap7\n      pop\n      swap7\n      pop\n      swap7\n      pop\n      swap7\n      pop\n      swap7\n      pop\n      swap7\n      pop\n        /* \"contracts/Medicine.sol\":1479:1962  function getMedicineInfo () public view returns(... */\n      swap1\n      swap2\n      swap3\n      swap4\n      swap5\n      swap6\n      swap7\n      jump\t// out\n        /* \"contracts/Medicine.sol\":3916:4183  function sendWtoD(... */\n    tag_49:\n        /* \"contracts/Medicine.sol\":4042:4048  sender */\n      dup1\n        /* \"contracts/Medicine.sol\":4028:4048  wholesaler == sender */\n      0xffffffffffffffffffffffffffffffffffffffff\n      and\n        /* \"contracts/Medicine.sol\":4028:4038  wholesaler */\n      0x05\n      0x00\n      swap1\n      sload\n      swap1\n      0x0100\n      exp\n      swap1\n      div\n      0xffffffffffffffffffffffffffffffffffffffff\n      and\n        /* \"contracts/Medicine.sol\":4028:4048  wholesaler == sender */\n      0xffffffffffffffffffffffffffffffffffffffff\n      and\n      eq\n        /* \"contracts/Medicine.sol\":4007:4108  require(... */\n      tag_113\n      jumpi\n      mload(0x40)\n      0x08c379a000000000000000000000000000000000000000000000000000000000\n      dup2\n      mstore\n      0x04\n      add\n      dup1\n      dup1\n      0x20\n      add\n      dup3\n      dup2\n      sub\n      dup3\n      mstore\n      0x22\n      dup2\n      mstore\n      0x20\n      add\n      dup1\n      data_b4d7e49fb7808010a9c186aadf5966129ef8ebc2fca51824e95c02db59ec1fea\n      0x22\n      swap2\n      codecopy\n      0x40\n      add\n      swap2\n      pop\n      pop\n      mload(0x40)\n      dup1\n      swap2\n      sub\n      swap1\n      revert\n    tag_113:\n        /* \"contracts/Medicine.sol\":4132:4140  receiver */\n      dup2\n        /* \"contracts/Medicine.sol\":4118:4129  distributor */\n      0x06\n      0x00\n        /* \"contracts/Medicine.sol\":4118:4140  distributor = receiver */\n      0x0100\n      exp\n      dup2\n      sload\n      dup2\n      0xffffffffffffffffffffffffffffffffffffffff\n      mul\n      not\n      and\n      swap1\n      dup4\n      0xffffffffffffffffffffffffffffffffffffffff\n      and\n      mul\n      or\n      swap1\n      sstore\n      pop\n        /* \"contracts/Medicine.sol\":4174:4175  2 */\n      0x02\n        /* \"contracts/Medicine.sol\":4159:4176  medicineStatus(2) */\n      0x06\n      dup2\n      gt\n      iszero\n      tag_114\n      jumpi\n      invalid\n    tag_114:\n        /* \"contracts/Medicine.sol\":4150:4156  status */\n      0x09\n      0x00\n        /* \"contracts/Medicine.sol\":4150:4176  status = medicineStatus(2) */\n      0x0100\n      exp\n      dup2\n      sload\n      dup2\n      0xff\n      mul\n      not\n      and\n      swap1\n      dup4\n      0x06\n      dup2\n      gt\n      iszero\n      tag_115\n      jumpi\n      invalid\n    tag_115:\n      mul\n      or\n      swap1\n      sstore\n      pop\n        /* \"contracts/Medicine.sol\":3916:4183  function sendWtoD(... */\n      pop\n      pop\n      jump\t// out\n        /* \"contracts/Medicine.sol\":55:4904  contract Medicine {... */\n    tag_85:\n      mload(0x40)\n      dup1\n      0x60\n      add\n      0x40\n      mstore\n      dup1\n      0x03\n      swap1\n        /* \"--CODEGEN--\":29:31   */\n      0x20\n        /* \"--CODEGEN--\":21:27   */\n      dup3\n        /* \"--CODEGEN--\":17:32   */\n      mul\n        /* \"--CODEGEN--\":125:129   */\n      dup1\n        /* \"--CODEGEN--\":109:123   */\n      calldatasize\n        /* \"--CODEGEN--\":101:107   */\n      dup4\n        /* \"--CODEGEN--\":88:130   */\n      calldatacopy\n        /* \"--CODEGEN--\":156:160   */\n      dup1\n        /* \"--CODEGEN--\":148:154   */\n      dup3\n        /* \"--CODEGEN--\":144:161   */\n      add\n        /* \"--CODEGEN--\":134:161   */\n      swap2\n      pop\n        /* \"--CODEGEN--\":0:165   */\n      pop\n        /* \"contracts/Medicine.sol\":55:4904  contract Medicine {... */\n      swap1\n      pop\n      pop\n      swap1\n      jump\t// out\n    stop\n    data_89c77f2c40d912bd9f09538c8086ba81eef65966b4854bf260775f57bc97d116 4f6e6c792057686f6c6573616c6572206f72204469737472696275746f722063616e2063616c6c20746869732066756e6374696f6e\n    data_b4d7e49fb7808010a9c186aadf5966129ef8ebc2fca51824e95c02db59ec1fea 746869732057686f6c6573616c6572206973206e6f74204173736f6369617465642e\n    data_c7acab7d6db4a77da988a3cd7835825ad9103d7bf1cfa350bca35f769089b66f 54686973204469737472696275746f72206973206e6f74204173736f6369617465642e\n    data_e2f8f2109acd7681cbf4c28d67b59caeec13239b7ff25e6228f0a92b59844a9d 4f6e6c79205472616e73706f727465722063616e2063616c6c20746869732066756e6374696f6e\n\n    auxdata: 0xa2646970667358221220d635ee7d5106940e3955bb418af00b36cce23f65d8cde1861e0669139472db5c64736f6c63430006060033\n}\n\nsub_1: assembly {\n        /* \"contracts/Transactions.sol\":59:1554  contract Transactions {... */\n      mstore(0x40, 0x80)\n        /* \"contracts/Transactions.sol\":392:393  0 */\n      0x00\n        /* \"contracts/Transactions.sol\":369:393  uint public txnCount = 0 */\n      0x02\n      sstore\n        /* \"contracts/Transactions.sol\":404:476  constructor(address _creator) public {... */\n      callvalue\n        /* \"--CODEGEN--\":5:14   */\n      dup1\n        /* \"--CODEGEN--\":2:4   */\n      iszero\n      tag_1\n      jumpi\n        /* \"--CODEGEN--\":27:28   */\n      0x00\n        /* \"--CODEGEN--\":24:25   */\n      dup1\n        /* \"--CODEGEN--\":17:29   */\n      revert\n        /* \"--CODEGEN--\":2:4   */\n    tag_1:\n        /* \"contracts/Transactions.sol\":404:476  constructor(address _creator) public {... */\n      pop\n      mload(0x40)\n      sub(codesize, bytecodeSize)\n      dup1\n      bytecodeSize\n      dup4\n      codecopy\n      dup2\n      dup2\n      add\n      0x40\n      mstore\n      dup2\n      add\n      swap1\n      tag_2\n      swap2\n      swap1\n      jump(tag_3)\n    tag_2:\n        /* \"contracts/Transactions.sol\":461:469  _creator */\n      dup1\n        /* \"contracts/Transactions.sol\":451:458  Creator */\n      0x00\n      dup1\n        /* \"contracts/Transactions.sol\":451:469  Creator = _creator */\n      0x0100\n      exp\n      dup2\n      sload\n      dup2\n      0xffffffffffffffffffffffffffffffffffffffff\n      mul\n      not\n      and\n      swap1\n      dup4\n      0xffffffffffffffffffffffffffffffffffffffff\n      and\n      mul\n      or\n      swap1\n      sstore\n      pop\n        /* \"contracts/Transactions.sol\":404:476  constructor(address _creator) public {... */\n      pop\n        /* \"contracts/Transactions.sol\":59:1554  contract Transactions {... */\n      jump(tag_6)\n        /* \"--CODEGEN--\":5:139   */\n    tag_8:\n      0x00\n        /* \"--CODEGEN--\":89:95   */\n      dup2\n        /* \"--CODEGEN--\":83:96   */\n      mload\n        /* \"--CODEGEN--\":74:96   */\n      swap1\n      pop\n        /* \"--CODEGEN--\":101:134   */\n      tag_10\n        /* \"--CODEGEN--\":128:133   */\n      dup2\n        /* \"--CODEGEN--\":101:134   */\n      jump(tag_11)\n    tag_10:\n        /* \"--CODEGEN--\":68:139   */\n      swap3\n      swap2\n      pop\n      pop\n      jump\n        /* \"--CODEGEN--\":146:409   */\n    tag_3:\n      0x00\n        /* \"--CODEGEN--\":261:263   */\n      0x20\n        /* \"--CODEGEN--\":249:258   */\n      dup3\n        /* \"--CODEGEN--\":240:247   */\n      dup5\n        /* \"--CODEGEN--\":236:259   */\n      sub\n        /* \"--CODEGEN--\":232:264   */\n      slt\n        /* \"--CODEGEN--\":229:231   */\n      iszero\n      tag_13\n      jumpi\n        /* \"--CODEGEN--\":277:278   */\n      0x00\n        /* \"--CODEGEN--\":274:275   */\n      dup1\n        /* \"--CODEGEN--\":267:279   */\n      revert\n        /* \"--CODEGEN--\":229:231   */\n    tag_13:\n        /* \"--CODEGEN--\":312:313   */\n      0x00\n        /* \"--CODEGEN--\":329:393   */\n      tag_14\n        /* \"--CODEGEN--\":385:392   */\n      dup5\n        /* \"--CODEGEN--\":376:382   */\n      dup3\n        /* \"--CODEGEN--\":365:374   */\n      dup6\n        /* \"--CODEGEN--\":361:383   */\n      add\n        /* \"--CODEGEN--\":329:393   */\n      jump(tag_8)\n    tag_14:\n        /* \"--CODEGEN--\":319:393   */\n      swap2\n      pop\n        /* \"--CODEGEN--\":291:399   */\n      pop\n        /* \"--CODEGEN--\":223:409   */\n      swap3\n      swap2\n      pop\n      pop\n      jump\n        /* \"--CODEGEN--\":416:507   */\n    tag_15:\n      0x00\n        /* \"--CODEGEN--\":478:502   */\n      tag_17\n        /* \"--CODEGEN--\":496:501   */\n      dup3\n        /* \"--CODEGEN--\":478:502   */\n      jump(tag_18)\n    tag_17:\n        /* \"--CODEGEN--\":467:502   */\n      swap1\n      pop\n        /* \"--CODEGEN--\":461:507   */\n      swap2\n      swap1\n      pop\n      jump\n        /* \"--CODEGEN--\":514:635   */\n    tag_18:\n      0x00\n        /* \"--CODEGEN--\":587:629   */\n      0xffffffffffffffffffffffffffffffffffffffff\n        /* \"--CODEGEN--\":580:585   */\n      dup3\n        /* \"--CODEGEN--\":576:630   */\n      and\n        /* \"--CODEGEN--\":565:630   */\n      swap1\n      pop\n        /* \"--CODEGEN--\":559:635   */\n      swap2\n      swap1\n      pop\n      jump\n        /* \"--CODEGEN--\":642:759   */\n    tag_11:\n        /* \"--CODEGEN--\":711:735   */\n      tag_21\n        /* \"--CODEGEN--\":729:734   */\n      dup2\n        /* \"--CODEGEN--\":711:735   */\n      jump(tag_15)\n    tag_21:\n        /* \"--CODEGEN--\":704:709   */\n      dup2\n        /* \"--CODEGEN--\":701:736   */\n      eq\n        /* \"--CODEGEN--\":691:693   */\n      tag_22\n      jumpi\n        /* \"--CODEGEN--\":750:751   */\n      0x00\n        /* \"--CODEGEN--\":747:748   */\n      dup1\n        /* \"--CODEGEN--\":740:752   */\n      revert\n        /* \"--CODEGEN--\":691:693   */\n    tag_22:\n        /* \"--CODEGEN--\":685:759   */\n      pop\n      jump\n        /* \"contracts/Transactions.sol\":59:1554  contract Transactions {... */\n    tag_6:\n      dataSize(sub_0)\n      dup1\n      dataOffset(sub_0)\n      0x00\n      codecopy\n      0x00\n      return\n    stop\n\n    sub_0: assembly {\n            /* \"contracts/Transactions.sol\":59:1554  contract Transactions {... */\n          mstore(0x40, 0x80)\n          callvalue\n            /* \"--CODEGEN--\":5:14   */\n          dup1\n            /* \"--CODEGEN--\":2:4   */\n          iszero\n          tag_1\n          jumpi\n            /* \"--CODEGEN--\":27:28   */\n          0x00\n            /* \"--CODEGEN--\":24:25   */\n          dup1\n            /* \"--CODEGEN--\":17:29   */\n          revert\n            /* \"--CODEGEN--\":2:4   */\n        tag_1:\n            /* \"contracts/Transactions.sol\":59:1554  contract Transactions {... */\n          pop\n          jumpi(tag_2, lt(calldatasize, 0x04))\n          shr(0xe0, calldataload(0x00))\n          dup1\n          0x27506f53\n          eq\n          tag_3\n          jumpi\n          dup1\n          0x3626a368\n          eq\n          tag_4\n          jumpi\n          dup1\n          0x78ce1365\n          eq\n          tag_5\n          jumpi\n          dup1\n          0x9ace38c2\n          eq\n          tag_6\n          jumpi\n        tag_2:\n            /* \"--CODEGEN--\":12:13   */\n          0x00\n            /* \"--CODEGEN--\":9:10   */\n          dup1\n            /* \"--CODEGEN--\":2:14   */\n          revert\n            /* \"contracts/Transactions.sol\":1293:1552  function getAllTransactions() public view returns(txns[] memory) {... */\n        tag_3:\n          tag_7\n          tag_8\n          jump\t// in\n        tag_7:\n          mload(0x40)\n          tag_9\n          swap2\n          swap1\n          jump(tag_10)\n        tag_9:\n          mload(0x40)\n          dup1\n          swap2\n          sub\n          swap1\n          return\n            /* \"contracts/Transactions.sol\":628:1287  function createTxnEntry(bytes32 _txnHash, address _from, address _to, bytes32 _prev, string memory _latitude, string memory _longitude) public {... */\n        tag_4:\n          tag_11\n          0x04\n          dup1\n          calldatasize\n          sub\n          dup2\n          add\n          swap1\n          tag_12\n          swap2\n          swap1\n          jump(tag_13)\n        tag_12:\n          tag_14\n          jump\t// in\n        tag_11:\n          stop\n            /* \"contracts/Transactions.sol\":369:393  uint public txnCount = 0 */\n        tag_5:\n          tag_15\n          tag_16\n          jump\t// in\n        tag_15:\n          mload(0x40)\n          tag_17\n          swap2\n          swap1\n          jump(tag_18)\n        tag_17:\n          mload(0x40)\n          dup1\n          swap2\n          sub\n          swap1\n          return\n            /* \"contracts/Transactions.sol\":322:363  mapping(uint => txns) public transactions */\n        tag_6:\n          tag_19\n          0x04\n          dup1\n          calldatasize\n          sub\n          dup2\n          add\n          swap1\n          tag_20\n          swap2\n          swap1\n          jump(tag_21)\n        tag_20:\n          tag_22\n          jump\t// in\n        tag_19:\n          mload(0x40)\n          tag_23\n          swap8\n          swap7\n          swap6\n          swap5\n          swap4\n          swap3\n          swap2\n          swap1\n          jump(tag_24)\n        tag_23:\n          mload(0x40)\n          dup1\n          swap2\n          sub\n          swap1\n          return\n            /* \"contracts/Transactions.sol\":1293:1552  function getAllTransactions() public view returns(txns[] memory) {... */\n        tag_8:\n            /* \"contracts/Transactions.sol\":1343:1356  txns[] memory */\n          0x60\n            /* \"contracts/Transactions.sol\":1368:1376  uint len */\n          0x00\n            /* \"contracts/Transactions.sol\":1379:1387  txnCount */\n          sload(0x02)\n            /* \"contracts/Transactions.sol\":1368:1387  uint len = txnCount */\n          swap1\n          pop\n            /* \"contracts/Transactions.sol\":1397:1414  txns[] memory ret */\n          0x60\n            /* \"contracts/Transactions.sol\":1428:1431  len */\n          dup2\n            /* \"contracts/Transactions.sol\":1417:1432  new txns[](len) */\n          0xffffffffffffffff\n          dup2\n          gt\n            /* \"--CODEGEN--\":5:14   */\n          dup1\n            /* \"--CODEGEN--\":2:4   */\n          iszero\n          tag_26\n          jumpi\n            /* \"--CODEGEN--\":27:28   */\n          0x00\n            /* \"--CODEGEN--\":24:25   */\n          dup1\n            /* \"--CODEGEN--\":17:29   */\n          revert\n            /* \"--CODEGEN--\":2:4   */\n        tag_26:\n            /* \"contracts/Transactions.sol\":1417:1432  new txns[](len) */\n          pop\n          mload(0x40)\n          swap1\n          dup1\n          dup3\n          mstore\n          dup1\n          0x20\n          mul\n          0x20\n          add\n          dup3\n          add\n          0x40\n          mstore\n          dup1\n          iszero\n          tag_27\n          jumpi\n          dup2\n          0x20\n          add\n        tag_28:\n          tag_29\n          tag_30\n          jump\t// in\n        tag_29:\n          dup2\n          mstore\n          0x20\n          add\n          swap1\n          0x01\n          swap1\n          sub\n          swap1\n          dup2\n          tag_28\n          jumpi\n          swap1\n          pop\n        tag_27:\n          pop\n            /* \"contracts/Transactions.sol\":1397:1432  txns[] memory ret = new txns[](len) */\n          swap1\n          pop\n            /* \"contracts/Transactions.sol\":1447:1453  uint i */\n          0x00\n            /* \"contracts/Transactions.sol\":1456:1457  0 */\n          dup1\n            /* \"contracts/Transactions.sol\":1447:1457  uint i = 0 */\n          swap1\n          pop\n            /* \"contracts/Transactions.sol\":1442:1522  for (uint i = 0; i < len; i++) {... */\n        tag_31:\n            /* \"contracts/Transactions.sol\":1463:1466  len */\n          dup3\n            /* \"contracts/Transactions.sol\":1459:1460  i */\n          dup2\n            /* \"contracts/Transactions.sol\":1459:1466  i < len */\n          lt\n            /* \"contracts/Transactions.sol\":1442:1522  for (uint i = 0; i < len; i++) {... */\n          iszero\n          tag_32\n          jumpi\n            /* \"contracts/Transactions.sol\":1496:1508  transactions */\n          0x01\n            /* \"contracts/Transactions.sol\":1496:1511  transactions[i] */\n          0x00\n            /* \"contracts/Transactions.sol\":1509:1510  i */\n          dup3\n            /* \"contracts/Transactions.sol\":1496:1511  transactions[i] */\n          dup2\n          mstore\n          0x20\n          add\n          swap1\n          dup2\n          mstore\n          0x20\n          add\n          0x00\n          keccak256\n            /* \"contracts/Transactions.sol\":1487:1511  ret[i] = transactions[i] */\n          mload(0x40)\n          dup1\n          0xe0\n          add\n          0x40\n          mstore\n          swap1\n          dup2\n          0x00\n          dup3\n          add\n          sload\n          dup2\n          mstore\n          0x20\n          add\n          0x01\n          dup3\n          add\n          0x00\n          swap1\n          sload\n          swap1\n          0x0100\n          exp\n          swap1\n          div\n          0xffffffffffffffffffffffffffffffffffffffff\n          and\n          0xffffffffffffffffffffffffffffffffffffffff\n          and\n          0xffffffffffffffffffffffffffffffffffffffff\n          and\n          dup2\n          mstore\n          0x20\n          add\n          0x02\n          dup3\n          add\n          0x00\n          swap1\n          sload\n          swap1\n          0x0100\n          exp\n          swap1\n          div\n          0xffffffffffffffffffffffffffffffffffffffff\n          and\n          0xffffffffffffffffffffffffffffffffffffffff\n          and\n          0xffffffffffffffffffffffffffffffffffffffff\n          and\n          dup2\n          mstore\n          0x20\n          add\n          0x03\n          dup3\n          add\n          sload\n          dup2\n          mstore\n          0x20\n          add\n          0x04\n          dup3\n          add\n          dup1\n          sload\n          0x01\n          dup2\n          0x01\n          and\n          iszero\n          0x0100\n          mul\n          sub\n          and\n          0x02\n          swap1\n          div\n          dup1\n          0x1f\n          add\n          0x20\n          dup1\n          swap2\n          div\n          mul\n          0x20\n          add\n          mload(0x40)\n          swap1\n          dup2\n          add\n          0x40\n          mstore\n          dup1\n          swap3\n          swap2\n          swap1\n          dup2\n          dup2\n          mstore\n          0x20\n          add\n          dup3\n          dup1\n          sload\n          0x01\n          dup2\n          0x01\n          and\n          iszero\n          0x0100\n          mul\n          sub\n          and\n          0x02\n          swap1\n          div\n          dup1\n          iszero\n          tag_34\n          jumpi\n          dup1\n          0x1f\n          lt\n          tag_35\n          jumpi\n          0x0100\n          dup1\n          dup4\n          sload\n          div\n          mul\n          dup4\n          mstore\n          swap2\n          0x20\n          add\n          swap2\n          jump(tag_34)\n        tag_35:\n          dup3\n          add\n          swap2\n          swap1\n          0x00\n          mstore\n          keccak256(0x00, 0x20)\n          swap1\n        tag_36:\n          dup2\n          sload\n          dup2\n          mstore\n          swap1\n          0x01\n          add\n          swap1\n          0x20\n          add\n          dup1\n          dup4\n          gt\n          tag_36\n          jumpi\n          dup3\n          swap1\n          sub\n          0x1f\n          and\n          dup3\n          add\n          swap2\n        tag_34:\n          pop\n          pop\n          pop\n          pop\n          pop\n          dup2\n          mstore\n          0x20\n          add\n          0x05\n          dup3\n          add\n          dup1\n          sload\n          0x01\n          dup2\n          0x01\n          and\n          iszero\n          0x0100\n          mul\n          sub\n          and\n          0x02\n          swap1\n          div\n          dup1\n          0x1f\n          add\n          0x20\n          dup1\n          swap2\n          div\n          mul\n          0x20\n          add\n          mload(0x40)\n          swap1\n          dup2\n          add\n          0x40\n          mstore\n          dup1\n          swap3\n          swap2\n          swap1\n          dup2\n          dup2\n          mstore\n          0x20\n          add\n          dup3\n          dup1\n          sload\n          0x01\n          dup2\n          0x01\n          and\n          iszero\n          0x0100\n          mul\n          sub\n          and\n          0x02\n          swap1\n          div\n          dup1\n          iszero\n          tag_37\n          jumpi\n          dup1\n          0x1f\n          lt\n          tag_38\n          jumpi\n          0x0100\n          dup1\n          dup4\n          sload\n          div\n          mul\n          dup4\n          mstore\n          swap2\n          0x20\n          add\n          swap2\n          jump(tag_37)\n        tag_38:\n          dup3\n          add\n          swap2\n          swap1\n          0x00\n          mstore\n          keccak256(0x00, 0x20)\n          swap1\n        tag_39:\n          dup2\n          sload\n          dup2\n          mstore\n          swap1\n          0x01\n          add\n          swap1\n          0x20\n          add\n          dup1\n          dup4\n          gt\n          tag_39\n          jumpi\n          dup3\n          swap1\n          sub\n          0x1f\n          and\n          dup3\n          add\n          swap2\n        tag_37:\n          pop\n          pop\n          pop\n          pop\n          pop\n          dup2\n          mstore\n          0x20\n          add\n          0x06\n          dup3\n          add\n          sload\n          dup2\n          mstore\n          pop\n          pop\n            /* \"contracts/Transactions.sol\":1487:1490  ret */\n          dup3\n            /* \"contracts/Transactions.sol\":1491:1492  i */\n          dup3\n            /* \"contracts/Transactions.sol\":1487:1493  ret[i] */\n          dup2\n          mload\n          dup2\n          lt\n          tag_40\n          jumpi\n          invalid\n        tag_40:\n          0x20\n          mul\n          0x20\n          add\n          add\n            /* \"contracts/Transactions.sol\":1487:1511  ret[i] = transactions[i] */\n          dup2\n          swap1\n          mstore\n          pop\n            /* \"contracts/Transactions.sol\":1468:1471  i++ */\n          dup1\n          dup1\n          0x01\n          add\n          swap2\n          pop\n          pop\n            /* \"contracts/Transactions.sol\":1442:1522  for (uint i = 0; i < len; i++) {... */\n          jump(tag_31)\n        tag_32:\n          pop\n            /* \"contracts/Transactions.sol\":1538:1541  ret */\n          dup1\n            /* \"contracts/Transactions.sol\":1531:1541  return ret */\n          swap3\n          pop\n          pop\n          pop\n            /* \"contracts/Transactions.sol\":1293:1552  function getAllTransactions() public view returns(txns[] memory) {... */\n          swap1\n          jump\t// out\n            /* \"contracts/Transactions.sol\":628:1287  function createTxnEntry(bytes32 _txnHash, address _from, address _to, bytes32 _prev, string memory _latitude, string memory _longitude) public {... */\n        tag_14:\n            /* \"contracts/Transactions.sol\":781:796  uint _timestamp */\n          0x00\n            /* \"contracts/Transactions.sol\":799:802  now */\n          timestamp\n            /* \"contracts/Transactions.sol\":781:802  uint _timestamp = now */\n          swap1\n          pop\n            /* \"contracts/Transactions.sol\":827:828  0 */\n          0x00\n            /* \"contracts/Transactions.sol\":815:823  txnCount */\n          sload(0x02)\n            /* \"contracts/Transactions.sol\":815:828  txnCount == 0 */\n          eq\n            /* \"contracts/Transactions.sol\":812:1169  if(txnCount == 0) {... */\n          iszero\n          tag_42\n          jumpi\n            /* \"contracts/Transactions.sol\":869:937  txns(_txnHash, _from, _to, _prev, _latitude, _longitude, _timestamp) */\n          mload(0x40)\n          dup1\n          0xe0\n          add\n          0x40\n          mstore\n          dup1\n            /* \"contracts/Transactions.sol\":874:882  _txnHash */\n          dup9\n            /* \"contracts/Transactions.sol\":869:937  txns(_txnHash, _from, _to, _prev, _latitude, _longitude, _timestamp) */\n          dup2\n          mstore\n          0x20\n          add\n            /* \"contracts/Transactions.sol\":884:889  _from */\n          dup8\n            /* \"contracts/Transactions.sol\":869:937  txns(_txnHash, _from, _to, _prev, _latitude, _longitude, _timestamp) */\n          0xffffffffffffffffffffffffffffffffffffffff\n          and\n          dup2\n          mstore\n          0x20\n          add\n            /* \"contracts/Transactions.sol\":891:894  _to */\n          dup7\n            /* \"contracts/Transactions.sol\":869:937  txns(_txnHash, _from, _to, _prev, _latitude, _longitude, _timestamp) */\n          0xffffffffffffffffffffffffffffffffffffffff\n          and\n          dup2\n          mstore\n          0x20\n          add\n            /* \"contracts/Transactions.sol\":896:901  _prev */\n          dup6\n            /* \"contracts/Transactions.sol\":869:937  txns(_txnHash, _from, _to, _prev, _latitude, _longitude, _timestamp) */\n          dup2\n          mstore\n          0x20\n          add\n            /* \"contracts/Transactions.sol\":903:912  _latitude */\n          dup5\n            /* \"contracts/Transactions.sol\":869:937  txns(_txnHash, _from, _to, _prev, _latitude, _longitude, _timestamp) */\n          dup2\n          mstore\n          0x20\n          add\n            /* \"contracts/Transactions.sol\":914:924  _longitude */\n          dup4\n            /* \"contracts/Transactions.sol\":869:937  txns(_txnHash, _from, _to, _prev, _latitude, _longitude, _timestamp) */\n          dup2\n          mstore\n          0x20\n          add\n            /* \"contracts/Transactions.sol\":926:936  _timestamp */\n          dup3\n            /* \"contracts/Transactions.sol\":869:937  txns(_txnHash, _from, _to, _prev, _latitude, _longitude, _timestamp) */\n          dup2\n          mstore\n          pop\n            /* \"contracts/Transactions.sol\":844:856  transactions */\n          0x01\n            /* \"contracts/Transactions.sol\":844:866  transactions[txnCount] */\n          0x00\n            /* \"contracts/Transactions.sol\":857:865  txnCount */\n          sload(0x02)\n            /* \"contracts/Transactions.sol\":844:866  transactions[txnCount] */\n          dup2\n          mstore\n          0x20\n          add\n          swap1\n          dup2\n          mstore\n          0x20\n          add\n          0x00\n          keccak256\n            /* \"contracts/Transactions.sol\":844:937  transactions[txnCount] = txns(_txnHash, _from, _to, _prev, _latitude, _longitude, _timestamp) */\n          0x00\n          dup3\n          add\n          mload\n          dup2\n          0x00\n          add\n          sstore\n          0x20\n          dup3\n          add\n          mload\n          dup2\n          0x01\n          add\n          exp(0x0100, 0x00)\n          dup2\n          sload\n          dup2\n          0xffffffffffffffffffffffffffffffffffffffff\n          mul\n          not\n          and\n          swap1\n          dup4\n          0xffffffffffffffffffffffffffffffffffffffff\n          and\n          mul\n          or\n          swap1\n          sstore\n          pop\n          0x40\n          dup3\n          add\n          mload\n          dup2\n          0x02\n          add\n          exp(0x0100, 0x00)\n          dup2\n          sload\n          dup2\n          0xffffffffffffffffffffffffffffffffffffffff\n          mul\n          not\n          and\n          swap1\n          dup4\n          0xffffffffffffffffffffffffffffffffffffffff\n          and\n          mul\n          or\n          swap1\n          sstore\n          pop\n          0x60\n          dup3\n          add\n          mload\n          dup2\n          0x03\n          add\n          sstore\n          0x80\n          dup3\n          add\n          mload\n          dup2\n          0x04\n          add\n          swap1\n          dup1\n          mload\n          swap1\n          0x20\n          add\n          swap1\n          tag_43\n          swap3\n          swap2\n          swap1\n          tag_44\n          jump\t// in\n        tag_43:\n          pop\n          0xa0\n          dup3\n          add\n          mload\n          dup2\n          0x05\n          add\n          swap1\n          dup1\n          mload\n          swap1\n          0x20\n          add\n          swap1\n          tag_45\n          swap3\n          swap2\n          swap1\n          tag_44\n          jump\t// in\n        tag_45:\n          pop\n          0xc0\n          dup3\n          add\n          mload\n          dup2\n          0x06\n          add\n          sstore\n          swap1\n          pop\n          pop\n            /* \"contracts/Transactions.sol\":812:1169  if(txnCount == 0) {... */\n          jump(tag_46)\n        tag_42:\n            /* \"contracts/Transactions.sol\":1014:1019  _prev */\n          dup4\n            /* \"contracts/Transactions.sol\":976:988  transactions */\n          0x01\n            /* \"contracts/Transactions.sol\":976:1002  transactions[txnCount - 1] */\n          0x00\n            /* \"contracts/Transactions.sol\":1000:1001  1 */\n          0x01\n            /* \"contracts/Transactions.sol\":989:997  txnCount */\n          sload(0x02)\n            /* \"contracts/Transactions.sol\":989:1001  txnCount - 1 */\n          sub\n            /* \"contracts/Transactions.sol\":976:1002  transactions[txnCount - 1] */\n          dup2\n          mstore\n          0x20\n          add\n          swap1\n          dup2\n          mstore\n          0x20\n          add\n          0x00\n          keccak256\n            /* \"contracts/Transactions.sol\":976:1010  transactions[txnCount - 1].txnHash */\n          0x00\n          add\n          sload\n            /* \"contracts/Transactions.sol\":976:1019  transactions[txnCount - 1].txnHash == _prev */\n          eq\n            /* \"contracts/Transactions.sol\":968:1051  require(transactions[txnCount - 1].txnHash == _prev, \"Transaction error occurred!\") */\n          tag_47\n          jumpi\n          mload(0x40)\n          0x08c379a000000000000000000000000000000000000000000000000000000000\n          dup2\n          mstore\n          0x04\n          add\n          tag_48\n          swap1\n          jump(tag_49)\n        tag_48:\n          mload(0x40)\n          dup1\n          swap2\n          sub\n          swap1\n          revert\n        tag_47:\n            /* \"contracts/Transactions.sol\":1090:1158  txns(_txnHash, _from, _to, _prev, _latitude, _longitude, _timestamp) */\n          mload(0x40)\n          dup1\n          0xe0\n          add\n          0x40\n          mstore\n          dup1\n            /* \"contracts/Transactions.sol\":1095:1103  _txnHash */\n          dup9\n            /* \"contracts/Transactions.sol\":1090:1158  txns(_txnHash, _from, _to, _prev, _latitude, _longitude, _timestamp) */\n          dup2\n          mstore\n          0x20\n          add\n            /* \"contracts/Transactions.sol\":1105:1110  _from */\n          dup8\n            /* \"contracts/Transactions.sol\":1090:1158  txns(_txnHash, _from, _to, _prev, _latitude, _longitude, _timestamp) */\n          0xffffffffffffffffffffffffffffffffffffffff\n          and\n          dup2\n          mstore\n          0x20\n          add\n            /* \"contracts/Transactions.sol\":1112:1115  _to */\n          dup7\n            /* \"contracts/Transactions.sol\":1090:1158  txns(_txnHash, _from, _to, _prev, _latitude, _longitude, _timestamp) */\n          0xffffffffffffffffffffffffffffffffffffffff\n          and\n          dup2\n          mstore\n          0x20\n          add\n            /* \"contracts/Transactions.sol\":1117:1122  _prev */\n          dup6\n            /* \"contracts/Transactions.sol\":1090:1158  txns(_txnHash, _from, _to, _prev, _latitude, _longitude, _timestamp) */\n          dup2\n          mstore\n          0x20\n          add\n            /* \"contracts/Transactions.sol\":1124:1133  _latitude */\n          dup5\n            /* \"contracts/Transactions.sol\":1090:1158  txns(_txnHash, _from, _to, _prev, _latitude, _longitude, _timestamp) */\n          dup2\n          mstore\n          0x20\n          add\n            /* \"contracts/Transactions.sol\":1135:1145  _longitude */\n          dup4\n            /* \"contracts/Transactions.sol\":1090:1158  txns(_txnHash, _from, _to, _prev, _latitude, _longitude, _timestamp) */\n          dup2\n          mstore\n          0x20\n          add\n            /* \"contracts/Transactions.sol\":1147:1157  _timestamp */\n          dup3\n            /* \"contracts/Transactions.sol\":1090:1158  txns(_txnHash, _from, _to, _prev, _latitude, _longitude, _timestamp) */\n          dup2\n          mstore\n          pop\n            /* \"contracts/Transactions.sol\":1065:1077  transactions */\n          0x01\n            /* \"contracts/Transactions.sol\":1065:1087  transactions[txnCount] */\n          0x00\n            /* \"contracts/Transactions.sol\":1078:1086  txnCount */\n          sload(0x02)\n            /* \"contracts/Transactions.sol\":1065:1087  transactions[txnCount] */\n          dup2\n          mstore\n          0x20\n          add\n          swap1\n          dup2\n          mstore\n          0x20\n          add\n          0x00\n          keccak256\n            /* \"contracts/Transactions.sol\":1065:1158  transactions[txnCount] = txns(_txnHash, _from, _to, _prev, _latitude, _longitude, _timestamp) */\n          0x00\n          dup3\n          add\n          mload\n          dup2\n          0x00\n          add\n          sstore\n          0x20\n          dup3\n          add\n          mload\n          dup2\n          0x01\n          add\n          exp(0x0100, 0x00)\n          dup2\n          sload\n          dup2\n          0xffffffffffffffffffffffffffffffffffffffff\n          mul\n          not\n          and\n          swap1\n          dup4\n          0xffffffffffffffffffffffffffffffffffffffff\n          and\n          mul\n          or\n          swap1\n          sstore\n          pop\n          0x40\n          dup3\n          add\n          mload\n          dup2\n          0x02\n          add\n          exp(0x0100, 0x00)\n          dup2\n          sload\n          dup2\n          0xffffffffffffffffffffffffffffffffffffffff\n          mul\n          not\n          and\n          swap1\n          dup4\n          0xffffffffffffffffffffffffffffffffffffffff\n          and\n          mul\n          or\n          swap1\n          sstore\n          pop\n          0x60\n          dup3\n          add\n          mload\n          dup2\n          0x03\n          add\n          sstore\n          0x80\n          dup3\n          add\n          mload\n          dup2\n          0x04\n          add\n          swap1\n          dup1\n          mload\n          swap1\n          0x20\n          add\n          swap1\n          tag_50\n          swap3\n          swap2\n          swap1\n          tag_44\n          jump\t// in\n        tag_50:\n          pop\n          0xa0\n          dup3\n          add\n          mload\n          dup2\n          0x05\n          add\n          swap1\n          dup1\n          mload\n          swap1\n          0x20\n          add\n          swap1\n          tag_51\n          swap3\n          swap2\n          swap1\n          tag_44\n          jump\t// in\n        tag_51:\n          pop\n          0xc0\n          dup3\n          add\n          mload\n          dup2\n          0x06\n          add\n          sstore\n          swap1\n          pop\n          pop\n            /* \"contracts/Transactions.sol\":812:1169  if(txnCount == 0) {... */\n        tag_46:\n            /* \"contracts/Transactions.sol\":1190:1191  1 */\n          0x01\n            /* \"contracts/Transactions.sol\":1178:1186  txnCount */\n          0x02\n          0x00\n            /* \"contracts/Transactions.sol\":1178:1191  txnCount += 1 */\n          dup3\n          dup3\n          sload\n          add\n          swap3\n          pop\n          pop\n          dup2\n          swap1\n          sstore\n          pop\n            /* \"contracts/Transactions.sol\":1206:1280  txnCreated(_txnHash, _from, _to, _prev, _timestamp, _latitude, _longitude) */\n          0x30d01d358fb0899fe4d50947b2e9301c952d9eed09b14c7ecdcbeed4434557c4\n            /* \"contracts/Transactions.sol\":1217:1225  _txnHash */\n          dup8\n            /* \"contracts/Transactions.sol\":1227:1232  _from */\n          dup8\n            /* \"contracts/Transactions.sol\":1234:1237  _to */\n          dup8\n            /* \"contracts/Transactions.sol\":1239:1244  _prev */\n          dup8\n            /* \"contracts/Transactions.sol\":1246:1256  _timestamp */\n          dup6\n            /* \"contracts/Transactions.sol\":1258:1267  _latitude */\n          dup9\n            /* \"contracts/Transactions.sol\":1269:1279  _longitude */\n          dup9\n            /* \"contracts/Transactions.sol\":1206:1280  txnCreated(_txnHash, _from, _to, _prev, _timestamp, _latitude, _longitude) */\n          mload(0x40)\n          tag_52\n          swap8\n          swap7\n          swap6\n          swap5\n          swap4\n          swap3\n          swap2\n          swap1\n          jump(tag_53)\n        tag_52:\n          mload(0x40)\n          dup1\n          swap2\n          sub\n          swap1\n          log1\n            /* \"contracts/Transactions.sol\":628:1287  function createTxnEntry(bytes32 _txnHash, address _from, address _to, bytes32 _prev, string memory _latitude, string memory _longitude) public {... */\n          pop\n          pop\n          pop\n          pop\n          pop\n          pop\n          pop\n          jump\t// out\n            /* \"contracts/Transactions.sol\":369:393  uint public txnCount = 0 */\n        tag_16:\n          sload(0x02)\n          dup2\n          jump\t// out\n            /* \"contracts/Transactions.sol\":322:363  mapping(uint => txns) public transactions */\n        tag_22:\n          mstore(0x20, 0x01)\n          dup1\n          0x00\n          mstore\n          keccak256(0x00, 0x40)\n          0x00\n          swap2\n          pop\n          swap1\n          pop\n          dup1\n          0x00\n          add\n          sload\n          swap1\n          dup1\n          0x01\n          add\n          0x00\n          swap1\n          sload\n          swap1\n          0x0100\n          exp\n          swap1\n          div\n          0xffffffffffffffffffffffffffffffffffffffff\n          and\n          swap1\n          dup1\n          0x02\n          add\n          0x00\n          swap1\n          sload\n          swap1\n          0x0100\n          exp\n          swap1\n          div\n          0xffffffffffffffffffffffffffffffffffffffff\n          and\n          swap1\n          dup1\n          0x03\n          add\n          sload\n          swap1\n          dup1\n          0x04\n          add\n          dup1\n          sload\n          0x01\n          dup2\n          0x01\n          and\n          iszero\n          0x0100\n          mul\n          sub\n          and\n          0x02\n          swap1\n          div\n          dup1\n          0x1f\n          add\n          0x20\n          dup1\n          swap2\n          div\n          mul\n          0x20\n          add\n          mload(0x40)\n          swap1\n          dup2\n          add\n          0x40\n          mstore\n          dup1\n          swap3\n          swap2\n          swap1\n          dup2\n          dup2\n          mstore\n          0x20\n          add\n          dup3\n          dup1\n          sload\n          0x01\n          dup2\n          0x01\n          and\n          iszero\n          0x0100\n          mul\n          sub\n          and\n          0x02\n          swap1\n          div\n          dup1\n          iszero\n          tag_54\n          jumpi\n          dup1\n          0x1f\n          lt\n          tag_55\n          jumpi\n          0x0100\n          dup1\n          dup4\n          sload\n          div\n          mul\n          dup4\n          mstore\n          swap2\n          0x20\n          add\n          swap2\n          jump(tag_54)\n        tag_55:\n          dup3\n          add\n          swap2\n          swap1\n          0x00\n          mstore\n          keccak256(0x00, 0x20)\n          swap1\n        tag_56:\n          dup2\n          sload\n          dup2\n          mstore\n          swap1\n          0x01\n          add\n          swap1\n          0x20\n          add\n          dup1\n          dup4\n          gt\n          tag_56\n          jumpi\n          dup3\n          swap1\n          sub\n          0x1f\n          and\n          dup3\n          add\n          swap2\n        tag_54:\n          pop\n          pop\n          pop\n          pop\n          pop\n          swap1\n          dup1\n          0x05\n          add\n          dup1\n          sload\n          0x01\n          dup2\n          0x01\n          and\n          iszero\n          0x0100\n          mul\n          sub\n          and\n          0x02\n          swap1\n          div\n          dup1\n          0x1f\n          add\n          0x20\n          dup1\n          swap2\n          div\n          mul\n          0x20\n          add\n          mload(0x40)\n          swap1\n          dup2\n          add\n          0x40\n          mstore\n          dup1\n          swap3\n          swap2\n          swap1\n          dup2\n          dup2\n          mstore\n          0x20\n          add\n          dup3\n          dup1\n          sload\n          0x01\n          dup2\n          0x01\n          and\n          iszero\n          0x0100\n          mul\n          sub\n          and\n          0x02\n          swap1\n          div\n          dup1\n          iszero\n          tag_57\n          jumpi\n          dup1\n          0x1f\n          lt\n          tag_58\n          jumpi\n          0x0100\n          dup1\n          dup4\n          sload\n          div\n          mul\n          dup4\n          mstore\n          swap2\n          0x20\n          add\n          swap2\n          jump(tag_57)\n        tag_58:\n          dup3\n          add\n          swap2\n          swap1\n          0x00\n          mstore\n          keccak256(0x00, 0x20)\n          swap1\n        tag_59:\n          dup2\n          sload\n          dup2\n          mstore\n          swap1\n          0x01\n          add\n          swap1\n          0x20\n          add\n          dup1\n          dup4\n          gt\n          tag_59\n          jumpi\n          dup3\n          swap1\n          sub\n          0x1f\n          and\n          dup3\n          add\n          swap2\n        tag_57:\n          pop\n          pop\n          pop\n          pop\n          pop\n          swap1\n          dup1\n          0x06\n          add\n          sload\n          swap1\n          pop\n          dup8\n          jump\t// out\n            /* \"contracts/Transactions.sol\":59:1554  contract Transactions {... */\n        tag_30:\n          mload(0x40)\n          dup1\n          0xe0\n          add\n          0x40\n          mstore\n          dup1\n          0x00\n          dup1\n          not\n          and\n          dup2\n          mstore\n          0x20\n          add\n          and(0xffffffffffffffffffffffffffffffffffffffff, 0x00)\n          dup2\n          mstore\n          0x20\n          add\n          and(0xffffffffffffffffffffffffffffffffffffffff, 0x00)\n          dup2\n          mstore\n          0x20\n          add\n          0x00\n          dup1\n          not\n          and\n          dup2\n          mstore\n          0x20\n          add\n          0x60\n          dup2\n          mstore\n          0x20\n          add\n          0x60\n          dup2\n          mstore\n          0x20\n          add\n          0x00\n          dup2\n          mstore\n          pop\n          swap1\n          jump\t// out\n        tag_44:\n          dup3\n          dup1\n          sload\n          0x01\n          dup2\n          0x01\n          and\n          iszero\n          0x0100\n          mul\n          sub\n          and\n          0x02\n          swap1\n          div\n          swap1\n          0x00\n          mstore\n          keccak256(0x00, 0x20)\n          swap1\n          0x1f\n          add\n          0x20\n          swap1\n          div\n          dup2\n          add\n          swap3\n          dup3\n          0x1f\n          lt\n          tag_61\n          jumpi\n          dup1\n          mload\n          not(0xff)\n          and\n          dup4\n          dup1\n          add\n          or\n          dup6\n          sstore\n          jump(tag_60)\n        tag_61:\n          dup3\n          dup1\n          add\n          0x01\n          add\n          dup6\n          sstore\n          dup3\n          iszero\n          tag_60\n          jumpi\n          swap2\n          dup3\n          add\n        tag_62:\n          dup3\n          dup2\n          gt\n          iszero\n          tag_63\n          jumpi\n          dup3\n          mload\n          dup3\n          sstore\n          swap2\n          0x20\n          add\n          swap2\n          swap1\n          0x01\n          add\n          swap1\n          jump(tag_62)\n        tag_63:\n        tag_60:\n          pop\n          swap1\n          pop\n          tag_64\n          swap2\n          swap1\n          tag_65\n          jump\t// in\n        tag_64:\n          pop\n          swap1\n          jump\t// out\n        tag_65:\n          tag_66\n          swap2\n          swap1\n        tag_67:\n          dup1\n          dup3\n          gt\n          iszero\n          tag_68\n          jumpi\n          0x00\n          dup2\n          0x00\n          swap1\n          sstore\n          pop\n          0x01\n          add\n          jump(tag_67)\n        tag_68:\n          pop\n          swap1\n          jump\n        tag_66:\n          swap1\n          jump\t// out\n            /* \"--CODEGEN--\":5:135   */\n        tag_70:\n          0x00\n            /* \"--CODEGEN--\":85:91   */\n          dup2\n            /* \"--CODEGEN--\":72:92   */\n          calldataload\n            /* \"--CODEGEN--\":63:92   */\n          swap1\n          pop\n            /* \"--CODEGEN--\":97:130   */\n          tag_72\n            /* \"--CODEGEN--\":124:129   */\n          dup2\n            /* \"--CODEGEN--\":97:130   */\n          jump(tag_73)\n        tag_72:\n            /* \"--CODEGEN--\":57:135   */\n          swap3\n          swap2\n          pop\n          pop\n          jump\n            /* \"--CODEGEN--\":142:272   */\n        tag_74:\n          0x00\n            /* \"--CODEGEN--\":222:228   */\n          dup2\n            /* \"--CODEGEN--\":209:229   */\n          calldataload\n            /* \"--CODEGEN--\":200:229   */\n          swap1\n          pop\n            /* \"--CODEGEN--\":234:267   */\n          tag_76\n            /* \"--CODEGEN--\":261:266   */\n          dup2\n            /* \"--CODEGEN--\":234:267   */\n          jump(tag_77)\n        tag_76:\n            /* \"--CODEGEN--\":194:272   */\n          swap3\n          swap2\n          pop\n          pop\n          jump\n            /* \"--CODEGEN--\":280:722   */\n        tag_78:\n          0x00\n            /* \"--CODEGEN--\":382:385   */\n          dup3\n            /* \"--CODEGEN--\":375:379   */\n          0x1f\n            /* \"--CODEGEN--\":367:373   */\n          dup4\n            /* \"--CODEGEN--\":363:380   */\n          add\n            /* \"--CODEGEN--\":359:386   */\n          slt\n            /* \"--CODEGEN--\":349:351   */\n          tag_80\n          jumpi\n            /* \"--CODEGEN--\":400:401   */\n          0x00\n            /* \"--CODEGEN--\":397:398   */\n          dup1\n            /* \"--CODEGEN--\":390:402   */\n          revert\n            /* \"--CODEGEN--\":349:351   */\n        tag_80:\n            /* \"--CODEGEN--\":437:443   */\n          dup2\n            /* \"--CODEGEN--\":424:444   */\n          calldataload\n            /* \"--CODEGEN--\":459:524   */\n          tag_81\n            /* \"--CODEGEN--\":474:523   */\n          tag_82\n            /* \"--CODEGEN--\":516:522   */\n          dup3\n            /* \"--CODEGEN--\":474:523   */\n          jump(tag_83)\n        tag_82:\n            /* \"--CODEGEN--\":459:524   */\n          jump(tag_84)\n        tag_81:\n            /* \"--CODEGEN--\":450:524   */\n          swap2\n          pop\n            /* \"--CODEGEN--\":544:550   */\n          dup1\n            /* \"--CODEGEN--\":537:542   */\n          dup3\n            /* \"--CODEGEN--\":530:551   */\n          mstore\n            /* \"--CODEGEN--\":580:584   */\n          0x20\n            /* \"--CODEGEN--\":572:578   */\n          dup4\n            /* \"--CODEGEN--\":568:585   */\n          add\n            /* \"--CODEGEN--\":613:617   */\n          0x20\n            /* \"--CODEGEN--\":606:611   */\n          dup4\n            /* \"--CODEGEN--\":602:618   */\n          add\n            /* \"--CODEGEN--\":648:651   */\n          dup6\n            /* \"--CODEGEN--\":639:645   */\n          dup4\n            /* \"--CODEGEN--\":634:637   */\n          dup4\n            /* \"--CODEGEN--\":630:646   */\n          add\n            /* \"--CODEGEN--\":627:652   */\n          gt\n            /* \"--CODEGEN--\":624:626   */\n          iszero\n          tag_85\n          jumpi\n            /* \"--CODEGEN--\":665:666   */\n          0x00\n            /* \"--CODEGEN--\":662:663   */\n          dup1\n            /* \"--CODEGEN--\":655:667   */\n          revert\n            /* \"--CODEGEN--\":624:626   */\n        tag_85:\n            /* \"--CODEGEN--\":675:716   */\n          tag_86\n            /* \"--CODEGEN--\":709:715   */\n          dup4\n            /* \"--CODEGEN--\":704:707   */\n          dup3\n            /* \"--CODEGEN--\":699:702   */\n          dup5\n            /* \"--CODEGEN--\":675:716   */\n          jump(tag_87)\n        tag_86:\n            /* \"--CODEGEN--\":342:722   */\n          pop\n          pop\n          pop\n          swap3\n          swap2\n          pop\n          pop\n          jump\n            /* \"--CODEGEN--\":730:860   */\n        tag_88:\n          0x00\n            /* \"--CODEGEN--\":810:816   */\n          dup2\n            /* \"--CODEGEN--\":797:817   */\n          calldataload\n            /* \"--CODEGEN--\":788:817   */\n          swap1\n          pop\n            /* \"--CODEGEN--\":822:855   */\n          tag_90\n            /* \"--CODEGEN--\":849:854   */\n          dup2\n            /* \"--CODEGEN--\":822:855   */\n          jump(tag_91)\n        tag_90:\n            /* \"--CODEGEN--\":782:860   */\n          swap3\n          swap2\n          pop\n          pop\n          jump\n            /* \"--CODEGEN--\":867:1948   */\n        tag_13:\n          0x00\n          dup1\n          0x00\n          dup1\n          0x00\n          dup1\n            /* \"--CODEGEN--\":1076:1079   */\n          0xc0\n            /* \"--CODEGEN--\":1064:1073   */\n          dup8\n            /* \"--CODEGEN--\":1055:1062   */\n          dup10\n            /* \"--CODEGEN--\":1051:1074   */\n          sub\n            /* \"--CODEGEN--\":1047:1080   */\n          slt\n            /* \"--CODEGEN--\":1044:1046   */\n          iszero\n          tag_93\n          jumpi\n            /* \"--CODEGEN--\":1093:1094   */\n          0x00\n            /* \"--CODEGEN--\":1090:1091   */\n          dup1\n            /* \"--CODEGEN--\":1083:1095   */\n          revert\n            /* \"--CODEGEN--\":1044:1046   */\n        tag_93:\n            /* \"--CODEGEN--\":1128:1129   */\n          0x00\n            /* \"--CODEGEN--\":1145:1198   */\n          tag_94\n            /* \"--CODEGEN--\":1190:1197   */\n          dup10\n            /* \"--CODEGEN--\":1181:1187   */\n          dup3\n            /* \"--CODEGEN--\":1170:1179   */\n          dup11\n            /* \"--CODEGEN--\":1166:1188   */\n          add\n            /* \"--CODEGEN--\":1145:1198   */\n          jump(tag_74)\n        tag_94:\n            /* \"--CODEGEN--\":1135:1198   */\n          swap7\n          pop\n            /* \"--CODEGEN--\":1107:1204   */\n          pop\n            /* \"--CODEGEN--\":1235:1237   */\n          0x20\n            /* \"--CODEGEN--\":1253:1306   */\n          tag_95\n            /* \"--CODEGEN--\":1298:1305   */\n          dup10\n            /* \"--CODEGEN--\":1289:1295   */\n          dup3\n            /* \"--CODEGEN--\":1278:1287   */\n          dup11\n            /* \"--CODEGEN--\":1274:1296   */\n          add\n            /* \"--CODEGEN--\":1253:1306   */\n          jump(tag_70)\n        tag_95:\n            /* \"--CODEGEN--\":1243:1306   */\n          swap6\n          pop\n            /* \"--CODEGEN--\":1214:1312   */\n          pop\n            /* \"--CODEGEN--\":1343:1345   */\n          0x40\n            /* \"--CODEGEN--\":1361:1414   */\n          tag_96\n            /* \"--CODEGEN--\":1406:1413   */\n          dup10\n            /* \"--CODEGEN--\":1397:1403   */\n          dup3\n            /* \"--CODEGEN--\":1386:1395   */\n          dup11\n            /* \"--CODEGEN--\":1382:1404   */\n          add\n            /* \"--CODEGEN--\":1361:1414   */\n          jump(tag_70)\n        tag_96:\n            /* \"--CODEGEN--\":1351:1414   */\n          swap5\n          pop\n            /* \"--CODEGEN--\":1322:1420   */\n          pop\n            /* \"--CODEGEN--\":1451:1453   */\n          0x60\n            /* \"--CODEGEN--\":1469:1522   */\n          tag_97\n            /* \"--CODEGEN--\":1514:1521   */\n          dup10\n            /* \"--CODEGEN--\":1505:1511   */\n          dup3\n            /* \"--CODEGEN--\":1494:1503   */\n          dup11\n            /* \"--CODEGEN--\":1490:1512   */\n          add\n            /* \"--CODEGEN--\":1469:1522   */\n          jump(tag_74)\n        tag_97:\n            /* \"--CODEGEN--\":1459:1522   */\n          swap4\n          pop\n            /* \"--CODEGEN--\":1430:1528   */\n          pop\n            /* \"--CODEGEN--\":1587:1590   */\n          0x80\n            /* \"--CODEGEN--\":1576:1585   */\n          dup8\n            /* \"--CODEGEN--\":1572:1591   */\n          add\n            /* \"--CODEGEN--\":1559:1592   */\n          calldataload\n            /* \"--CODEGEN--\":1612:1630   */\n          0xffffffffffffffff\n            /* \"--CODEGEN--\":1604:1610   */\n          dup2\n            /* \"--CODEGEN--\":1601:1631   */\n          gt\n            /* \"--CODEGEN--\":1598:1600   */\n          iszero\n          tag_98\n          jumpi\n            /* \"--CODEGEN--\":1644:1645   */\n          0x00\n            /* \"--CODEGEN--\":1641:1642   */\n          dup1\n            /* \"--CODEGEN--\":1634:1646   */\n          revert\n            /* \"--CODEGEN--\":1598:1600   */\n        tag_98:\n            /* \"--CODEGEN--\":1664:1727   */\n          tag_99\n            /* \"--CODEGEN--\":1719:1726   */\n          dup10\n            /* \"--CODEGEN--\":1710:1716   */\n          dup3\n            /* \"--CODEGEN--\":1699:1708   */\n          dup11\n            /* \"--CODEGEN--\":1695:1717   */\n          add\n            /* \"--CODEGEN--\":1664:1727   */\n          jump(tag_78)\n        tag_99:\n            /* \"--CODEGEN--\":1654:1727   */\n          swap3\n          pop\n            /* \"--CODEGEN--\":1538:1733   */\n          pop\n            /* \"--CODEGEN--\":1792:1795   */\n          0xa0\n            /* \"--CODEGEN--\":1781:1790   */\n          dup8\n            /* \"--CODEGEN--\":1777:1796   */\n          add\n            /* \"--CODEGEN--\":1764:1797   */\n          calldataload\n            /* \"--CODEGEN--\":1817:1835   */\n          0xffffffffffffffff\n            /* \"--CODEGEN--\":1809:1815   */\n          dup2\n            /* \"--CODEGEN--\":1806:1836   */\n          gt\n            /* \"--CODEGEN--\":1803:1805   */\n          iszero\n          tag_100\n          jumpi\n            /* \"--CODEGEN--\":1849:1850   */\n          0x00\n            /* \"--CODEGEN--\":1846:1847   */\n          dup1\n            /* \"--CODEGEN--\":1839:1851   */\n          revert\n            /* \"--CODEGEN--\":1803:1805   */\n        tag_100:\n            /* \"--CODEGEN--\":1869:1932   */\n          tag_101\n            /* \"--CODEGEN--\":1924:1931   */\n          dup10\n            /* \"--CODEGEN--\":1915:1921   */\n          dup3\n            /* \"--CODEGEN--\":1904:1913   */\n          dup11\n            /* \"--CODEGEN--\":1900:1922   */\n          add\n            /* \"--CODEGEN--\":1869:1932   */\n          jump(tag_78)\n        tag_101:\n            /* \"--CODEGEN--\":1859:1932   */\n          swap2\n          pop\n            /* \"--CODEGEN--\":1743:1938   */\n          pop\n            /* \"--CODEGEN--\":1038:1948   */\n          swap3\n          swap6\n          pop\n          swap3\n          swap6\n          pop\n          swap3\n          swap6\n          jump\n            /* \"--CODEGEN--\":1955:2196   */\n        tag_21:\n          0x00\n            /* \"--CODEGEN--\":2059:2061   */\n          0x20\n            /* \"--CODEGEN--\":2047:2056   */\n          dup3\n            /* \"--CODEGEN--\":2038:2045   */\n          dup5\n            /* \"--CODEGEN--\":2034:2057   */\n          sub\n            /* \"--CODEGEN--\":2030:2062   */\n          slt\n            /* \"--CODEGEN--\":2027:2029   */\n          iszero\n          tag_103\n          jumpi\n            /* \"--CODEGEN--\":2075:2076   */\n          0x00\n            /* \"--CODEGEN--\":2072:2073   */\n          dup1\n            /* \"--CODEGEN--\":2065:2077   */\n          revert\n            /* \"--CODEGEN--\":2027:2029   */\n        tag_103:\n            /* \"--CODEGEN--\":2110:2111   */\n          0x00\n            /* \"--CODEGEN--\":2127:2180   */\n          tag_104\n            /* \"--CODEGEN--\":2172:2179   */\n          dup5\n            /* \"--CODEGEN--\":2163:2169   */\n          dup3\n            /* \"--CODEGEN--\":2152:2161   */\n          dup6\n            /* \"--CODEGEN--\":2148:2170   */\n          add\n            /* \"--CODEGEN--\":2127:2180   */\n          jump(tag_88)\n        tag_104:\n            /* \"--CODEGEN--\":2117:2180   */\n          swap2\n          pop\n            /* \"--CODEGEN--\":2089:2186   */\n          pop\n            /* \"--CODEGEN--\":2021:2196   */\n          swap3\n          swap2\n          pop\n          pop\n          jump\n            /* \"--CODEGEN--\":2204:2441   */\n        tag_105:\n          0x00\n            /* \"--CODEGEN--\":2347:2435   */\n          tag_107\n            /* \"--CODEGEN--\":2431:2434   */\n          dup4\n            /* \"--CODEGEN--\":2423:2429   */\n          dup4\n            /* \"--CODEGEN--\":2347:2435   */\n          jump(tag_108)\n        tag_107:\n            /* \"--CODEGEN--\":2333:2435   */\n          swap1\n          pop\n            /* \"--CODEGEN--\":2326:2441   */\n          swap3\n          swap2\n          pop\n          pop\n          jump\n            /* \"--CODEGEN--\":2449:2552   */\n        tag_109:\n            /* \"--CODEGEN--\":2522:2546   */\n          tag_111\n            /* \"--CODEGEN--\":2540:2545   */\n          dup2\n            /* \"--CODEGEN--\":2522:2546   */\n          jump(tag_112)\n        tag_111:\n            /* \"--CODEGEN--\":2517:2520   */\n          dup3\n            /* \"--CODEGEN--\":2510:2547   */\n          mstore\n            /* \"--CODEGEN--\":2504:2552   */\n          pop\n          pop\n          jump\n            /* \"--CODEGEN--\":2559:2672   */\n        tag_113:\n            /* \"--CODEGEN--\":2642:2666   */\n          tag_115\n            /* \"--CODEGEN--\":2660:2665   */\n          dup2\n            /* \"--CODEGEN--\":2642:2666   */\n          jump(tag_112)\n        tag_115:\n            /* \"--CODEGEN--\":2637:2640   */\n          dup3\n            /* \"--CODEGEN--\":2630:2667   */\n          mstore\n            /* \"--CODEGEN--\":2624:2672   */\n          pop\n          pop\n          jump\n            /* \"--CODEGEN--\":2744:3760   */\n        tag_116:\n          0x00\n            /* \"--CODEGEN--\":2931:3006   */\n          tag_118\n            /* \"--CODEGEN--\":3000:3005   */\n          dup3\n            /* \"--CODEGEN--\":2931:3006   */\n          jump(tag_119)\n        tag_118:\n            /* \"--CODEGEN--\":3019:3126   */\n          tag_120\n            /* \"--CODEGEN--\":3119:3125   */\n          dup2\n            /* \"--CODEGEN--\":3114:3117   */\n          dup6\n            /* \"--CODEGEN--\":3019:3126   */\n          jump(tag_121)\n        tag_120:\n            /* \"--CODEGEN--\":3012:3126   */\n          swap4\n          pop\n            /* \"--CODEGEN--\":3149:3152   */\n          dup4\n            /* \"--CODEGEN--\":3191:3195   */\n          0x20\n            /* \"--CODEGEN--\":3183:3189   */\n          dup3\n            /* \"--CODEGEN--\":3179:3196   */\n          mul\n            /* \"--CODEGEN--\":3174:3177   */\n          dup6\n            /* \"--CODEGEN--\":3170:3197   */\n          add\n            /* \"--CODEGEN--\":3218:3295   */\n          tag_122\n            /* \"--CODEGEN--\":3289:3294   */\n          dup6\n            /* \"--CODEGEN--\":3218:3295   */\n          jump(tag_123)\n        tag_122:\n            /* \"--CODEGEN--\":3315:3322   */\n          dup1\n            /* \"--CODEGEN--\":3343:3344   */\n          0x00\n            /* \"--CODEGEN--\":3328:3721   */\n        tag_124:\n            /* \"--CODEGEN--\":3353:3359   */\n          dup6\n            /* \"--CODEGEN--\":3350:3351   */\n          dup2\n            /* \"--CODEGEN--\":3347:3360   */\n          lt\n            /* \"--CODEGEN--\":3328:3721   */\n          iszero\n          tag_126\n          jumpi\n            /* \"--CODEGEN--\":3415:3424   */\n          dup5\n            /* \"--CODEGEN--\":3409:3413   */\n          dup5\n            /* \"--CODEGEN--\":3405:3425   */\n          sub\n            /* \"--CODEGEN--\":3400:3403   */\n          dup10\n            /* \"--CODEGEN--\":3393:3426   */\n          mstore\n            /* \"--CODEGEN--\":3460:3466   */\n          dup2\n            /* \"--CODEGEN--\":3454:3467   */\n          mload\n            /* \"--CODEGEN--\":3482:3588   */\n          tag_127\n            /* \"--CODEGEN--\":3583:3587   */\n          dup6\n            /* \"--CODEGEN--\":3568:3581   */\n          dup3\n            /* \"--CODEGEN--\":3482:3588   */\n          jump(tag_105)\n        tag_127:\n            /* \"--CODEGEN--\":3474:3588   */\n          swap5\n          pop\n            /* \"--CODEGEN--\":3605:3686   */\n          tag_128\n            /* \"--CODEGEN--\":3679:3685   */\n          dup4\n            /* \"--CODEGEN--\":3605:3686   */\n          jump(tag_129)\n        tag_128:\n            /* \"--CODEGEN--\":3595:3686   */\n          swap3\n          pop\n            /* \"--CODEGEN--\":3709:3713   */\n          0x20\n            /* \"--CODEGEN--\":3704:3707   */\n          dup11\n            /* \"--CODEGEN--\":3700:3714   */\n          add\n            /* \"--CODEGEN--\":3693:3714   */\n          swap10\n          pop\n            /* \"--CODEGEN--\":3385:3721   */\n          pop\n            /* \"--CODEGEN--\":3375:3376   */\n          0x01\n            /* \"--CODEGEN--\":3372:3373   */\n          dup2\n            /* \"--CODEGEN--\":3368:3377   */\n          add\n            /* \"--CODEGEN--\":3363:3377   */\n          swap1\n          pop\n            /* \"--CODEGEN--\":3328:3721   */\n          jump(tag_124)\n        tag_126:\n            /* \"--CODEGEN--\":3332:3346   */\n          pop\n            /* \"--CODEGEN--\":3734:3738   */\n          dup3\n            /* \"--CODEGEN--\":3727:3738   */\n          swap8\n          pop\n            /* \"--CODEGEN--\":3751:3754   */\n          dup8\n            /* \"--CODEGEN--\":3744:3754   */\n          swap6\n          pop\n            /* \"--CODEGEN--\":2910:3760   */\n          pop\n          pop\n          pop\n          pop\n          pop\n          swap3\n          swap2\n          pop\n          pop\n          jump\n            /* \"--CODEGEN--\":3768:3871   */\n        tag_130:\n            /* \"--CODEGEN--\":3841:3865   */\n          tag_132\n            /* \"--CODEGEN--\":3859:3864   */\n          dup2\n            /* \"--CODEGEN--\":3841:3865   */\n          jump(tag_133)\n        tag_132:\n            /* \"--CODEGEN--\":3836:3839   */\n          dup3\n            /* \"--CODEGEN--\":3829:3866   */\n          mstore\n            /* \"--CODEGEN--\":3823:3871   */\n          pop\n          pop\n          jump\n            /* \"--CODEGEN--\":3878:3991   */\n        tag_134:\n            /* \"--CODEGEN--\":3961:3985   */\n          tag_136\n            /* \"--CODEGEN--\":3979:3984   */\n          dup2\n            /* \"--CODEGEN--\":3961:3985   */\n          jump(tag_133)\n        tag_136:\n            /* \"--CODEGEN--\":3956:3959   */\n          dup3\n            /* \"--CODEGEN--\":3949:3986   */\n          mstore\n            /* \"--CODEGEN--\":3943:3991   */\n          pop\n          pop\n          jump\n            /* \"--CODEGEN--\":3998:4325   */\n        tag_137:\n          0x00\n            /* \"--CODEGEN--\":4100:4139   */\n          tag_139\n            /* \"--CODEGEN--\":4133:4138   */\n          dup3\n            /* \"--CODEGEN--\":4100:4139   */\n          jump(tag_140)\n        tag_139:\n            /* \"--CODEGEN--\":4151:4212   */\n          tag_141\n            /* \"--CODEGEN--\":4205:4211   */\n          dup2\n            /* \"--CODEGEN--\":4200:4203   */\n          dup6\n            /* \"--CODEGEN--\":4151:4212   */\n          jump(tag_142)\n        tag_141:\n            /* \"--CODEGEN--\":4144:4212   */\n          swap4\n          pop\n            /* \"--CODEGEN--\":4217:4269   */\n          tag_143\n            /* \"--CODEGEN--\":4262:4268   */\n          dup2\n            /* \"--CODEGEN--\":4257:4260   */\n          dup6\n            /* \"--CODEGEN--\":4250:4254   */\n          0x20\n            /* \"--CODEGEN--\":4243:4248   */\n          dup7\n            /* \"--CODEGEN--\":4239:4255   */\n          add\n            /* \"--CODEGEN--\":4217:4269   */\n          jump(tag_144)\n        tag_143:\n            /* \"--CODEGEN--\":4290:4319   */\n          tag_145\n            /* \"--CODEGEN--\":4312:4318   */\n          dup2\n            /* \"--CODEGEN--\":4290:4319   */\n          jump(tag_146)\n        tag_145:\n            /* \"--CODEGEN--\":4285:4288   */\n          dup5\n            /* \"--CODEGEN--\":4281:4320   */\n          add\n            /* \"--CODEGEN--\":4274:4320   */\n          swap2\n          pop\n            /* \"--CODEGEN--\":4080:4325   */\n          pop\n          swap3\n          swap2\n          pop\n          pop\n          jump\n            /* \"--CODEGEN--\":4332:4679   */\n        tag_147:\n          0x00\n            /* \"--CODEGEN--\":4444:4483   */\n          tag_149\n            /* \"--CODEGEN--\":4477:4482   */\n          dup3\n            /* \"--CODEGEN--\":4444:4483   */\n          jump(tag_140)\n        tag_149:\n            /* \"--CODEGEN--\":4495:4566   */\n          tag_150\n            /* \"--CODEGEN--\":4559:4565   */\n          dup2\n            /* \"--CODEGEN--\":4554:4557   */\n          dup6\n            /* \"--CODEGEN--\":4495:4566   */\n          jump(tag_151)\n        tag_150:\n            /* \"--CODEGEN--\":4488:4566   */\n          swap4\n          pop\n            /* \"--CODEGEN--\":4571:4623   */\n          tag_152\n            /* \"--CODEGEN--\":4616:4622   */\n          dup2\n            /* \"--CODEGEN--\":4611:4614   */\n          dup6\n            /* \"--CODEGEN--\":4604:4608   */\n          0x20\n            /* \"--CODEGEN--\":4597:4602   */\n          dup7\n            /* \"--CODEGEN--\":4593:4609   */\n          add\n            /* \"--CODEGEN--\":4571:4623   */\n          jump(tag_144)\n        tag_152:\n            /* \"--CODEGEN--\":4644:4673   */\n          tag_153\n            /* \"--CODEGEN--\":4666:4672   */\n          dup2\n            /* \"--CODEGEN--\":4644:4673   */\n          jump(tag_146)\n        tag_153:\n            /* \"--CODEGEN--\":4639:4642   */\n          dup5\n            /* \"--CODEGEN--\":4635:4674   */\n          add\n            /* \"--CODEGEN--\":4628:4674   */\n          swap2\n          pop\n            /* \"--CODEGEN--\":4424:4679   */\n          pop\n          swap3\n          swap2\n          pop\n          pop\n          jump\n            /* \"--CODEGEN--\":4687:5014   */\n        tag_154:\n          0x00\n            /* \"--CODEGEN--\":4847:4914   */\n          tag_156\n            /* \"--CODEGEN--\":4911:4913   */\n          0x1b\n            /* \"--CODEGEN--\":4906:4909   */\n          dup4\n            /* \"--CODEGEN--\":4847:4914   */\n          jump(tag_151)\n        tag_156:\n            /* \"--CODEGEN--\":4840:4914   */\n          swap2\n          pop\n            /* \"--CODEGEN--\":4947:4976   */\n          0x5472616e73616374696f6e206572726f72206f63637572726564210000000000\n            /* \"--CODEGEN--\":4943:4944   */\n          0x00\n            /* \"--CODEGEN--\":4938:4941   */\n          dup4\n            /* \"--CODEGEN--\":4934:4945   */\n          add\n            /* \"--CODEGEN--\":4927:4977   */\n          mstore\n            /* \"--CODEGEN--\":5005:5007   */\n          0x20\n            /* \"--CODEGEN--\":5000:5003   */\n          dup3\n            /* \"--CODEGEN--\":4996:5008   */\n          add\n            /* \"--CODEGEN--\":4989:5008   */\n          swap1\n          pop\n            /* \"--CODEGEN--\":4833:5014   */\n          swap2\n          swap1\n          pop\n          jump\n            /* \"--CODEGEN--\":5081:6506   */\n        tag_108:\n          0x00\n            /* \"--CODEGEN--\":5214:5218   */\n          0xe0\n            /* \"--CODEGEN--\":5209:5212   */\n          dup4\n            /* \"--CODEGEN--\":5205:5219   */\n          add\n            /* \"--CODEGEN--\":5300:5304   */\n          0x00\n            /* \"--CODEGEN--\":5293:5298   */\n          dup4\n            /* \"--CODEGEN--\":5289:5305   */\n          add\n            /* \"--CODEGEN--\":5283:5306   */\n          mload\n            /* \"--CODEGEN--\":5312:5375   */\n          tag_158\n            /* \"--CODEGEN--\":5369:5373   */\n          0x00\n            /* \"--CODEGEN--\":5364:5367   */\n          dup7\n            /* \"--CODEGEN--\":5360:5374   */\n          add\n            /* \"--CODEGEN--\":5346:5358   */\n          dup3\n            /* \"--CODEGEN--\":5312:5375   */\n          jump(tag_130)\n        tag_158:\n            /* \"--CODEGEN--\":5234:5381   */\n          pop\n            /* \"--CODEGEN--\":5458:5462   */\n          0x20\n            /* \"--CODEGEN--\":5451:5456   */\n          dup4\n            /* \"--CODEGEN--\":5447:5463   */\n          add\n            /* \"--CODEGEN--\":5441:5464   */\n          mload\n            /* \"--CODEGEN--\":5470:5533   */\n          tag_159\n            /* \"--CODEGEN--\":5527:5531   */\n          0x20\n            /* \"--CODEGEN--\":5522:5525   */\n          dup7\n            /* \"--CODEGEN--\":5518:5532   */\n          add\n            /* \"--CODEGEN--\":5504:5516   */\n          dup3\n            /* \"--CODEGEN--\":5470:5533   */\n          jump(tag_109)\n        tag_159:\n            /* \"--CODEGEN--\":5391:5539   */\n          pop\n            /* \"--CODEGEN--\":5614:5618   */\n          0x40\n            /* \"--CODEGEN--\":5607:5612   */\n          dup4\n            /* \"--CODEGEN--\":5603:5619   */\n          add\n            /* \"--CODEGEN--\":5597:5620   */\n          mload\n            /* \"--CODEGEN--\":5626:5689   */\n          tag_160\n            /* \"--CODEGEN--\":5683:5687   */\n          0x40\n            /* \"--CODEGEN--\":5678:5681   */\n          dup7\n            /* \"--CODEGEN--\":5674:5688   */\n          add\n            /* \"--CODEGEN--\":5660:5672   */\n          dup3\n            /* \"--CODEGEN--\":5626:5689   */\n          jump(tag_109)\n        tag_160:\n            /* \"--CODEGEN--\":5549:5695   */\n          pop\n            /* \"--CODEGEN--\":5771:5775   */\n          0x60\n            /* \"--CODEGEN--\":5764:5769   */\n          dup4\n            /* \"--CODEGEN--\":5760:5776   */\n          add\n            /* \"--CODEGEN--\":5754:5777   */\n          mload\n            /* \"--CODEGEN--\":5783:5846   */\n          tag_161\n            /* \"--CODEGEN--\":5840:5844   */\n          0x60\n            /* \"--CODEGEN--\":5835:5838   */\n          dup7\n            /* \"--CODEGEN--\":5831:5845   */\n          add\n            /* \"--CODEGEN--\":5817:5829   */\n          dup3\n            /* \"--CODEGEN--\":5783:5846   */\n          jump(tag_130)\n        tag_161:\n            /* \"--CODEGEN--\":5705:5852   */\n          pop\n            /* \"--CODEGEN--\":5929:5933   */\n          0x80\n            /* \"--CODEGEN--\":5922:5927   */\n          dup4\n            /* \"--CODEGEN--\":5918:5934   */\n          add\n            /* \"--CODEGEN--\":5912:5935   */\n          mload\n            /* \"--CODEGEN--\":5981:5984   */\n          dup5\n            /* \"--CODEGEN--\":5975:5979   */\n          dup3\n            /* \"--CODEGEN--\":5971:5985   */\n          sub\n            /* \"--CODEGEN--\":5964:5968   */\n          0x80\n            /* \"--CODEGEN--\":5959:5962   */\n          dup7\n            /* \"--CODEGEN--\":5955:5969   */\n          add\n            /* \"--CODEGEN--\":5948:5986   */\n          mstore\n            /* \"--CODEGEN--\":6001:6074   */\n          tag_162\n            /* \"--CODEGEN--\":6069:6073   */\n          dup3\n            /* \"--CODEGEN--\":6055:6067   */\n          dup3\n            /* \"--CODEGEN--\":6001:6074   */\n          jump(tag_137)\n        tag_162:\n            /* \"--CODEGEN--\":5993:6074   */\n          swap2\n          pop\n            /* \"--CODEGEN--\":5862:6086   */\n          pop\n            /* \"--CODEGEN--\":6164:6168   */\n          0xa0\n            /* \"--CODEGEN--\":6157:6162   */\n          dup4\n            /* \"--CODEGEN--\":6153:6169   */\n          add\n            /* \"--CODEGEN--\":6147:6170   */\n          mload\n            /* \"--CODEGEN--\":6216:6219   */\n          dup5\n            /* \"--CODEGEN--\":6210:6214   */\n          dup3\n            /* \"--CODEGEN--\":6206:6220   */\n          sub\n            /* \"--CODEGEN--\":6199:6203   */\n          0xa0\n            /* \"--CODEGEN--\":6194:6197   */\n          dup7\n            /* \"--CODEGEN--\":6190:6204   */\n          add\n            /* \"--CODEGEN--\":6183:6221   */\n          mstore\n            /* \"--CODEGEN--\":6236:6309   */\n          tag_163\n            /* \"--CODEGEN--\":6304:6308   */\n          dup3\n            /* \"--CODEGEN--\":6290:6302   */\n          dup3\n            /* \"--CODEGEN--\":6236:6309   */\n          jump(tag_137)\n        tag_163:\n            /* \"--CODEGEN--\":6228:6309   */\n          swap2\n          pop\n            /* \"--CODEGEN--\":6096:6321   */\n          pop\n            /* \"--CODEGEN--\":6399:6403   */\n          0xc0\n            /* \"--CODEGEN--\":6392:6397   */\n          dup4\n            /* \"--CODEGEN--\":6388:6404   */\n          add\n            /* \"--CODEGEN--\":6382:6405   */\n          mload\n            /* \"--CODEGEN--\":6411:6474   */\n          tag_164\n            /* \"--CODEGEN--\":6468:6472   */\n          0xc0\n            /* \"--CODEGEN--\":6463:6466   */\n          dup7\n            /* \"--CODEGEN--\":6459:6473   */\n          add\n            /* \"--CODEGEN--\":6445:6457   */\n          dup3\n            /* \"--CODEGEN--\":6411:6474   */\n          jump(tag_165)\n        tag_164:\n            /* \"--CODEGEN--\":6331:6480   */\n          pop\n            /* \"--CODEGEN--\":6497:6501   */\n          dup1\n            /* \"--CODEGEN--\":6490:6501   */\n          swap2\n          pop\n            /* \"--CODEGEN--\":5187:6506   */\n          pop\n          swap3\n          swap2\n          pop\n          pop\n          jump\n            /* \"--CODEGEN--\":6513:6616   */\n        tag_165:\n            /* \"--CODEGEN--\":6586:6610   */\n          tag_167\n            /* \"--CODEGEN--\":6604:6609   */\n          dup2\n            /* \"--CODEGEN--\":6586:6610   */\n          jump(tag_168)\n        tag_167:\n            /* \"--CODEGEN--\":6581:6584   */\n          dup3\n            /* \"--CODEGEN--\":6574:6611   */\n          mstore\n            /* \"--CODEGEN--\":6568:6616   */\n          pop\n          pop\n          jump\n            /* \"--CODEGEN--\":6623:6736   */\n        tag_169:\n            /* \"--CODEGEN--\":6706:6730   */\n          tag_171\n            /* \"--CODEGEN--\":6724:6729   */\n          dup2\n            /* \"--CODEGEN--\":6706:6730   */\n          jump(tag_168)\n        tag_171:\n            /* \"--CODEGEN--\":6701:6704   */\n          dup3\n            /* \"--CODEGEN--\":6694:6731   */\n          mstore\n            /* \"--CODEGEN--\":6688:6736   */\n          pop\n          pop\n          jump\n            /* \"--CODEGEN--\":6743:7188   */\n        tag_10:\n          0x00\n            /* \"--CODEGEN--\":6953:6955   */\n          0x20\n            /* \"--CODEGEN--\":6942:6951   */\n          dup3\n            /* \"--CODEGEN--\":6938:6956   */\n          add\n            /* \"--CODEGEN--\":6930:6956   */\n          swap1\n          pop\n            /* \"--CODEGEN--\":7003:7012   */\n          dup2\n            /* \"--CODEGEN--\":6997:7001   */\n          dup2\n            /* \"--CODEGEN--\":6993:7013   */\n          sub\n            /* \"--CODEGEN--\":6989:6990   */\n          0x00\n            /* \"--CODEGEN--\":6978:6987   */\n          dup4\n            /* \"--CODEGEN--\":6974:6991   */\n          add\n            /* \"--CODEGEN--\":6967:7014   */\n          mstore\n            /* \"--CODEGEN--\":7028:7178   */\n          tag_173\n            /* \"--CODEGEN--\":7173:7177   */\n          dup2\n            /* \"--CODEGEN--\":7164:7170   */\n          dup5\n            /* \"--CODEGEN--\":7028:7178   */\n          jump(tag_116)\n        tag_173:\n            /* \"--CODEGEN--\":7020:7178   */\n          swap1\n          pop\n            /* \"--CODEGEN--\":6924:7188   */\n          swap3\n          swap2\n          pop\n          pop\n          jump\n            /* \"--CODEGEN--\":7195:8254   */\n        tag_24:\n          0x00\n            /* \"--CODEGEN--\":7521:7524   */\n          0xe0\n            /* \"--CODEGEN--\":7510:7519   */\n          dup3\n            /* \"--CODEGEN--\":7506:7525   */\n          add\n            /* \"--CODEGEN--\":7498:7525   */\n          swap1\n          pop\n            /* \"--CODEGEN--\":7536:7607   */\n          tag_175\n            /* \"--CODEGEN--\":7604:7605   */\n          0x00\n            /* \"--CODEGEN--\":7593:7602   */\n          dup4\n            /* \"--CODEGEN--\":7589:7606   */\n          add\n            /* \"--CODEGEN--\":7580:7586   */\n          dup11\n            /* \"--CODEGEN--\":7536:7607   */\n          jump(tag_134)\n        tag_175:\n            /* \"--CODEGEN--\":7618:7690   */\n          tag_176\n            /* \"--CODEGEN--\":7686:7688   */\n          0x20\n            /* \"--CODEGEN--\":7675:7684   */\n          dup4\n            /* \"--CODEGEN--\":7671:7689   */\n          add\n            /* \"--CODEGEN--\":7662:7668   */\n          dup10\n            /* \"--CODEGEN--\":7618:7690   */\n          jump(tag_113)\n        tag_176:\n            /* \"--CODEGEN--\":7701:7773   */\n          tag_177\n            /* \"--CODEGEN--\":7769:7771   */\n          0x40\n            /* \"--CODEGEN--\":7758:7767   */\n          dup4\n            /* \"--CODEGEN--\":7754:7772   */\n          add\n            /* \"--CODEGEN--\":7745:7751   */\n          dup9\n            /* \"--CODEGEN--\":7701:7773   */\n          jump(tag_113)\n        tag_177:\n            /* \"--CODEGEN--\":7784:7856   */\n          tag_178\n            /* \"--CODEGEN--\":7852:7854   */\n          0x60\n            /* \"--CODEGEN--\":7841:7850   */\n          dup4\n            /* \"--CODEGEN--\":7837:7855   */\n          add\n            /* \"--CODEGEN--\":7828:7834   */\n          dup8\n            /* \"--CODEGEN--\":7784:7856   */\n          jump(tag_134)\n        tag_178:\n            /* \"--CODEGEN--\":7905:7914   */\n          dup2\n            /* \"--CODEGEN--\":7899:7903   */\n          dup2\n            /* \"--CODEGEN--\":7895:7915   */\n          sub\n            /* \"--CODEGEN--\":7889:7892   */\n          0x80\n            /* \"--CODEGEN--\":7878:7887   */\n          dup4\n            /* \"--CODEGEN--\":7874:7893   */\n          add\n            /* \"--CODEGEN--\":7867:7916   */\n          mstore\n            /* \"--CODEGEN--\":7930:8008   */\n          tag_179\n            /* \"--CODEGEN--\":8003:8007   */\n          dup2\n            /* \"--CODEGEN--\":7994:8000   */\n          dup7\n            /* \"--CODEGEN--\":7930:8008   */\n          jump(tag_147)\n        tag_179:\n            /* \"--CODEGEN--\":7922:8008   */\n          swap1\n          pop\n            /* \"--CODEGEN--\":8057:8066   */\n          dup2\n            /* \"--CODEGEN--\":8051:8055   */\n          dup2\n            /* \"--CODEGEN--\":8047:8067   */\n          sub\n            /* \"--CODEGEN--\":8041:8044   */\n          0xa0\n            /* \"--CODEGEN--\":8030:8039   */\n          dup4\n            /* \"--CODEGEN--\":8026:8045   */\n          add\n            /* \"--CODEGEN--\":8019:8068   */\n          mstore\n            /* \"--CODEGEN--\":8082:8160   */\n          tag_180\n            /* \"--CODEGEN--\":8155:8159   */\n          dup2\n            /* \"--CODEGEN--\":8146:8152   */\n          dup6\n            /* \"--CODEGEN--\":8082:8160   */\n          jump(tag_147)\n        tag_180:\n            /* \"--CODEGEN--\":8074:8160   */\n          swap1\n          pop\n            /* \"--CODEGEN--\":8171:8244   */\n          tag_181\n            /* \"--CODEGEN--\":8239:8242   */\n          0xc0\n            /* \"--CODEGEN--\":8228:8237   */\n          dup4\n            /* \"--CODEGEN--\":8224:8243   */\n          add\n            /* \"--CODEGEN--\":8215:8221   */\n          dup5\n            /* \"--CODEGEN--\":8171:8244   */\n          jump(tag_169)\n        tag_181:\n            /* \"--CODEGEN--\":7492:8254   */\n          swap9\n          swap8\n          pop\n          pop\n          pop\n          pop\n          pop\n          pop\n          pop\n          pop\n          jump\n            /* \"--CODEGEN--\":8261:9320   */\n        tag_53:\n          0x00\n            /* \"--CODEGEN--\":8587:8590   */\n          0xe0\n            /* \"--CODEGEN--\":8576:8585   */\n          dup3\n            /* \"--CODEGEN--\":8572:8591   */\n          add\n            /* \"--CODEGEN--\":8564:8591   */\n          swap1\n          pop\n            /* \"--CODEGEN--\":8602:8673   */\n          tag_183\n            /* \"--CODEGEN--\":8670:8671   */\n          0x00\n            /* \"--CODEGEN--\":8659:8668   */\n          dup4\n            /* \"--CODEGEN--\":8655:8672   */\n          add\n            /* \"--CODEGEN--\":8646:8652   */\n          dup11\n            /* \"--CODEGEN--\":8602:8673   */\n          jump(tag_134)\n        tag_183:\n            /* \"--CODEGEN--\":8684:8756   */\n          tag_184\n            /* \"--CODEGEN--\":8752:8754   */\n          0x20\n            /* \"--CODEGEN--\":8741:8750   */\n          dup4\n            /* \"--CODEGEN--\":8737:8755   */\n          add\n            /* \"--CODEGEN--\":8728:8734   */\n          dup10\n            /* \"--CODEGEN--\":8684:8756   */\n          jump(tag_113)\n        tag_184:\n            /* \"--CODEGEN--\":8767:8839   */\n          tag_185\n            /* \"--CODEGEN--\":8835:8837   */\n          0x40\n            /* \"--CODEGEN--\":8824:8833   */\n          dup4\n            /* \"--CODEGEN--\":8820:8838   */\n          add\n            /* \"--CODEGEN--\":8811:8817   */\n          dup9\n            /* \"--CODEGEN--\":8767:8839   */\n          jump(tag_113)\n        tag_185:\n            /* \"--CODEGEN--\":8850:8922   */\n          tag_186\n            /* \"--CODEGEN--\":8918:8920   */\n          0x60\n            /* \"--CODEGEN--\":8907:8916   */\n          dup4\n            /* \"--CODEGEN--\":8903:8921   */\n          add\n            /* \"--CODEGEN--\":8894:8900   */\n          dup8\n            /* \"--CODEGEN--\":8850:8922   */\n          jump(tag_134)\n        tag_186:\n            /* \"--CODEGEN--\":8933:9006   */\n          tag_187\n            /* \"--CODEGEN--\":9001:9004   */\n          0x80\n            /* \"--CODEGEN--\":8990:8999   */\n          dup4\n            /* \"--CODEGEN--\":8986:9005   */\n          add\n            /* \"--CODEGEN--\":8977:8983   */\n          dup7\n            /* \"--CODEGEN--\":8933:9006   */\n          jump(tag_169)\n        tag_187:\n            /* \"--CODEGEN--\":9055:9064   */\n          dup2\n            /* \"--CODEGEN--\":9049:9053   */\n          dup2\n            /* \"--CODEGEN--\":9045:9065   */\n          sub\n            /* \"--CODEGEN--\":9039:9042   */\n          0xa0\n            /* \"--CODEGEN--\":9028:9037   */\n          dup4\n            /* \"--CODEGEN--\":9024:9043   */\n          add\n            /* \"--CODEGEN--\":9017:9066   */\n          mstore\n            /* \"--CODEGEN--\":9080:9158   */\n          tag_188\n            /* \"--CODEGEN--\":9153:9157   */\n          dup2\n            /* \"--CODEGEN--\":9144:9150   */\n          dup6\n            /* \"--CODEGEN--\":9080:9158   */\n          jump(tag_147)\n        tag_188:\n            /* \"--CODEGEN--\":9072:9158   */\n          swap1\n          pop\n            /* \"--CODEGEN--\":9207:9216   */\n          dup2\n            /* \"--CODEGEN--\":9201:9205   */\n          dup2\n            /* \"--CODEGEN--\":9197:9217   */\n          sub\n            /* \"--CODEGEN--\":9191:9194   */\n          0xc0\n            /* \"--CODEGEN--\":9180:9189   */\n          dup4\n            /* \"--CODEGEN--\":9176:9195   */\n          add\n            /* \"--CODEGEN--\":9169:9218   */\n          mstore\n            /* \"--CODEGEN--\":9232:9310   */\n          tag_189\n            /* \"--CODEGEN--\":9305:9309   */\n          dup2\n            /* \"--CODEGEN--\":9296:9302   */\n          dup5\n            /* \"--CODEGEN--\":9232:9310   */\n          jump(tag_147)\n        tag_189:\n            /* \"--CODEGEN--\":9224:9310   */\n          swap1\n          pop\n            /* \"--CODEGEN--\":8558:9320   */\n          swap9\n          swap8\n          pop\n          pop\n          pop\n          pop\n          pop\n          pop\n          pop\n          pop\n          jump\n            /* \"--CODEGEN--\":9327:9734   */\n        tag_49:\n          0x00\n            /* \"--CODEGEN--\":9518:9520   */\n          0x20\n            /* \"--CODEGEN--\":9507:9516   */\n          dup3\n            /* \"--CODEGEN--\":9503:9521   */\n          add\n            /* \"--CODEGEN--\":9495:9521   */\n          swap1\n          pop\n            /* \"--CODEGEN--\":9568:9577   */\n          dup2\n            /* \"--CODEGEN--\":9562:9566   */\n          dup2\n            /* \"--CODEGEN--\":9558:9578   */\n          sub\n            /* \"--CODEGEN--\":9554:9555   */\n          0x00\n            /* \"--CODEGEN--\":9543:9552   */\n          dup4\n            /* \"--CODEGEN--\":9539:9556   */\n          add\n            /* \"--CODEGEN--\":9532:9579   */\n          mstore\n            /* \"--CODEGEN--\":9593:9724   */\n          tag_191\n            /* \"--CODEGEN--\":9719:9723   */\n          dup2\n            /* \"--CODEGEN--\":9593:9724   */\n          jump(tag_154)\n        tag_191:\n            /* \"--CODEGEN--\":9585:9724   */\n          swap1\n          pop\n            /* \"--CODEGEN--\":9489:9734   */\n          swap2\n          swap1\n          pop\n          jump\n            /* \"--CODEGEN--\":9741:9954   */\n        tag_18:\n          0x00\n            /* \"--CODEGEN--\":9859:9861   */\n          0x20\n            /* \"--CODEGEN--\":9848:9857   */\n          dup3\n            /* \"--CODEGEN--\":9844:9862   */\n          add\n            /* \"--CODEGEN--\":9836:9862   */\n          swap1\n          pop\n            /* \"--CODEGEN--\":9873:9944   */\n          tag_193\n            /* \"--CODEGEN--\":9941:9942   */\n          0x00\n            /* \"--CODEGEN--\":9930:9939   */\n          dup4\n            /* \"--CODEGEN--\":9926:9943   */\n          add\n            /* \"--CODEGEN--\":9917:9923   */\n          dup5\n            /* \"--CODEGEN--\":9873:9944   */\n          jump(tag_169)\n        tag_193:\n            /* \"--CODEGEN--\":9830:9954   */\n          swap3\n          swap2\n          pop\n          pop\n          jump\n            /* \"--CODEGEN--\":9961:10217   */\n        tag_84:\n          0x00\n            /* \"--CODEGEN--\":10023:10025   */\n          0x40\n            /* \"--CODEGEN--\":10017:10026   */\n          mload\n            /* \"--CODEGEN--\":10007:10026   */\n          swap1\n          pop\n            /* \"--CODEGEN--\":10061:10065   */\n          dup2\n            /* \"--CODEGEN--\":10053:10059   */\n          dup2\n            /* \"--CODEGEN--\":10049:10066   */\n          add\n            /* \"--CODEGEN--\":10160:10166   */\n          dup2\n            /* \"--CODEGEN--\":10148:10158   */\n          dup2\n            /* \"--CODEGEN--\":10145:10167   */\n          lt\n            /* \"--CODEGEN--\":10124:10142   */\n          0xffffffffffffffff\n            /* \"--CODEGEN--\":10112:10122   */\n          dup3\n            /* \"--CODEGEN--\":10109:10143   */\n          gt\n            /* \"--CODEGEN--\":10106:10168   */\n          or\n            /* \"--CODEGEN--\":10103:10105   */\n          iszero\n          tag_195\n          jumpi\n            /* \"--CODEGEN--\":10181:10182   */\n          0x00\n            /* \"--CODEGEN--\":10178:10179   */\n          dup1\n            /* \"--CODEGEN--\":10171:10183   */\n          revert\n            /* \"--CODEGEN--\":10103:10105   */\n        tag_195:\n            /* \"--CODEGEN--\":10201:10211   */\n          dup1\n            /* \"--CODEGEN--\":10197:10199   */\n          0x40\n            /* \"--CODEGEN--\":10190:10212   */\n          mstore\n            /* \"--CODEGEN--\":10001:10217   */\n          pop\n          swap2\n          swap1\n          pop\n          jump\n            /* \"--CODEGEN--\":10224:10546   */\n        tag_83:\n          0x00\n            /* \"--CODEGEN--\":10368:10386   */\n          0xffffffffffffffff\n            /* \"--CODEGEN--\":10360:10366   */\n          dup3\n            /* \"--CODEGEN--\":10357:10387   */\n          gt\n            /* \"--CODEGEN--\":10354:10356   */\n          iszero\n          tag_197\n          jumpi\n            /* \"--CODEGEN--\":10400:10401   */\n          0x00\n            /* \"--CODEGEN--\":10397:10398   */\n          dup1\n            /* \"--CODEGEN--\":10390:10402   */\n          revert\n            /* \"--CODEGEN--\":10354:10356   */\n        tag_197:\n            /* \"--CODEGEN--\":10467:10471   */\n          0x1f\n            /* \"--CODEGEN--\":10463:10472   */\n          not\n            /* \"--CODEGEN--\":10456:10460   */\n          0x1f\n            /* \"--CODEGEN--\":10448:10454   */\n          dup4\n            /* \"--CODEGEN--\":10444:10461   */\n          add\n            /* \"--CODEGEN--\":10440:10473   */\n          and\n            /* \"--CODEGEN--\":10432:10473   */\n          swap1\n          pop\n            /* \"--CODEGEN--\":10531:10535   */\n          0x20\n            /* \"--CODEGEN--\":10525:10529   */\n          dup2\n            /* \"--CODEGEN--\":10521:10536   */\n          add\n            /* \"--CODEGEN--\":10513:10536   */\n          swap1\n          pop\n            /* \"--CODEGEN--\":10291:10546   */\n          swap2\n          swap1\n          pop\n          jump\n            /* \"--CODEGEN--\":10553:10725   */\n        tag_123:\n          0x00\n            /* \"--CODEGEN--\":10660:10663   */\n          dup2\n            /* \"--CODEGEN--\":10652:10663   */\n          swap1\n          pop\n            /* \"--CODEGEN--\":10698:10702   */\n          0x20\n            /* \"--CODEGEN--\":10693:10696   */\n          dup3\n            /* \"--CODEGEN--\":10689:10703   */\n          add\n            /* \"--CODEGEN--\":10681:10703   */\n          swap1\n          pop\n            /* \"--CODEGEN--\":10646:10725   */\n          swap2\n          swap1\n          pop\n          jump\n            /* \"--CODEGEN--\":10732:10890   */\n        tag_119:\n          0x00\n            /* \"--CODEGEN--\":10862:10867   */\n          dup2\n            /* \"--CODEGEN--\":10856:10868   */\n          mload\n            /* \"--CODEGEN--\":10846:10868   */\n          swap1\n          pop\n            /* \"--CODEGEN--\":10827:10890   */\n          swap2\n          swap1\n          pop\n          jump\n            /* \"--CODEGEN--\":10897:11019   */\n        tag_140:\n          0x00\n            /* \"--CODEGEN--\":10991:10996   */\n          dup2\n            /* \"--CODEGEN--\":10985:10997   */\n          mload\n            /* \"--CODEGEN--\":10975:10997   */\n          swap1\n          pop\n            /* \"--CODEGEN--\":10956:11019   */\n          swap2\n          swap1\n          pop\n          jump\n            /* \"--CODEGEN--\":11026:11155   */\n        tag_129:\n          0x00\n            /* \"--CODEGEN--\":11145:11149   */\n          0x20\n            /* \"--CODEGEN--\":11140:11143   */\n          dup3\n            /* \"--CODEGEN--\":11136:11150   */\n          add\n            /* \"--CODEGEN--\":11128:11150   */\n          swap1\n          pop\n            /* \"--CODEGEN--\":11122:11155   */\n          swap2\n          swap1\n          pop\n          jump\n            /* \"--CODEGEN--\":11163:11362   */\n        tag_121:\n          0x00\n            /* \"--CODEGEN--\":11314:11320   */\n          dup3\n            /* \"--CODEGEN--\":11309:11312   */\n          dup3\n            /* \"--CODEGEN--\":11302:11321   */\n          mstore\n            /* \"--CODEGEN--\":11351:11355   */\n          0x20\n            /* \"--CODEGEN--\":11346:11349   */\n          dup3\n            /* \"--CODEGEN--\":11342:11356   */\n          add\n            /* \"--CODEGEN--\":11327:11356   */\n          swap1\n          pop\n            /* \"--CODEGEN--\":11295:11362   */\n          swap3\n          swap2\n          pop\n          pop\n          jump\n            /* \"--CODEGEN--\":11371:11524   */\n        tag_142:\n          0x00\n            /* \"--CODEGEN--\":11476:11482   */\n          dup3\n            /* \"--CODEGEN--\":11471:11474   */\n          dup3\n            /* \"--CODEGEN--\":11464:11483   */\n          mstore\n            /* \"--CODEGEN--\":11513:11517   */\n          0x20\n            /* \"--CODEGEN--\":11508:11511   */\n          dup3\n            /* \"--CODEGEN--\":11504:11518   */\n          add\n            /* \"--CODEGEN--\":11489:11518   */\n          swap1\n          pop\n            /* \"--CODEGEN--\":11457:11524   */\n          swap3\n          swap2\n          pop\n          pop\n          jump\n            /* \"--CODEGEN--\":11533:11696   */\n        tag_151:\n          0x00\n            /* \"--CODEGEN--\":11648:11654   */\n          dup3\n            /* \"--CODEGEN--\":11643:11646   */\n          dup3\n            /* \"--CODEGEN--\":11636:11655   */\n          mstore\n            /* \"--CODEGEN--\":11685:11689   */\n          0x20\n            /* \"--CODEGEN--\":11680:11683   */\n          dup3\n            /* \"--CODEGEN--\":11676:11690   */\n          add\n            /* \"--CODEGEN--\":11661:11690   */\n          swap1\n          pop\n            /* \"--CODEGEN--\":11629:11696   */\n          swap3\n          swap2\n          pop\n          pop\n          jump\n            /* \"--CODEGEN--\":11704:11795   */\n        tag_112:\n          0x00\n            /* \"--CODEGEN--\":11766:11790   */\n          tag_206\n            /* \"--CODEGEN--\":11784:11789   */\n          dup3\n            /* \"--CODEGEN--\":11766:11790   */\n          jump(tag_207)\n        tag_206:\n            /* \"--CODEGEN--\":11755:11790   */\n          swap1\n          pop\n            /* \"--CODEGEN--\":11749:11795   */\n          swap2\n          swap1\n          pop\n          jump\n            /* \"--CODEGEN--\":11802:11874   */\n        tag_133:\n          0x00\n            /* \"--CODEGEN--\":11864:11869   */\n          dup2\n            /* \"--CODEGEN--\":11853:11869   */\n          swap1\n          pop\n            /* \"--CODEGEN--\":11847:11874   */\n          swap2\n          swap1\n          pop\n          jump\n            /* \"--CODEGEN--\":11881:12002   */\n        tag_207:\n          0x00\n            /* \"--CODEGEN--\":11954:11996   */\n          0xffffffffffffffffffffffffffffffffffffffff\n            /* \"--CODEGEN--\":11947:11952   */\n          dup3\n            /* \"--CODEGEN--\":11943:11997   */\n          and\n            /* \"--CODEGEN--\":11932:11997   */\n          swap1\n          pop\n            /* \"--CODEGEN--\":11926:12002   */\n          swap2\n          swap1\n          pop\n          jump\n            /* \"--CODEGEN--\":12009:12081   */\n        tag_168:\n          0x00\n            /* \"--CODEGEN--\":12071:12076   */\n          dup2\n            /* \"--CODEGEN--\":12060:12076   */\n          swap1\n          pop\n            /* \"--CODEGEN--\":12054:12081   */\n          swap2\n          swap1\n          pop\n          jump\n            /* \"--CODEGEN--\":12089:12234   */\n        tag_87:\n            /* \"--CODEGEN--\":12170:12176   */\n          dup3\n            /* \"--CODEGEN--\":12165:12168   */\n          dup2\n            /* \"--CODEGEN--\":12160:12163   */\n          dup4\n            /* \"--CODEGEN--\":12147:12177   */\n          calldatacopy\n            /* \"--CODEGEN--\":12226:12227   */\n          0x00\n            /* \"--CODEGEN--\":12217:12223   */\n          dup4\n            /* \"--CODEGEN--\":12212:12215   */\n          dup4\n            /* \"--CODEGEN--\":12208:12224   */\n          add\n            /* \"--CODEGEN--\":12201:12228   */\n          mstore\n            /* \"--CODEGEN--\":12140:12234   */\n          pop\n          pop\n          pop\n          jump\n            /* \"--CODEGEN--\":12243:12511   */\n        tag_144:\n            /* \"--CODEGEN--\":12308:12309   */\n          0x00\n            /* \"--CODEGEN--\":12315:12416   */\n        tag_213:\n            /* \"--CODEGEN--\":12329:12335   */\n          dup4\n            /* \"--CODEGEN--\":12326:12327   */\n          dup2\n            /* \"--CODEGEN--\":12323:12336   */\n          lt\n            /* \"--CODEGEN--\":12315:12416   */\n          iszero\n          tag_215\n          jumpi\n            /* \"--CODEGEN--\":12405:12406   */\n          dup1\n            /* \"--CODEGEN--\":12400:12403   */\n          dup3\n            /* \"--CODEGEN--\":12396:12407   */\n          add\n            /* \"--CODEGEN--\":12390:12408   */\n          mload\n            /* \"--CODEGEN--\":12386:12387   */\n          dup2\n            /* \"--CODEGEN--\":12381:12384   */\n          dup5\n            /* \"--CODEGEN--\":12377:12388   */\n          add\n            /* \"--CODEGEN--\":12370:12409   */\n          mstore\n            /* \"--CODEGEN--\":12351:12353   */\n          0x20\n            /* \"--CODEGEN--\":12348:12349   */\n          dup2\n            /* \"--CODEGEN--\":12344:12354   */\n          add\n            /* \"--CODEGEN--\":12339:12354   */\n          swap1\n          pop\n            /* \"--CODEGEN--\":12315:12416   */\n          jump(tag_213)\n        tag_215:\n            /* \"--CODEGEN--\":12431:12437   */\n          dup4\n            /* \"--CODEGEN--\":12428:12429   */\n          dup2\n            /* \"--CODEGEN--\":12425:12438   */\n          gt\n            /* \"--CODEGEN--\":12422:12424   */\n          iszero\n          tag_216\n          jumpi\n            /* \"--CODEGEN--\":12496:12497   */\n          0x00\n            /* \"--CODEGEN--\":12487:12493   */\n          dup5\n            /* \"--CODEGEN--\":12482:12485   */\n          dup5\n            /* \"--CODEGEN--\":12478:12494   */\n          add\n            /* \"--CODEGEN--\":12471:12498   */\n          mstore\n            /* \"--CODEGEN--\":12422:12424   */\n        tag_216:\n            /* \"--CODEGEN--\":12292:12511   */\n          pop\n          pop\n          pop\n          pop\n          jump\n            /* \"--CODEGEN--\":12519:12616   */\n        tag_146:\n          0x00\n            /* \"--CODEGEN--\":12607:12609   */\n          0x1f\n            /* \"--CODEGEN--\":12603:12610   */\n          not\n            /* \"--CODEGEN--\":12598:12600   */\n          0x1f\n            /* \"--CODEGEN--\":12591:12596   */\n          dup4\n            /* \"--CODEGEN--\":12587:12601   */\n          add\n            /* \"--CODEGEN--\":12583:12611   */\n          and\n            /* \"--CODEGEN--\":12573:12611   */\n          swap1\n          pop\n            /* \"--CODEGEN--\":12567:12616   */\n          swap2\n          swap1\n          pop\n          jump\n            /* \"--CODEGEN--\":12624:12741   */\n        tag_73:\n            /* \"--CODEGEN--\":12693:12717   */\n          tag_219\n            /* \"--CODEGEN--\":12711:12716   */\n          dup2\n            /* \"--CODEGEN--\":12693:12717   */\n          jump(tag_112)\n        tag_219:\n            /* \"--CODEGEN--\":12686:12691   */\n          dup2\n            /* \"--CODEGEN--\":12683:12718   */\n          eq\n            /* \"--CODEGEN--\":12673:12675   */\n          tag_220\n          jumpi\n            /* \"--CODEGEN--\":12732:12733   */\n          0x00\n            /* \"--CODEGEN--\":12729:12730   */\n          dup1\n            /* \"--CODEGEN--\":12722:12734   */\n          revert\n            /* \"--CODEGEN--\":12673:12675   */\n        tag_220:\n            /* \"--CODEGEN--\":12667:12741   */\n          pop\n          jump\n            /* \"--CODEGEN--\":12748:12865   */\n        tag_77:\n            /* \"--CODEGEN--\":12817:12841   */\n          tag_222\n            /* \"--CODEGEN--\":12835:12840   */\n          dup2\n            /* \"--CODEGEN--\":12817:12841   */\n          jump(tag_133)\n        tag_222:\n            /* \"--CODEGEN--\":12810:12815   */\n          dup2\n            /* \"--CODEGEN--\":12807:12842   */\n          eq\n            /* \"--CODEGEN--\":12797:12799   */\n          tag_223\n          jumpi\n            /* \"--CODEGEN--\":12856:12857   */\n          0x00\n            /* \"--CODEGEN--\":12853:12854   */\n          dup1\n            /* \"--CODEGEN--\":12846:12858   */\n          revert\n            /* \"--CODEGEN--\":12797:12799   */\n        tag_223:\n            /* \"--CODEGEN--\":12791:12865   */\n          pop\n          jump\n            /* \"--CODEGEN--\":12872:12989   */\n        tag_91:\n            /* \"--CODEGEN--\":12941:12965   */\n          tag_225\n            /* \"--CODEGEN--\":12959:12964   */\n          dup2\n            /* \"--CODEGEN--\":12941:12965   */\n          jump(tag_168)\n        tag_225:\n            /* \"--CODEGEN--\":12934:12939   */\n          dup2\n            /* \"--CODEGEN--\":12931:12966   */\n          eq\n            /* \"--CODEGEN--\":12921:12923   */\n          tag_226\n          jumpi\n            /* \"--CODEGEN--\":12980:12981   */\n          0x00\n            /* \"--CODEGEN--\":12977:12978   */\n          dup1\n            /* \"--CODEGEN--\":12970:12982   */\n          revert\n            /* \"--CODEGEN--\":12921:12923   */\n        tag_226:\n            /* \"--CODEGEN--\":12915:12989   */\n          pop\n          jump\n\n        auxdata: 0xa2646970667358221220a1a2effc0b89b73860c0457e3d76c0bf45cc1b5426fc8dfd03943ba5b861c82264736f6c63430006060033\n    }\n}\n",
				"bytecode": {
					"linkReferences": {},
					"object": "60806040523480156200001157600080fd5b5060405162002bbc38038062002bbc833981810160405260e08110156200003757600080fd5b810190808051906020019092919080519060200190929190805160405193929190846401000000008211156200006c57600080fd5b838201915060208201858111156200008357600080fd5b8251866020820283011164010000000082111715620000a157600080fd5b8083526020830192505050908051906020019060200280838360005b83811015620000da578082015181840152602081019050620000bd565b5050505090500160405260200180519060200190929190805160405193929190846401000000008211156200010e57600080fd5b838201915060208201858111156200012557600080fd5b82518660208202830111640100000000821117156200014357600080fd5b8083526020830192505050908051906020019060200280838360005b838110156200017c5780820151818401526020810190506200015f565b505050509050016040526020018051906020019092919080519060200190929190505050866000806101000a81548173ffffffffffffffffffffffffffffffffffffffff021916908373ffffffffffffffffffffffffffffffffffffffff16021790555086600460006101000a81548173ffffffffffffffffffffffffffffffffffffffff021916908373ffffffffffffffffffffffffffffffffffffffff16021790555085600181905550846002908051906020019062000240929190620003b5565b5083600881905550826003908051906020019062000260929190620003b5565b506001811415620002b25781600560006101000a81548173ffffffffffffffffffffffffffffffffffffffff021916908373ffffffffffffffffffffffffffffffffffffffff160217905550620002ff565b6002811415620002fe5781600660006101000a81548173ffffffffffffffffffffffffffffffffffffffff021916908373ffffffffffffffffffffffffffffffffffffffff1602179055505b5b600087604051620003109062000444565b808273ffffffffffffffffffffffffffffffffffffffff1673ffffffffffffffffffffffffffffffffffffffff168152602001915050604051809103906000f08015801562000363573d6000803e3d6000fd5b50905080600960016101000a81548173ffffffffffffffffffffffffffffffffffffffff021916908373ffffffffffffffffffffffffffffffffffffffff160217905550505050505050505062000498565b82805482825590600052602060002090810192821562000431579160200282015b82811115620004305782518260006101000a81548173ffffffffffffffffffffffffffffffffffffffff021916908373ffffffffffffffffffffffffffffffffffffffff16021790555091602001919060010190620003d6565b5b50905062000440919062000452565b5090565b6111e880620019d483390190565b6200049591905b808211156200049157600081816101000a81549073ffffffffffffffffffffffffffffffffffffffff02191690555060010162000459565b5090565b90565b61152c80620004a86000396000f3fe608060405234801561001057600080fd5b506004361061009e5760003560e01c8063ac42a41511610066578063ac42a4151461022d578063c8f5f18914610271578063d2f3fcc7146102b5578063e002c8a5146102d3578063f5c0e383146104215761009e565b80631fedd36c146100a35780632f1d7588146100fb57806393a668b71461015f578063aab3a9d6146101a3578063abb428a6146101e7575b600080fd5b6100e5600480360360208110156100b957600080fd5b81019080803573ffffffffffffffffffffffffffffffffffffffff169060200190929190505050610485565b6040518082815260200191505060405180910390f35b61015d6004803603604081101561011157600080fd5b81019080803573ffffffffffffffffffffffffffffffffffffffff169060200190929190803573ffffffffffffffffffffffffffffffffffffffff16906020019092919050505061097e565b005b6101a16004803603602081101561017557600080fd5b81019080803573ffffffffffffffffffffffffffffffffffffffff169060200190929190505050610a98565b005b6101e5600480360360208110156101b957600080fd5b81019080803573ffffffffffffffffffffffffffffffffffffffff169060200190929190505050610b70565b005b6101ef610bd6565b6040518082600360200280838360005b8381101561021a5780820151818401526020810190506101ff565b5050505090500191505060405180910390f35b61026f6004803603602081101561024357600080fd5b81019080803573ffffffffffffffffffffffffffffffffffffffff169060200190929190505050610ce8565b005b6102b36004803603602081101561028757600080fd5b81019080803573ffffffffffffffffffffffffffffffffffffffff16906020019092919050505061105d565b005b6102bd611151565b6040518082815260200191505060405180910390f35b6102db611173565b604051808873ffffffffffffffffffffffffffffffffffffffff1673ffffffffffffffffffffffffffffffffffffffff16815260200187815260200180602001868152602001806020018573ffffffffffffffffffffffffffffffffffffffff1673ffffffffffffffffffffffffffffffffffffffff1681526020018473ffffffffffffffffffffffffffffffffffffffff1673ffffffffffffffffffffffffffffffffffffffff168152602001838103835288818151815260200191508051906020019060200280838360005b838110156103c45780820151818401526020810190506103a9565b50505050905001838103825286818151815260200191508051906020019060200280838360005b838110156104065780820151818401526020810190506103eb565b50505050905001995050505050505050505060405180910390f35b6104836004803603604081101561043757600080fd5b81019080803573ffffffffffffffffffffffffffffffffffffffff169060200190929190803573ffffffffffffffffffffffffffffffffffffffff169060200190929190505050611319565b005b6000600560009054906101000a900473ffffffffffffffffffffffffffffffffffffffff1673ffffffffffffffffffffffffffffffffffffffff168273ffffffffffffffffffffffffffffffffffffffff1614806105305750600660009054906101000a900473ffffffffffffffffffffffffffffffffffffffff1673ffffffffffffffffffffffffffffffffffffffff168273ffffffffffffffffffffffffffffffffffffffff16145b610585576040517f08c379a00000000000000000000000000000000000000000000000000000000081526004018080602001828103825260358152602001806114566035913960400191505060405180910390fd5b6001600960009054906101000a900460ff1660068111156105a257fe5b1015610616576040517f08c379a00000000000000000000000000000000000000000000000000000000081526004018080602001828103825260198152602001807f50726f64756374206e6f74207069636b6564207570207965740000000000000081525060200191505060405180910390fd5b600560009054906101000a900473ffffffffffffffffffffffffffffffffffffffff1673ffffffffffffffffffffffffffffffffffffffff168273ffffffffffffffffffffffffffffffffffffffff161480156106a357506001600681111561067b57fe5b600681111561068657fe5b600960009054906101000a900460ff1660068111156106a157fe5b145b156107c757600360068111156106b557fe5b600960006101000a81548160ff021916908360068111156106d257fe5b0217905550600560009054906101000a900473ffffffffffffffffffffffffffffffffffffffff1673ffffffffffffffffffffffffffffffffffffffff1660036001600380549050038154811061072557fe5b9060005260206000200160009054906101000a900473ffffffffffffffffffffffffffffffffffffffff1673ffffffffffffffffffffffffffffffffffffffff163073ffffffffffffffffffffffffffffffffffffffff167f7e89c4b1a4e2b51aae84eb1f90e8a34cb792ece5ac5cb63db4830c891220b28d60026003604051808381526020018281526020019250505060405180910390a460019050610979565b600660009054906101000a900473ffffffffffffffffffffffffffffffffffffffff1673ffffffffffffffffffffffffffffffffffffffff168273ffffffffffffffffffffffffffffffffffffffff1614801561085457506002600681111561082c57fe5b600681111561083757fe5b600960009054906101000a900460ff16600681111561085257fe5b145b15610978576004600681111561086657fe5b600960006101000a81548160ff0219169083600681111561088357fe5b0217905550600660009054906101000a900473ffffffffffffffffffffffffffffffffffffffff1673ffffffffffffffffffffffffffffffffffffffff166003600160038054905003815481106108d657fe5b9060005260206000200160009054906101000a900473ffffffffffffffffffffffffffffffffffffffff1673ffffffffffffffffffffffffffffffffffffffff163073ffffffffffffffffffffffffffffffffffffffff167f7e89c4b1a4e2b51aae84eb1f90e8a34cb792ece5ac5cb63db4830c891220b28d60036004604051808381526020018281526020019250505060405180910390a460029050610979565b5b919050565b8073ffffffffffffffffffffffffffffffffffffffff16600660009054906101000a900473ffffffffffffffffffffffffffffffffffffffff1673ffffffffffffffffffffffffffffffffffffffff1614610a24576040517f08c379a00000000000000000000000000000000000000000000000000000000081526004018080602001828103825260238152602001806114ad6023913960400191505060405180910390fd5b81600760006101000a81548173ffffffffffffffffffffffffffffffffffffffff021916908373ffffffffffffffffffffffffffffffffffffffff16021790555060056006811115610a7257fe5b600960006101000a81548160ff02191690836006811115610a8f57fe5b02179055505050565b8073ffffffffffffffffffffffffffffffffffffffff16600660009054906101000a900473ffffffffffffffffffffffffffffffffffffffff1673ffffffffffffffffffffffffffffffffffffffff1614610b3e576040517f08c379a00000000000000000000000000000000000000000000000000000000081526004018080602001828103825260238152602001806114ad6023913960400191505060405180910390fd5b60046006811115610b4b57fe5b600960006101000a81548160ff02191690836006811115610b6857fe5b021790555050565b6003819080600181540180825580915050600190039060005260206000200160009091909190916101000a81548173ffffffffffffffffffffffffffffffffffffffff021916908373ffffffffffffffffffffffffffffffffffffffff16021790555050565b610bde611433565b6040518060600160405280600560009054906101000a900473ffffffffffffffffffffffffffffffffffffffff1673ffffffffffffffffffffffffffffffffffffffff1673ffffffffffffffffffffffffffffffffffffffff168152602001600660009054906101000a900473ffffffffffffffffffffffffffffffffffffffff1673ffffffffffffffffffffffffffffffffffffffff1673ffffffffffffffffffffffffffffffffffffffff168152602001600760009054906101000a900473ffffffffffffffffffffffffffffffffffffffff1673ffffffffffffffffffffffffffffffffffffffff1673ffffffffffffffffffffffffffffffffffffffff16815250905090565b600360016003805490500381548110610cfd57fe5b9060005260206000200160009054906101000a900473ffffffffffffffffffffffffffffffffffffffff1673ffffffffffffffffffffffffffffffffffffffff168173ffffffffffffffffffffffffffffffffffffffff1614610dab576040517f08c379a00000000000000000000000000000000000000000000000000000000081526004018080602001828103825260278152602001806114d06027913960400191505060405180910390fd5b60006006811115610db857fe5b6006811115610dc357fe5b600960009054906101000a900460ff166006811115610dde57fe5b14610e51576040517f08c379a00000000000000000000000000000000000000000000000000000000081526004018080602001828103825260208152602001807f5061636b616765206d757374206265206174204d616e7566616374757265722e81525060200191505060405180910390fd5b600073ffffffffffffffffffffffffffffffffffffffff16600560009054906101000a900473ffffffffffffffffffffffffffffffffffffffff1673ffffffffffffffffffffffffffffffffffffffff1614610f825760016006811115610eb457fe5b600960006101000a81548160ff02191690836006811115610ed157fe5b0217905550600560009054906101000a900473ffffffffffffffffffffffffffffffffffffffff1673ffffffffffffffffffffffffffffffffffffffff168173ffffffffffffffffffffffffffffffffffffffff163073ffffffffffffffffffffffffffffffffffffffff167f7e89c4b1a4e2b51aae84eb1f90e8a34cb792ece5ac5cb63db4830c891220b28d600180604051808381526020018281526020019250505060405180910390a461105a565b60026006811115610f8f57fe5b600960006101000a81548160ff02191690836006811115610fac57fe5b0217905550600660009054906101000a900473ffffffffffffffffffffffffffffffffffffffff1673ffffffffffffffffffffffffffffffffffffffff168173ffffffffffffffffffffffffffffffffffffffff163073ffffffffffffffffffffffffffffffffffffffff167f7e89c4b1a4e2b51aae84eb1f90e8a34cb792ece5ac5cb63db4830c891220b28d60016002604051808381526020018281526020019250505060405180910390a45b50565b8073ffffffffffffffffffffffffffffffffffffffff16600760009054906101000a900473ffffffffffffffffffffffffffffffffffffffff1673ffffffffffffffffffffffffffffffffffffffff1614611120576040517f08c379a00000000000000000000000000000000000000000000000000000000081526004018080602001828103825260208152602001807f5468697320437573746f6d6572206973206e6f74204173736f6369617465642e81525060200191505060405180910390fd5b60068081111561112c57fe5b600960006101000a81548160ff0219169083600681111561114957fe5b021790555050565b6000600960009054906101000a900460ff16600681111561116e57fe5b905090565b600080606060006060600080600460009054906101000a900473ffffffffffffffffffffffffffffffffffffffff1660015460026008546003600660009054906101000a900473ffffffffffffffffffffffffffffffffffffffff16600760009054906101000a900473ffffffffffffffffffffffffffffffffffffffff168480548060200260200160405190810160405280929190818152602001828054801561127357602002820191906000526020600020905b8160009054906101000a900473ffffffffffffffffffffffffffffffffffffffff1673ffffffffffffffffffffffffffffffffffffffff1681526020019060010190808311611229575b50505050509450828054806020026020016040519081016040528092919081815260200182805480156112fb57602002820191906000526020600020905b8160009054906101000a900473ffffffffffffffffffffffffffffffffffffffff1673ffffffffffffffffffffffffffffffffffffffff16815260200190600101908083116112b1575b50505050509250965096509650965096509650965090919293949596565b8073ffffffffffffffffffffffffffffffffffffffff16600560009054906101000a900473ffffffffffffffffffffffffffffffffffffffff1673ffffffffffffffffffffffffffffffffffffffff16146113bf576040517f08c379a000000000000000000000000000000000000000000000000000000000815260040180806020018281038252602281526020018061148b6022913960400191505060405180910390fd5b81600660006101000a81548173ffffffffffffffffffffffffffffffffffffffff021916908373ffffffffffffffffffffffffffffffffffffffff1602179055506002600681111561140d57fe5b600960006101000a81548160ff0219169083600681111561142a57fe5b02179055505050565b604051806060016040528060039060208202803683378082019150509050509056fe4f6e6c792057686f6c6573616c6572206f72204469737472696275746f722063616e2063616c6c20746869732066756e6374696f6e746869732057686f6c6573616c6572206973206e6f74204173736f6369617465642e54686973204469737472696275746f72206973206e6f74204173736f6369617465642e4f6e6c79205472616e73706f727465722063616e2063616c6c20746869732066756e6374696f6ea2646970667358221220d635ee7d5106940e3955bb418af00b36cce23f65d8cde1861e0669139472db5c64736f6c634300060600336080604052600060025534801561001557600080fd5b50604051620011e8380380620011e883398181016040528101906100399190610094565b806000806101000a81548173ffffffffffffffffffffffffffffffffffffffff021916908373ffffffffffffffffffffffffffffffffffffffff16021790555050610106565b60008151905061008e816100ef565b92915050565b6000602082840312156100a657600080fd5b60006100b48482850161007f565b91505092915050565b60006100c8826100cf565b9050919050565b600073ffffffffffffffffffffffffffffffffffffffff82169050919050565b6100f8816100bd565b811461010357600080fd5b50565b6110d280620001166000396000f3fe608060405234801561001057600080fd5b506004361061004c5760003560e01c806327506f53146100515780633626a3681461006f57806378ce13651461008b5780639ace38c2146100a9575b600080fd5b6100596100df565b6040516100669190610da8565b60405180910390f35b61008960048036038101906100849190610a8e565b6103a5565b005b61009361072f565b6040516100a09190610ee4565b60405180910390f35b6100c360048036038101906100be9190610b47565b610735565b6040516100d69796959493929190610dca565b60405180910390f35b60606000600254905060608167ffffffffffffffff8111801561010157600080fd5b5060405190808252806020026020018201604052801561013b57816020015b6101286108e7565b8152602001906001900390816101205790505b50905060008090505b8281101561039c57600160008281526020019081526020016000206040518060e0016040529081600082015481526020016001820160009054906101000a900473ffffffffffffffffffffffffffffffffffffffff1673ffffffffffffffffffffffffffffffffffffffff1673ffffffffffffffffffffffffffffffffffffffff1681526020016002820160009054906101000a900473ffffffffffffffffffffffffffffffffffffffff1673ffffffffffffffffffffffffffffffffffffffff1673ffffffffffffffffffffffffffffffffffffffff16815260200160038201548152602001600482018054600181600116156101000203166002900480601f0160208091040260200160405190810160405280929190818152602001828054600181600116156101000203166002900480156102c35780601f10610298576101008083540402835291602001916102c3565b820191906000526020600020905b8154815290600101906020018083116102a657829003601f168201915b50505050508152602001600582018054600181600116156101000203166002900480601f0160208091040260200160405190810160405280929190818152602001828054600181600116156101000203166002900480156103655780601f1061033a57610100808354040283529160200191610365565b820191906000526020600020905b81548152906001019060200180831161034857829003601f168201915b5050505050815260200160068201548152505082828151811061038457fe5b60200260200101819052508080600101915050610144565b50809250505090565b600042905060006002541415610517576040518060e001604052808881526020018773ffffffffffffffffffffffffffffffffffffffff1681526020018673ffffffffffffffffffffffffffffffffffffffff168152602001858152602001848152602001838152602001828152506001600060025481526020019081526020016000206000820151816000015560208201518160010160006101000a81548173ffffffffffffffffffffffffffffffffffffffff021916908373ffffffffffffffffffffffffffffffffffffffff16021790555060408201518160020160006101000a81548173ffffffffffffffffffffffffffffffffffffffff021916908373ffffffffffffffffffffffffffffffffffffffff1602179055506060820151816003015560808201518160040190805190602001906104e7929190610956565b5060a0820151816005019080519060200190610504929190610956565b5060c082015181600601559050506106d2565b836001600060016002540381526020019081526020016000206000015414610574576040517f08c379a000000000000000000000000000000000000000000000000000000000815260040161056b90610ec4565b60405180910390fd5b6040518060e001604052808881526020018773ffffffffffffffffffffffffffffffffffffffff1681526020018673ffffffffffffffffffffffffffffffffffffffff168152602001858152602001848152602001838152602001828152506001600060025481526020019081526020016000206000820151816000015560208201518160010160006101000a81548173ffffffffffffffffffffffffffffffffffffffff021916908373ffffffffffffffffffffffffffffffffffffffff16021790555060408201518160020160006101000a81548173ffffffffffffffffffffffffffffffffffffffff021916908373ffffffffffffffffffffffffffffffffffffffff1602179055506060820151816003015560808201518160040190805190602001906106a6929190610956565b5060a08201518160050190805190602001906106c3929190610956565b5060c082015181600601559050505b60016002600082825401925050819055507f30d01d358fb0899fe4d50947b2e9301c952d9eed09b14c7ecdcbeed4434557c48787878785888860405161071e9796959493929190610e47565b60405180910390a150505050505050565b60025481565b60016020528060005260406000206000915090508060000154908060010160009054906101000a900473ffffffffffffffffffffffffffffffffffffffff16908060020160009054906101000a900473ffffffffffffffffffffffffffffffffffffffff1690806003015490806004018054600181600116156101000203166002900480601f0160208091040260200160405190810160405280929190818152602001828054600181600116156101000203166002900480156108395780601f1061080e57610100808354040283529160200191610839565b820191906000526020600020905b81548152906001019060200180831161081c57829003601f168201915b505050505090806005018054600181600116156101000203166002900480601f0160208091040260200160405190810160405280929190818152602001828054600181600116156101000203166002900480156108d75780601f106108ac576101008083540402835291602001916108d7565b820191906000526020600020905b8154815290600101906020018083116108ba57829003601f168201915b5050505050908060060154905087565b6040518060e0016040528060008019168152602001600073ffffffffffffffffffffffffffffffffffffffff168152602001600073ffffffffffffffffffffffffffffffffffffffff168152602001600080191681526020016060815260200160608152602001600081525090565b828054600181600116156101000203166002900490600052602060002090601f016020900481019282601f1061099757805160ff19168380011785556109c5565b828001600101855582156109c5579182015b828111156109c45782518255916020019190600101906109a9565b5b5090506109d291906109d6565b5090565b6109f891905b808211156109f45760008160009055506001016109dc565b5090565b90565b600081359050610a0a81611057565b92915050565b600081359050610a1f8161106e565b92915050565b600082601f830112610a3657600080fd5b8135610a49610a4482610f2c565b610eff565b91508082526020830160208301858383011115610a6557600080fd5b610a70838284611004565b50505092915050565b600081359050610a8881611085565b92915050565b60008060008060008060c08789031215610aa757600080fd5b6000610ab589828a01610a10565b9650506020610ac689828a016109fb565b9550506040610ad789828a016109fb565b9450506060610ae889828a01610a10565b935050608087013567ffffffffffffffff811115610b0557600080fd5b610b1189828a01610a25565b92505060a087013567ffffffffffffffff811115610b2e57600080fd5b610b3a89828a01610a25565b9150509295509295509295565b600060208284031215610b5957600080fd5b6000610b6784828501610a79565b91505092915050565b6000610b7c8383610ce7565b905092915050565b610b8d81610fbe565b82525050565b610b9c81610fbe565b82525050565b6000610bad82610f68565b610bb78185610f8b565b935083602082028501610bc985610f58565b8060005b85811015610c055784840389528151610be68582610b70565b9450610bf183610f7e565b925060208a01995050600181019050610bcd565b50829750879550505050505092915050565b610c2081610fd0565b82525050565b610c2f81610fd0565b82525050565b6000610c4082610f73565b610c4a8185610f9c565b9350610c5a818560208601611013565b610c6381611046565b840191505092915050565b6000610c7982610f73565b610c838185610fad565b9350610c93818560208601611013565b610c9c81611046565b840191505092915050565b6000610cb4601b83610fad565b91507f5472616e73616374696f6e206572726f72206f636375727265642100000000006000830152602082019050919050565b600060e083016000830151610cff6000860182610c17565b506020830151610d126020860182610b84565b506040830151610d256040860182610b84565b506060830151610d386060860182610c17565b5060808301518482036080860152610d508282610c35565b91505060a083015184820360a0860152610d6a8282610c35565b91505060c0830151610d7f60c0860182610d8a565b508091505092915050565b610d9381610ffa565b82525050565b610da281610ffa565b82525050565b60006020820190508181036000830152610dc28184610ba2565b905092915050565b600060e082019050610ddf600083018a610c26565b610dec6020830189610b93565b610df96040830188610b93565b610e066060830187610c26565b8181036080830152610e188186610c6e565b905081810360a0830152610e2c8185610c6e565b9050610e3b60c0830184610d99565b98975050505050505050565b600060e082019050610e5c600083018a610c26565b610e696020830189610b93565b610e766040830188610b93565b610e836060830187610c26565b610e906080830186610d99565b81810360a0830152610ea28185610c6e565b905081810360c0830152610eb68184610c6e565b905098975050505050505050565b60006020820190508181036000830152610edd81610ca7565b9050919050565b6000602082019050610ef96000830184610d99565b92915050565b6000604051905081810181811067ffffffffffffffff82111715610f2257600080fd5b8060405250919050565b600067ffffffffffffffff821115610f4357600080fd5b601f19601f8301169050602081019050919050565b6000819050602082019050919050565b600081519050919050565b600081519050919050565b6000602082019050919050565b600082825260208201905092915050565b600082825260208201905092915050565b600082825260208201905092915050565b6000610fc982610fda565b9050919050565b6000819050919050565b600073ffffffffffffffffffffffffffffffffffffffff82169050919050565b6000819050919050565b82818337600083830152505050565b60005b83811015611031578082015181840152602081019050611016565b83811115611040576000848401525b50505050565b6000601f19601f8301169050919050565b61106081610fbe565b811461106b57600080fd5b50565b61107781610fd0565b811461108257600080fd5b50565b61108e81610ffa565b811461109957600080fd5b5056fea2646970667358221220a1a2effc0b89b73860c0457e3d76c0bf45cc1b5426fc8dfd03943ba5b861c82264736f6c63430006060033",
					"opcodes": "PUSH1 0x80 PUSH1 0x40 MSTORE CALLVALUE DUP1 ISZERO PUSH3 0x11 JUMPI PUSH1 0x0 DUP1 REVERT JUMPDEST POP PUSH1 0x40 MLOAD PUSH3 0x2BBC CODESIZE SUB DUP1 PUSH3 0x2BBC DUP4 CODECOPY DUP2 DUP2 ADD PUSH1 0x40 MSTORE PUSH1 0xE0 DUP2 LT ISZERO PUSH3 0x37 JUMPI PUSH1 0x0 DUP1 REVERT JUMPDEST DUP2 ADD SWAP1 DUP1 DUP1 MLOAD SWAP1 PUSH1 0x20 ADD SWAP1 SWAP3 SWAP2 SWAP1 DUP1 MLOAD SWAP1 PUSH1 0x20 ADD SWAP1 SWAP3 SWAP2 SWAP1 DUP1 MLOAD PUSH1 0x40 MLOAD SWAP4 SWAP3 SWAP2 SWAP1 DUP5 PUSH5 0x100000000 DUP3 GT ISZERO PUSH3 0x6C JUMPI PUSH1 0x0 DUP1 REVERT JUMPDEST DUP4 DUP3 ADD SWAP2 POP PUSH1 0x20 DUP3 ADD DUP6 DUP2 GT ISZERO PUSH3 0x83 JUMPI PUSH1 0x0 DUP1 REVERT JUMPDEST DUP3 MLOAD DUP7 PUSH1 0x20 DUP3 MUL DUP4 ADD GT PUSH5 0x100000000 DUP3 GT OR ISZERO PUSH3 0xA1 JUMPI PUSH1 0x0 DUP1 REVERT JUMPDEST DUP1 DUP4 MSTORE PUSH1 0x20 DUP4 ADD SWAP3 POP POP POP SWAP1 DUP1 MLOAD SWAP1 PUSH1 0x20 ADD SWAP1 PUSH1 0x20 MUL DUP1 DUP4 DUP4 PUSH1 0x0 JUMPDEST DUP4 DUP2 LT ISZERO PUSH3 0xDA JUMPI DUP1 DUP3 ADD MLOAD DUP2 DUP5 ADD MSTORE PUSH1 0x20 DUP2 ADD SWAP1 POP PUSH3 0xBD JUMP JUMPDEST POP POP POP POP SWAP1 POP ADD PUSH1 0x40 MSTORE PUSH1 0x20 ADD DUP1 MLOAD SWAP1 PUSH1 0x20 ADD SWAP1 SWAP3 SWAP2 SWAP1 DUP1 MLOAD PUSH1 0x40 MLOAD SWAP4 SWAP3 SWAP2 SWAP1 DUP5 PUSH5 0x100000000 DUP3 GT ISZERO PUSH3 0x10E JUMPI PUSH1 0x0 DUP1 REVERT JUMPDEST DUP4 DUP3 ADD SWAP2 POP PUSH1 0x20 DUP3 ADD DUP6 DUP2 GT ISZERO PUSH3 0x125 JUMPI PUSH1 0x0 DUP1 REVERT JUMPDEST DUP3 MLOAD DUP7 PUSH1 0x20 DUP3 MUL DUP4 ADD GT PUSH5 0x100000000 DUP3 GT OR ISZERO PUSH3 0x143 JUMPI PUSH1 0x0 DUP1 REVERT JUMPDEST DUP1 DUP4 MSTORE PUSH1 0x20 DUP4 ADD SWAP3 POP POP POP SWAP1 DUP1 MLOAD SWAP1 PUSH1 0x20 ADD SWAP1 PUSH1 0x20 MUL DUP1 DUP4 DUP4 PUSH1 0x0 JUMPDEST DUP4 DUP2 LT ISZERO PUSH3 0x17C JUMPI DUP1 DUP3 ADD MLOAD DUP2 DUP5 ADD MSTORE PUSH1 0x20 DUP2 ADD SWAP1 POP PUSH3 0x15F JUMP JUMPDEST POP POP POP POP SWAP1 POP ADD PUSH1 0x40 MSTORE PUSH1 0x20 ADD DUP1 MLOAD SWAP1 PUSH1 0x20 ADD SWAP1 SWAP3 SWAP2 SWAP1 DUP1 MLOAD SWAP1 PUSH1 0x20 ADD SWAP1 SWAP3 SWAP2 SWAP1 POP POP POP DUP7 PUSH1 0x0 DUP1 PUSH2 0x100 EXP DUP2 SLOAD DUP2 PUSH20 0xFFFFFFFFFFFFFFFFFFFFFFFFFFFFFFFFFFFFFFFF MUL NOT AND SWAP1 DUP4 PUSH20 0xFFFFFFFFFFFFFFFFFFFFFFFFFFFFFFFFFFFFFFFF AND MUL OR SWAP1 SSTORE POP DUP7 PUSH1 0x4 PUSH1 0x0 PUSH2 0x100 EXP DUP2 SLOAD DUP2 PUSH20 0xFFFFFFFFFFFFFFFFFFFFFFFFFFFFFFFFFFFFFFFF MUL NOT AND SWAP1 DUP4 PUSH20 0xFFFFFFFFFFFFFFFFFFFFFFFFFFFFFFFFFFFFFFFF AND MUL OR SWAP1 SSTORE POP DUP6 PUSH1 0x1 DUP2 SWAP1 SSTORE POP DUP5 PUSH1 0x2 SWAP1 DUP1 MLOAD SWAP1 PUSH1 0x20 ADD SWAP1 PUSH3 0x240 SWAP3 SWAP2 SWAP1 PUSH3 0x3B5 JUMP JUMPDEST POP DUP4 PUSH1 0x8 DUP2 SWAP1 SSTORE POP DUP3 PUSH1 0x3 SWAP1 DUP1 MLOAD SWAP1 PUSH1 0x20 ADD SWAP1 PUSH3 0x260 SWAP3 SWAP2 SWAP1 PUSH3 0x3B5 JUMP JUMPDEST POP PUSH1 0x1 DUP2 EQ ISZERO PUSH3 0x2B2 JUMPI DUP2 PUSH1 0x5 PUSH1 0x0 PUSH2 0x100 EXP DUP2 SLOAD DUP2 PUSH20 0xFFFFFFFFFFFFFFFFFFFFFFFFFFFFFFFFFFFFFFFF MUL NOT AND SWAP1 DUP4 PUSH20 0xFFFFFFFFFFFFFFFFFFFFFFFFFFFFFFFFFFFFFFFF AND MUL OR SWAP1 SSTORE POP PUSH3 0x2FF JUMP JUMPDEST PUSH1 0x2 DUP2 EQ ISZERO PUSH3 0x2FE JUMPI DUP2 PUSH1 0x6 PUSH1 0x0 PUSH2 0x100 EXP DUP2 SLOAD DUP2 PUSH20 0xFFFFFFFFFFFFFFFFFFFFFFFFFFFFFFFFFFFFFFFF MUL NOT AND SWAP1 DUP4 PUSH20 0xFFFFFFFFFFFFFFFFFFFFFFFFFFFFFFFFFFFFFFFF AND MUL OR SWAP1 SSTORE POP JUMPDEST JUMPDEST PUSH1 0x0 DUP8 PUSH1 0x40 MLOAD PUSH3 0x310 SWAP1 PUSH3 0x444 JUMP JUMPDEST DUP1 DUP3 PUSH20 0xFFFFFFFFFFFFFFFFFFFFFFFFFFFFFFFFFFFFFFFF AND PUSH20 0xFFFFFFFFFFFFFFFFFFFFFFFFFFFFFFFFFFFFFFFF AND DUP2 MSTORE PUSH1 0x20 ADD SWAP2 POP POP PUSH1 0x40 MLOAD DUP1 SWAP2 SUB SWAP1 PUSH1 0x0 CREATE DUP1 ISZERO DUP1 ISZERO PUSH3 0x363 JUMPI RETURNDATASIZE PUSH1 0x0 DUP1 RETURNDATACOPY RETURNDATASIZE PUSH1 0x0 REVERT JUMPDEST POP SWAP1 POP DUP1 PUSH1 0x9 PUSH1 0x1 PUSH2 0x100 EXP DUP2 SLOAD DUP2 PUSH20 0xFFFFFFFFFFFFFFFFFFFFFFFFFFFFFFFFFFFFFFFF MUL NOT AND SWAP1 DUP4 PUSH20 0xFFFFFFFFFFFFFFFFFFFFFFFFFFFFFFFFFFFFFFFF AND MUL OR SWAP1 SSTORE POP POP POP POP POP POP POP POP POP PUSH3 0x498 JUMP JUMPDEST DUP3 DUP1 SLOAD DUP3 DUP3 SSTORE SWAP1 PUSH1 0x0 MSTORE PUSH1 0x20 PUSH1 0x0 KECCAK256 SWAP1 DUP2 ADD SWAP3 DUP3 ISZERO PUSH3 0x431 JUMPI SWAP2 PUSH1 0x20 MUL DUP3 ADD JUMPDEST DUP3 DUP2 GT ISZERO PUSH3 0x430 JUMPI DUP3 MLOAD DUP3 PUSH1 0x0 PUSH2 0x100 EXP DUP2 SLOAD DUP2 PUSH20 0xFFFFFFFFFFFFFFFFFFFFFFFFFFFFFFFFFFFFFFFF MUL NOT AND SWAP1 DUP4 PUSH20 0xFFFFFFFFFFFFFFFFFFFFFFFFFFFFFFFFFFFFFFFF AND MUL OR SWAP1 SSTORE POP SWAP2 PUSH1 0x20 ADD SWAP2 SWAP1 PUSH1 0x1 ADD SWAP1 PUSH3 0x3D6 JUMP JUMPDEST JUMPDEST POP SWAP1 POP PUSH3 0x440 SWAP2 SWAP1 PUSH3 0x452 JUMP JUMPDEST POP SWAP1 JUMP JUMPDEST PUSH2 0x11E8 DUP1 PUSH3 0x19D4 DUP4 CODECOPY ADD SWAP1 JUMP JUMPDEST PUSH3 0x495 SWAP2 SWAP1 JUMPDEST DUP1 DUP3 GT ISZERO PUSH3 0x491 JUMPI PUSH1 0x0 DUP2 DUP2 PUSH2 0x100 EXP DUP2 SLOAD SWAP1 PUSH20 0xFFFFFFFFFFFFFFFFFFFFFFFFFFFFFFFFFFFFFFFF MUL NOT AND SWAP1 SSTORE POP PUSH1 0x1 ADD PUSH3 0x459 JUMP JUMPDEST POP SWAP1 JUMP JUMPDEST SWAP1 JUMP JUMPDEST PUSH2 0x152C DUP1 PUSH3 0x4A8 PUSH1 0x0 CODECOPY PUSH1 0x0 RETURN INVALID PUSH1 0x80 PUSH1 0x40 MSTORE CALLVALUE DUP1 ISZERO PUSH2 0x10 JUMPI PUSH1 0x0 DUP1 REVERT JUMPDEST POP PUSH1 0x4 CALLDATASIZE LT PUSH2 0x9E JUMPI PUSH1 0x0 CALLDATALOAD PUSH1 0xE0 SHR DUP1 PUSH4 0xAC42A415 GT PUSH2 0x66 JUMPI DUP1 PUSH4 0xAC42A415 EQ PUSH2 0x22D JUMPI DUP1 PUSH4 0xC8F5F189 EQ PUSH2 0x271 JUMPI DUP1 PUSH4 0xD2F3FCC7 EQ PUSH2 0x2B5 JUMPI DUP1 PUSH4 0xE002C8A5 EQ PUSH2 0x2D3 JUMPI DUP1 PUSH4 0xF5C0E383 EQ PUSH2 0x421 JUMPI PUSH2 0x9E JUMP JUMPDEST DUP1 PUSH4 0x1FEDD36C EQ PUSH2 0xA3 JUMPI DUP1 PUSH4 0x2F1D7588 EQ PUSH2 0xFB JUMPI DUP1 PUSH4 0x93A668B7 EQ PUSH2 0x15F JUMPI DUP1 PUSH4 0xAAB3A9D6 EQ PUSH2 0x1A3 JUMPI DUP1 PUSH4 0xABB428A6 EQ PUSH2 0x1E7 JUMPI JUMPDEST PUSH1 0x0 DUP1 REVERT JUMPDEST PUSH2 0xE5 PUSH1 0x4 DUP1 CALLDATASIZE SUB PUSH1 0x20 DUP2 LT ISZERO PUSH2 0xB9 JUMPI PUSH1 0x0 DUP1 REVERT JUMPDEST DUP2 ADD SWAP1 DUP1 DUP1 CALLDATALOAD PUSH20 0xFFFFFFFFFFFFFFFFFFFFFFFFFFFFFFFFFFFFFFFF AND SWAP1 PUSH1 0x20 ADD SWAP1 SWAP3 SWAP2 SWAP1 POP POP POP PUSH2 0x485 JUMP JUMPDEST PUSH1 0x40 MLOAD DUP1 DUP3 DUP2 MSTORE PUSH1 0x20 ADD SWAP2 POP POP PUSH1 0x40 MLOAD DUP1 SWAP2 SUB SWAP1 RETURN JUMPDEST PUSH2 0x15D PUSH1 0x4 DUP1 CALLDATASIZE SUB PUSH1 0x40 DUP2 LT ISZERO PUSH2 0x111 JUMPI PUSH1 0x0 DUP1 REVERT JUMPDEST DUP2 ADD SWAP1 DUP1 DUP1 CALLDATALOAD PUSH20 0xFFFFFFFFFFFFFFFFFFFFFFFFFFFFFFFFFFFFFFFF AND SWAP1 PUSH1 0x20 ADD SWAP1 SWAP3 SWAP2 SWAP1 DUP1 CALLDATALOAD PUSH20 0xFFFFFFFFFFFFFFFFFFFFFFFFFFFFFFFFFFFFFFFF AND SWAP1 PUSH1 0x20 ADD SWAP1 SWAP3 SWAP2 SWAP1 POP POP POP PUSH2 0x97E JUMP JUMPDEST STOP JUMPDEST PUSH2 0x1A1 PUSH1 0x4 DUP1 CALLDATASIZE SUB PUSH1 0x20 DUP2 LT ISZERO PUSH2 0x175 JUMPI PUSH1 0x0 DUP1 REVERT JUMPDEST DUP2 ADD SWAP1 DUP1 DUP1 CALLDATALOAD PUSH20 0xFFFFFFFFFFFFFFFFFFFFFFFFFFFFFFFFFFFFFFFF AND SWAP1 PUSH1 0x20 ADD SWAP1 SWAP3 SWAP2 SWAP1 POP POP POP PUSH2 0xA98 JUMP JUMPDEST STOP JUMPDEST PUSH2 0x1E5 PUSH1 0x4 DUP1 CALLDATASIZE SUB PUSH1 0x20 DUP2 LT ISZERO PUSH2 0x1B9 JUMPI PUSH1 0x0 DUP1 REVERT JUMPDEST DUP2 ADD SWAP1 DUP1 DUP1 CALLDATALOAD PUSH20 0xFFFFFFFFFFFFFFFFFFFFFFFFFFFFFFFFFFFFFFFF AND SWAP1 PUSH1 0x20 ADD SWAP1 SWAP3 SWAP2 SWAP1 POP POP POP PUSH2 0xB70 JUMP JUMPDEST STOP JUMPDEST PUSH2 0x1EF PUSH2 0xBD6 JUMP JUMPDEST PUSH1 0x40 MLOAD DUP1 DUP3 PUSH1 0x3 PUSH1 0x20 MUL DUP1 DUP4 DUP4 PUSH1 0x0 JUMPDEST DUP4 DUP2 LT ISZERO PUSH2 0x21A JUMPI DUP1 DUP3 ADD MLOAD DUP2 DUP5 ADD MSTORE PUSH1 0x20 DUP2 ADD SWAP1 POP PUSH2 0x1FF JUMP JUMPDEST POP POP POP POP SWAP1 POP ADD SWAP2 POP POP PUSH1 0x40 MLOAD DUP1 SWAP2 SUB SWAP1 RETURN JUMPDEST PUSH2 0x26F PUSH1 0x4 DUP1 CALLDATASIZE SUB PUSH1 0x20 DUP2 LT ISZERO PUSH2 0x243 JUMPI PUSH1 0x0 DUP1 REVERT JUMPDEST DUP2 ADD SWAP1 DUP1 DUP1 CALLDATALOAD PUSH20 0xFFFFFFFFFFFFFFFFFFFFFFFFFFFFFFFFFFFFFFFF AND SWAP1 PUSH1 0x20 ADD SWAP1 SWAP3 SWAP2 SWAP1 POP POP POP PUSH2 0xCE8 JUMP JUMPDEST STOP JUMPDEST PUSH2 0x2B3 PUSH1 0x4 DUP1 CALLDATASIZE SUB PUSH1 0x20 DUP2 LT ISZERO PUSH2 0x287 JUMPI PUSH1 0x0 DUP1 REVERT JUMPDEST DUP2 ADD SWAP1 DUP1 DUP1 CALLDATALOAD PUSH20 0xFFFFFFFFFFFFFFFFFFFFFFFFFFFFFFFFFFFFFFFF AND SWAP1 PUSH1 0x20 ADD SWAP1 SWAP3 SWAP2 SWAP1 POP POP POP PUSH2 0x105D JUMP JUMPDEST STOP JUMPDEST PUSH2 0x2BD PUSH2 0x1151 JUMP JUMPDEST PUSH1 0x40 MLOAD DUP1 DUP3 DUP2 MSTORE PUSH1 0x20 ADD SWAP2 POP POP PUSH1 0x40 MLOAD DUP1 SWAP2 SUB SWAP1 RETURN JUMPDEST PUSH2 0x2DB PUSH2 0x1173 JUMP JUMPDEST PUSH1 0x40 MLOAD DUP1 DUP9 PUSH20 0xFFFFFFFFFFFFFFFFFFFFFFFFFFFFFFFFFFFFFFFF AND PUSH20 0xFFFFFFFFFFFFFFFFFFFFFFFFFFFFFFFFFFFFFFFF AND DUP2 MSTORE PUSH1 0x20 ADD DUP8 DUP2 MSTORE PUSH1 0x20 ADD DUP1 PUSH1 0x20 ADD DUP7 DUP2 MSTORE PUSH1 0x20 ADD DUP1 PUSH1 0x20 ADD DUP6 PUSH20 0xFFFFFFFFFFFFFFFFFFFFFFFFFFFFFFFFFFFFFFFF AND PUSH20 0xFFFFFFFFFFFFFFFFFFFFFFFFFFFFFFFFFFFFFFFF AND DUP2 MSTORE PUSH1 0x20 ADD DUP5 PUSH20 0xFFFFFFFFFFFFFFFFFFFFFFFFFFFFFFFFFFFFFFFF AND PUSH20 0xFFFFFFFFFFFFFFFFFFFFFFFFFFFFFFFFFFFFFFFF AND DUP2 MSTORE PUSH1 0x20 ADD DUP4 DUP2 SUB DUP4 MSTORE DUP9 DUP2 DUP2 MLOAD DUP2 MSTORE PUSH1 0x20 ADD SWAP2 POP DUP1 MLOAD SWAP1 PUSH1 0x20 ADD SWAP1 PUSH1 0x20 MUL DUP1 DUP4 DUP4 PUSH1 0x0 JUMPDEST DUP4 DUP2 LT ISZERO PUSH2 0x3C4 JUMPI DUP1 DUP3 ADD MLOAD DUP2 DUP5 ADD MSTORE PUSH1 0x20 DUP2 ADD SWAP1 POP PUSH2 0x3A9 JUMP JUMPDEST POP POP POP POP SWAP1 POP ADD DUP4 DUP2 SUB DUP3 MSTORE DUP7 DUP2 DUP2 MLOAD DUP2 MSTORE PUSH1 0x20 ADD SWAP2 POP DUP1 MLOAD SWAP1 PUSH1 0x20 ADD SWAP1 PUSH1 0x20 MUL DUP1 DUP4 DUP4 PUSH1 0x0 JUMPDEST DUP4 DUP2 LT ISZERO PUSH2 0x406 JUMPI DUP1 DUP3 ADD MLOAD DUP2 DUP5 ADD MSTORE PUSH1 0x20 DUP2 ADD SWAP1 POP PUSH2 0x3EB JUMP JUMPDEST POP POP POP POP SWAP1 POP ADD SWAP10 POP POP POP POP POP POP POP POP POP POP PUSH1 0x40 MLOAD DUP1 SWAP2 SUB SWAP1 RETURN JUMPDEST PUSH2 0x483 PUSH1 0x4 DUP1 CALLDATASIZE SUB PUSH1 0x40 DUP2 LT ISZERO PUSH2 0x437 JUMPI PUSH1 0x0 DUP1 REVERT JUMPDEST DUP2 ADD SWAP1 DUP1 DUP1 CALLDATALOAD PUSH20 0xFFFFFFFFFFFFFFFFFFFFFFFFFFFFFFFFFFFFFFFF AND SWAP1 PUSH1 0x20 ADD SWAP1 SWAP3 SWAP2 SWAP1 DUP1 CALLDATALOAD PUSH20 0xFFFFFFFFFFFFFFFFFFFFFFFFFFFFFFFFFFFFFFFF AND SWAP1 PUSH1 0x20 ADD SWAP1 SWAP3 SWAP2 SWAP1 POP POP POP PUSH2 0x1319 JUMP JUMPDEST STOP JUMPDEST PUSH1 0x0 PUSH1 0x5 PUSH1 0x0 SWAP1 SLOAD SWAP1 PUSH2 0x100 EXP SWAP1 DIV PUSH20 0xFFFFFFFFFFFFFFFFFFFFFFFFFFFFFFFFFFFFFFFF AND PUSH20 0xFFFFFFFFFFFFFFFFFFFFFFFFFFFFFFFFFFFFFFFF AND DUP3 PUSH20 0xFFFFFFFFFFFFFFFFFFFFFFFFFFFFFFFFFFFFFFFF AND EQ DUP1 PUSH2 0x530 JUMPI POP PUSH1 0x6 PUSH1 0x0 SWAP1 SLOAD SWAP1 PUSH2 0x100 EXP SWAP1 DIV PUSH20 0xFFFFFFFFFFFFFFFFFFFFFFFFFFFFFFFFFFFFFFFF AND PUSH20 0xFFFFFFFFFFFFFFFFFFFFFFFFFFFFFFFFFFFFFFFF AND DUP3 PUSH20 0xFFFFFFFFFFFFFFFFFFFFFFFFFFFFFFFFFFFFFFFF AND EQ JUMPDEST PUSH2 0x585 JUMPI PUSH1 0x40 MLOAD PUSH32 0x8C379A000000000000000000000000000000000000000000000000000000000 DUP2 MSTORE PUSH1 0x4 ADD DUP1 DUP1 PUSH1 0x20 ADD DUP3 DUP2 SUB DUP3 MSTORE PUSH1 0x35 DUP2 MSTORE PUSH1 0x20 ADD DUP1 PUSH2 0x1456 PUSH1 0x35 SWAP2 CODECOPY PUSH1 0x40 ADD SWAP2 POP POP PUSH1 0x40 MLOAD DUP1 SWAP2 SUB SWAP1 REVERT JUMPDEST PUSH1 0x1 PUSH1 0x9 PUSH1 0x0 SWAP1 SLOAD SWAP1 PUSH2 0x100 EXP SWAP1 DIV PUSH1 0xFF AND PUSH1 0x6 DUP2 GT ISZERO PUSH2 0x5A2 JUMPI INVALID JUMPDEST LT ISZERO PUSH2 0x616 JUMPI PUSH1 0x40 MLOAD PUSH32 0x8C379A000000000000000000000000000000000000000000000000000000000 DUP2 MSTORE PUSH1 0x4 ADD DUP1 DUP1 PUSH1 0x20 ADD DUP3 DUP2 SUB DUP3 MSTORE PUSH1 0x19 DUP2 MSTORE PUSH1 0x20 ADD DUP1 PUSH32 0x50726F64756374206E6F74207069636B65642075702079657400000000000000 DUP2 MSTORE POP PUSH1 0x20 ADD SWAP2 POP POP PUSH1 0x40 MLOAD DUP1 SWAP2 SUB SWAP1 REVERT JUMPDEST PUSH1 0x5 PUSH1 0x0 SWAP1 SLOAD SWAP1 PUSH2 0x100 EXP SWAP1 DIV PUSH20 0xFFFFFFFFFFFFFFFFFFFFFFFFFFFFFFFFFFFFFFFF AND PUSH20 0xFFFFFFFFFFFFFFFFFFFFFFFFFFFFFFFFFFFFFFFF AND DUP3 PUSH20 0xFFFFFFFFFFFFFFFFFFFFFFFFFFFFFFFFFFFFFFFF AND EQ DUP1 ISZERO PUSH2 0x6A3 JUMPI POP PUSH1 0x1 PUSH1 0x6 DUP2 GT ISZERO PUSH2 0x67B JUMPI INVALID JUMPDEST PUSH1 0x6 DUP2 GT ISZERO PUSH2 0x686 JUMPI INVALID JUMPDEST PUSH1 0x9 PUSH1 0x0 SWAP1 SLOAD SWAP1 PUSH2 0x100 EXP SWAP1 DIV PUSH1 0xFF AND PUSH1 0x6 DUP2 GT ISZERO PUSH2 0x6A1 JUMPI INVALID JUMPDEST EQ JUMPDEST ISZERO PUSH2 0x7C7 JUMPI PUSH1 0x3 PUSH1 0x6 DUP2 GT ISZERO PUSH2 0x6B5 JUMPI INVALID JUMPDEST PUSH1 0x9 PUSH1 0x0 PUSH2 0x100 EXP DUP2 SLOAD DUP2 PUSH1 0xFF MUL NOT AND SWAP1 DUP4 PUSH1 0x6 DUP2 GT ISZERO PUSH2 0x6D2 JUMPI INVALID JUMPDEST MUL OR SWAP1 SSTORE POP PUSH1 0x5 PUSH1 0x0 SWAP1 SLOAD SWAP1 PUSH2 0x100 EXP SWAP1 DIV PUSH20 0xFFFFFFFFFFFFFFFFFFFFFFFFFFFFFFFFFFFFFFFF AND PUSH20 0xFFFFFFFFFFFFFFFFFFFFFFFFFFFFFFFFFFFFFFFF AND PUSH1 0x3 PUSH1 0x1 PUSH1 0x3 DUP1 SLOAD SWAP1 POP SUB DUP2 SLOAD DUP2 LT PUSH2 0x725 JUMPI INVALID JUMPDEST SWAP1 PUSH1 0x0 MSTORE PUSH1 0x20 PUSH1 0x0 KECCAK256 ADD PUSH1 0x0 SWAP1 SLOAD SWAP1 PUSH2 0x100 EXP SWAP1 DIV PUSH20 0xFFFFFFFFFFFFFFFFFFFFFFFFFFFFFFFFFFFFFFFF AND PUSH20 0xFFFFFFFFFFFFFFFFFFFFFFFFFFFFFFFFFFFFFFFF AND ADDRESS PUSH20 0xFFFFFFFFFFFFFFFFFFFFFFFFFFFFFFFFFFFFFFFF AND PUSH32 0x7E89C4B1A4E2B51AAE84EB1F90E8A34CB792ECE5AC5CB63DB4830C891220B28D PUSH1 0x2 PUSH1 0x3 PUSH1 0x40 MLOAD DUP1 DUP4 DUP2 MSTORE PUSH1 0x20 ADD DUP3 DUP2 MSTORE PUSH1 0x20 ADD SWAP3 POP POP POP PUSH1 0x40 MLOAD DUP1 SWAP2 SUB SWAP1 LOG4 PUSH1 0x1 SWAP1 POP PUSH2 0x979 JUMP JUMPDEST PUSH1 0x6 PUSH1 0x0 SWAP1 SLOAD SWAP1 PUSH2 0x100 EXP SWAP1 DIV PUSH20 0xFFFFFFFFFFFFFFFFFFFFFFFFFFFFFFFFFFFFFFFF AND PUSH20 0xFFFFFFFFFFFFFFFFFFFFFFFFFFFFFFFFFFFFFFFF AND DUP3 PUSH20 0xFFFFFFFFFFFFFFFFFFFFFFFFFFFFFFFFFFFFFFFF AND EQ DUP1 ISZERO PUSH2 0x854 JUMPI POP PUSH1 0x2 PUSH1 0x6 DUP2 GT ISZERO PUSH2 0x82C JUMPI INVALID JUMPDEST PUSH1 0x6 DUP2 GT ISZERO PUSH2 0x837 JUMPI INVALID JUMPDEST PUSH1 0x9 PUSH1 0x0 SWAP1 SLOAD SWAP1 PUSH2 0x100 EXP SWAP1 DIV PUSH1 0xFF AND PUSH1 0x6 DUP2 GT ISZERO PUSH2 0x852 JUMPI INVALID JUMPDEST EQ JUMPDEST ISZERO PUSH2 0x978 JUMPI PUSH1 0x4 PUSH1 0x6 DUP2 GT ISZERO PUSH2 0x866 JUMPI INVALID JUMPDEST PUSH1 0x9 PUSH1 0x0 PUSH2 0x100 EXP DUP2 SLOAD DUP2 PUSH1 0xFF MUL NOT AND SWAP1 DUP4 PUSH1 0x6 DUP2 GT ISZERO PUSH2 0x883 JUMPI INVALID JUMPDEST MUL OR SWAP1 SSTORE POP PUSH1 0x6 PUSH1 0x0 SWAP1 SLOAD SWAP1 PUSH2 0x100 EXP SWAP1 DIV PUSH20 0xFFFFFFFFFFFFFFFFFFFFFFFFFFFFFFFFFFFFFFFF AND PUSH20 0xFFFFFFFFFFFFFFFFFFFFFFFFFFFFFFFFFFFFFFFF AND PUSH1 0x3 PUSH1 0x1 PUSH1 0x3 DUP1 SLOAD SWAP1 POP SUB DUP2 SLOAD DUP2 LT PUSH2 0x8D6 JUMPI INVALID JUMPDEST SWAP1 PUSH1 0x0 MSTORE PUSH1 0x20 PUSH1 0x0 KECCAK256 ADD PUSH1 0x0 SWAP1 SLOAD SWAP1 PUSH2 0x100 EXP SWAP1 DIV PUSH20 0xFFFFFFFFFFFFFFFFFFFFFFFFFFFFFFFFFFFFFFFF AND PUSH20 0xFFFFFFFFFFFFFFFFFFFFFFFFFFFFFFFFFFFFFFFF AND ADDRESS PUSH20 0xFFFFFFFFFFFFFFFFFFFFFFFFFFFFFFFFFFFFFFFF AND PUSH32 0x7E89C4B1A4E2B51AAE84EB1F90E8A34CB792ECE5AC5CB63DB4830C891220B28D PUSH1 0x3 PUSH1 0x4 PUSH1 0x40 MLOAD DUP1 DUP4 DUP2 MSTORE PUSH1 0x20 ADD DUP3 DUP2 MSTORE PUSH1 0x20 ADD SWAP3 POP POP POP PUSH1 0x40 MLOAD DUP1 SWAP2 SUB SWAP1 LOG4 PUSH1 0x2 SWAP1 POP PUSH2 0x979 JUMP JUMPDEST JUMPDEST SWAP2 SWAP1 POP JUMP JUMPDEST DUP1 PUSH20 0xFFFFFFFFFFFFFFFFFFFFFFFFFFFFFFFFFFFFFFFF AND PUSH1 0x6 PUSH1 0x0 SWAP1 SLOAD SWAP1 PUSH2 0x100 EXP SWAP1 DIV PUSH20 0xFFFFFFFFFFFFFFFFFFFFFFFFFFFFFFFFFFFFFFFF AND PUSH20 0xFFFFFFFFFFFFFFFFFFFFFFFFFFFFFFFFFFFFFFFF AND EQ PUSH2 0xA24 JUMPI PUSH1 0x40 MLOAD PUSH32 0x8C379A000000000000000000000000000000000000000000000000000000000 DUP2 MSTORE PUSH1 0x4 ADD DUP1 DUP1 PUSH1 0x20 ADD DUP3 DUP2 SUB DUP3 MSTORE PUSH1 0x23 DUP2 MSTORE PUSH1 0x20 ADD DUP1 PUSH2 0x14AD PUSH1 0x23 SWAP2 CODECOPY PUSH1 0x40 ADD SWAP2 POP POP PUSH1 0x40 MLOAD DUP1 SWAP2 SUB SWAP1 REVERT JUMPDEST DUP2 PUSH1 0x7 PUSH1 0x0 PUSH2 0x100 EXP DUP2 SLOAD DUP2 PUSH20 0xFFFFFFFFFFFFFFFFFFFFFFFFFFFFFFFFFFFFFFFF MUL NOT AND SWAP1 DUP4 PUSH20 0xFFFFFFFFFFFFFFFFFFFFFFFFFFFFFFFFFFFFFFFF AND MUL OR SWAP1 SSTORE POP PUSH1 0x5 PUSH1 0x6 DUP2 GT ISZERO PUSH2 0xA72 JUMPI INVALID JUMPDEST PUSH1 0x9 PUSH1 0x0 PUSH2 0x100 EXP DUP2 SLOAD DUP2 PUSH1 0xFF MUL NOT AND SWAP1 DUP4 PUSH1 0x6 DUP2 GT ISZERO PUSH2 0xA8F JUMPI INVALID JUMPDEST MUL OR SWAP1 SSTORE POP POP POP JUMP JUMPDEST DUP1 PUSH20 0xFFFFFFFFFFFFFFFFFFFFFFFFFFFFFFFFFFFFFFFF AND PUSH1 0x6 PUSH1 0x0 SWAP1 SLOAD SWAP1 PUSH2 0x100 EXP SWAP1 DIV PUSH20 0xFFFFFFFFFFFFFFFFFFFFFFFFFFFFFFFFFFFFFFFF AND PUSH20 0xFFFFFFFFFFFFFFFFFFFFFFFFFFFFFFFFFFFFFFFF AND EQ PUSH2 0xB3E JUMPI PUSH1 0x40 MLOAD PUSH32 0x8C379A000000000000000000000000000000000000000000000000000000000 DUP2 MSTORE PUSH1 0x4 ADD DUP1 DUP1 PUSH1 0x20 ADD DUP3 DUP2 SUB DUP3 MSTORE PUSH1 0x23 DUP2 MSTORE PUSH1 0x20 ADD DUP1 PUSH2 0x14AD PUSH1 0x23 SWAP2 CODECOPY PUSH1 0x40 ADD SWAP2 POP POP PUSH1 0x40 MLOAD DUP1 SWAP2 SUB SWAP1 REVERT JUMPDEST PUSH1 0x4 PUSH1 0x6 DUP2 GT ISZERO PUSH2 0xB4B JUMPI INVALID JUMPDEST PUSH1 0x9 PUSH1 0x0 PUSH2 0x100 EXP DUP2 SLOAD DUP2 PUSH1 0xFF MUL NOT AND SWAP1 DUP4 PUSH1 0x6 DUP2 GT ISZERO PUSH2 0xB68 JUMPI INVALID JUMPDEST MUL OR SWAP1 SSTORE POP POP JUMP JUMPDEST PUSH1 0x3 DUP2 SWAP1 DUP1 PUSH1 0x1 DUP2 SLOAD ADD DUP1 DUP3 SSTORE DUP1 SWAP2 POP POP PUSH1 0x1 SWAP1 SUB SWAP1 PUSH1 0x0 MSTORE PUSH1 0x20 PUSH1 0x0 KECCAK256 ADD PUSH1 0x0 SWAP1 SWAP2 SWAP1 SWAP2 SWAP1 SWAP2 PUSH2 0x100 EXP DUP2 SLOAD DUP2 PUSH20 0xFFFFFFFFFFFFFFFFFFFFFFFFFFFFFFFFFFFFFFFF MUL NOT AND SWAP1 DUP4 PUSH20 0xFFFFFFFFFFFFFFFFFFFFFFFFFFFFFFFFFFFFFFFF AND MUL OR SWAP1 SSTORE POP POP JUMP JUMPDEST PUSH2 0xBDE PUSH2 0x1433 JUMP JUMPDEST PUSH1 0x40 MLOAD DUP1 PUSH1 0x60 ADD PUSH1 0x40 MSTORE DUP1 PUSH1 0x5 PUSH1 0x0 SWAP1 SLOAD SWAP1 PUSH2 0x100 EXP SWAP1 DIV PUSH20 0xFFFFFFFFFFFFFFFFFFFFFFFFFFFFFFFFFFFFFFFF AND PUSH20 0xFFFFFFFFFFFFFFFFFFFFFFFFFFFFFFFFFFFFFFFF AND PUSH20 0xFFFFFFFFFFFFFFFFFFFFFFFFFFFFFFFFFFFFFFFF AND DUP2 MSTORE PUSH1 0x20 ADD PUSH1 0x6 PUSH1 0x0 SWAP1 SLOAD SWAP1 PUSH2 0x100 EXP SWAP1 DIV PUSH20 0xFFFFFFFFFFFFFFFFFFFFFFFFFFFFFFFFFFFFFFFF AND PUSH20 0xFFFFFFFFFFFFFFFFFFFFFFFFFFFFFFFFFFFFFFFF AND PUSH20 0xFFFFFFFFFFFFFFFFFFFFFFFFFFFFFFFFFFFFFFFF AND DUP2 MSTORE PUSH1 0x20 ADD PUSH1 0x7 PUSH1 0x0 SWAP1 SLOAD SWAP1 PUSH2 0x100 EXP SWAP1 DIV PUSH20 0xFFFFFFFFFFFFFFFFFFFFFFFFFFFFFFFFFFFFFFFF AND PUSH20 0xFFFFFFFFFFFFFFFFFFFFFFFFFFFFFFFFFFFFFFFF AND PUSH20 0xFFFFFFFFFFFFFFFFFFFFFFFFFFFFFFFFFFFFFFFF AND DUP2 MSTORE POP SWAP1 POP SWAP1 JUMP JUMPDEST PUSH1 0x3 PUSH1 0x1 PUSH1 0x3 DUP1 SLOAD SWAP1 POP SUB DUP2 SLOAD DUP2 LT PUSH2 0xCFD JUMPI INVALID JUMPDEST SWAP1 PUSH1 0x0 MSTORE PUSH1 0x20 PUSH1 0x0 KECCAK256 ADD PUSH1 0x0 SWAP1 SLOAD SWAP1 PUSH2 0x100 EXP SWAP1 DIV PUSH20 0xFFFFFFFFFFFFFFFFFFFFFFFFFFFFFFFFFFFFFFFF AND PUSH20 0xFFFFFFFFFFFFFFFFFFFFFFFFFFFFFFFFFFFFFFFF AND DUP2 PUSH20 0xFFFFFFFFFFFFFFFFFFFFFFFFFFFFFFFFFFFFFFFF AND EQ PUSH2 0xDAB JUMPI PUSH1 0x40 MLOAD PUSH32 0x8C379A000000000000000000000000000000000000000000000000000000000 DUP2 MSTORE PUSH1 0x4 ADD DUP1 DUP1 PUSH1 0x20 ADD DUP3 DUP2 SUB DUP3 MSTORE PUSH1 0x27 DUP2 MSTORE PUSH1 0x20 ADD DUP1 PUSH2 0x14D0 PUSH1 0x27 SWAP2 CODECOPY PUSH1 0x40 ADD SWAP2 POP POP PUSH1 0x40 MLOAD DUP1 SWAP2 SUB SWAP1 REVERT JUMPDEST PUSH1 0x0 PUSH1 0x6 DUP2 GT ISZERO PUSH2 0xDB8 JUMPI INVALID JUMPDEST PUSH1 0x6 DUP2 GT ISZERO PUSH2 0xDC3 JUMPI INVALID JUMPDEST PUSH1 0x9 PUSH1 0x0 SWAP1 SLOAD SWAP1 PUSH2 0x100 EXP SWAP1 DIV PUSH1 0xFF AND PUSH1 0x6 DUP2 GT ISZERO PUSH2 0xDDE JUMPI INVALID JUMPDEST EQ PUSH2 0xE51 JUMPI PUSH1 0x40 MLOAD PUSH32 0x8C379A000000000000000000000000000000000000000000000000000000000 DUP2 MSTORE PUSH1 0x4 ADD DUP1 DUP1 PUSH1 0x20 ADD DUP3 DUP2 SUB DUP3 MSTORE PUSH1 0x20 DUP2 MSTORE PUSH1 0x20 ADD DUP1 PUSH32 0x5061636B616765206D757374206265206174204D616E7566616374757265722E DUP2 MSTORE POP PUSH1 0x20 ADD SWAP2 POP POP PUSH1 0x40 MLOAD DUP1 SWAP2 SUB SWAP1 REVERT JUMPDEST PUSH1 0x0 PUSH20 0xFFFFFFFFFFFFFFFFFFFFFFFFFFFFFFFFFFFFFFFF AND PUSH1 0x5 PUSH1 0x0 SWAP1 SLOAD SWAP1 PUSH2 0x100 EXP SWAP1 DIV PUSH20 0xFFFFFFFFFFFFFFFFFFFFFFFFFFFFFFFFFFFFFFFF AND PUSH20 0xFFFFFFFFFFFFFFFFFFFFFFFFFFFFFFFFFFFFFFFF AND EQ PUSH2 0xF82 JUMPI PUSH1 0x1 PUSH1 0x6 DUP2 GT ISZERO PUSH2 0xEB4 JUMPI INVALID JUMPDEST PUSH1 0x9 PUSH1 0x0 PUSH2 0x100 EXP DUP2 SLOAD DUP2 PUSH1 0xFF MUL NOT AND SWAP1 DUP4 PUSH1 0x6 DUP2 GT ISZERO PUSH2 0xED1 JUMPI INVALID JUMPDEST MUL OR SWAP1 SSTORE POP PUSH1 0x5 PUSH1 0x0 SWAP1 SLOAD SWAP1 PUSH2 0x100 EXP SWAP1 DIV PUSH20 0xFFFFFFFFFFFFFFFFFFFFFFFFFFFFFFFFFFFFFFFF AND PUSH20 0xFFFFFFFFFFFFFFFFFFFFFFFFFFFFFFFFFFFFFFFF AND DUP2 PUSH20 0xFFFFFFFFFFFFFFFFFFFFFFFFFFFFFFFFFFFFFFFF AND ADDRESS PUSH20 0xFFFFFFFFFFFFFFFFFFFFFFFFFFFFFFFFFFFFFFFF AND PUSH32 0x7E89C4B1A4E2B51AAE84EB1F90E8A34CB792ECE5AC5CB63DB4830C891220B28D PUSH1 0x1 DUP1 PUSH1 0x40 MLOAD DUP1 DUP4 DUP2 MSTORE PUSH1 0x20 ADD DUP3 DUP2 MSTORE PUSH1 0x20 ADD SWAP3 POP POP POP PUSH1 0x40 MLOAD DUP1 SWAP2 SUB SWAP1 LOG4 PUSH2 0x105A JUMP JUMPDEST PUSH1 0x2 PUSH1 0x6 DUP2 GT ISZERO PUSH2 0xF8F JUMPI INVALID JUMPDEST PUSH1 0x9 PUSH1 0x0 PUSH2 0x100 EXP DUP2 SLOAD DUP2 PUSH1 0xFF MUL NOT AND SWAP1 DUP4 PUSH1 0x6 DUP2 GT ISZERO PUSH2 0xFAC JUMPI INVALID JUMPDEST MUL OR SWAP1 SSTORE POP PUSH1 0x6 PUSH1 0x0 SWAP1 SLOAD SWAP1 PUSH2 0x100 EXP SWAP1 DIV PUSH20 0xFFFFFFFFFFFFFFFFFFFFFFFFFFFFFFFFFFFFFFFF AND PUSH20 0xFFFFFFFFFFFFFFFFFFFFFFFFFFFFFFFFFFFFFFFF AND DUP2 PUSH20 0xFFFFFFFFFFFFFFFFFFFFFFFFFFFFFFFFFFFFFFFF AND ADDRESS PUSH20 0xFFFFFFFFFFFFFFFFFFFFFFFFFFFFFFFFFFFFFFFF AND PUSH32 0x7E89C4B1A4E2B51AAE84EB1F90E8A34CB792ECE5AC5CB63DB4830C891220B28D PUSH1 0x1 PUSH1 0x2 PUSH1 0x40 MLOAD DUP1 DUP4 DUP2 MSTORE PUSH1 0x20 ADD DUP3 DUP2 MSTORE PUSH1 0x20 ADD SWAP3 POP POP POP PUSH1 0x40 MLOAD DUP1 SWAP2 SUB SWAP1 LOG4 JUMPDEST POP JUMP JUMPDEST DUP1 PUSH20 0xFFFFFFFFFFFFFFFFFFFFFFFFFFFFFFFFFFFFFFFF AND PUSH1 0x7 PUSH1 0x0 SWAP1 SLOAD SWAP1 PUSH2 0x100 EXP SWAP1 DIV PUSH20 0xFFFFFFFFFFFFFFFFFFFFFFFFFFFFFFFFFFFFFFFF AND PUSH20 0xFFFFFFFFFFFFFFFFFFFFFFFFFFFFFFFFFFFFFFFF AND EQ PUSH2 0x1120 JUMPI PUSH1 0x40 MLOAD PUSH32 0x8C379A000000000000000000000000000000000000000000000000000000000 DUP2 MSTORE PUSH1 0x4 ADD DUP1 DUP1 PUSH1 0x20 ADD DUP3 DUP2 SUB DUP3 MSTORE PUSH1 0x20 DUP2 MSTORE PUSH1 0x20 ADD DUP1 PUSH32 0x5468697320437573746F6D6572206973206E6F74204173736F6369617465642E DUP2 MSTORE POP PUSH1 0x20 ADD SWAP2 POP POP PUSH1 0x40 MLOAD DUP1 SWAP2 SUB SWAP1 REVERT JUMPDEST PUSH1 0x6 DUP1 DUP2 GT ISZERO PUSH2 0x112C JUMPI INVALID JUMPDEST PUSH1 0x9 PUSH1 0x0 PUSH2 0x100 EXP DUP2 SLOAD DUP2 PUSH1 0xFF MUL NOT AND SWAP1 DUP4 PUSH1 0x6 DUP2 GT ISZERO PUSH2 0x1149 JUMPI INVALID JUMPDEST MUL OR SWAP1 SSTORE POP POP JUMP JUMPDEST PUSH1 0x0 PUSH1 0x9 PUSH1 0x0 SWAP1 SLOAD SWAP1 PUSH2 0x100 EXP SWAP1 DIV PUSH1 0xFF AND PUSH1 0x6 DUP2 GT ISZERO PUSH2 0x116E JUMPI INVALID JUMPDEST SWAP1 POP SWAP1 JUMP JUMPDEST PUSH1 0x0 DUP1 PUSH1 0x60 PUSH1 0x0 PUSH1 0x60 PUSH1 0x0 DUP1 PUSH1 0x4 PUSH1 0x0 SWAP1 SLOAD SWAP1 PUSH2 0x100 EXP SWAP1 DIV PUSH20 0xFFFFFFFFFFFFFFFFFFFFFFFFFFFFFFFFFFFFFFFF AND PUSH1 0x1 SLOAD PUSH1 0x2 PUSH1 0x8 SLOAD PUSH1 0x3 PUSH1 0x6 PUSH1 0x0 SWAP1 SLOAD SWAP1 PUSH2 0x100 EXP SWAP1 DIV PUSH20 0xFFFFFFFFFFFFFFFFFFFFFFFFFFFFFFFFFFFFFFFF AND PUSH1 0x7 PUSH1 0x0 SWAP1 SLOAD SWAP1 PUSH2 0x100 EXP SWAP1 DIV PUSH20 0xFFFFFFFFFFFFFFFFFFFFFFFFFFFFFFFFFFFFFFFF AND DUP5 DUP1 SLOAD DUP1 PUSH1 0x20 MUL PUSH1 0x20 ADD PUSH1 0x40 MLOAD SWAP1 DUP2 ADD PUSH1 0x40 MSTORE DUP1 SWAP3 SWAP2 SWAP1 DUP2 DUP2 MSTORE PUSH1 0x20 ADD DUP3 DUP1 SLOAD DUP1 ISZERO PUSH2 0x1273 JUMPI PUSH1 0x20 MUL DUP3 ADD SWAP2 SWAP1 PUSH1 0x0 MSTORE PUSH1 0x20 PUSH1 0x0 KECCAK256 SWAP1 JUMPDEST DUP2 PUSH1 0x0 SWAP1 SLOAD SWAP1 PUSH2 0x100 EXP SWAP1 DIV PUSH20 0xFFFFFFFFFFFFFFFFFFFFFFFFFFFFFFFFFFFFFFFF AND PUSH20 0xFFFFFFFFFFFFFFFFFFFFFFFFFFFFFFFFFFFFFFFF AND DUP2 MSTORE PUSH1 0x20 ADD SWAP1 PUSH1 0x1 ADD SWAP1 DUP1 DUP4 GT PUSH2 0x1229 JUMPI JUMPDEST POP POP POP POP POP SWAP5 POP DUP3 DUP1 SLOAD DUP1 PUSH1 0x20 MUL PUSH1 0x20 ADD PUSH1 0x40 MLOAD SWAP1 DUP2 ADD PUSH1 0x40 MSTORE DUP1 SWAP3 SWAP2 SWAP1 DUP2 DUP2 MSTORE PUSH1 0x20 ADD DUP3 DUP1 SLOAD DUP1 ISZERO PUSH2 0x12FB JUMPI PUSH1 0x20 MUL DUP3 ADD SWAP2 SWAP1 PUSH1 0x0 MSTORE PUSH1 0x20 PUSH1 0x0 KECCAK256 SWAP1 JUMPDEST DUP2 PUSH1 0x0 SWAP1 SLOAD SWAP1 PUSH2 0x100 EXP SWAP1 DIV PUSH20 0xFFFFFFFFFFFFFFFFFFFFFFFFFFFFFFFFFFFFFFFF AND PUSH20 0xFFFFFFFFFFFFFFFFFFFFFFFFFFFFFFFFFFFFFFFF AND DUP2 MSTORE PUSH1 0x20 ADD SWAP1 PUSH1 0x1 ADD SWAP1 DUP1 DUP4 GT PUSH2 0x12B1 JUMPI JUMPDEST POP POP POP POP POP SWAP3 POP SWAP7 POP SWAP7 POP SWAP7 POP SWAP7 POP SWAP7 POP SWAP7 POP SWAP7 POP SWAP1 SWAP2 SWAP3 SWAP4 SWAP5 SWAP6 SWAP7 JUMP JUMPDEST DUP1 PUSH20 0xFFFFFFFFFFFFFFFFFFFFFFFFFFFFFFFFFFFFFFFF AND PUSH1 0x5 PUSH1 0x0 SWAP1 SLOAD SWAP1 PUSH2 0x100 EXP SWAP1 DIV PUSH20 0xFFFFFFFFFFFFFFFFFFFFFFFFFFFFFFFFFFFFFFFF AND PUSH20 0xFFFFFFFFFFFFFFFFFFFFFFFFFFFFFFFFFFFFFFFF AND EQ PUSH2 0x13BF JUMPI PUSH1 0x40 MLOAD PUSH32 0x8C379A000000000000000000000000000000000000000000000000000000000 DUP2 MSTORE PUSH1 0x4 ADD DUP1 DUP1 PUSH1 0x20 ADD DUP3 DUP2 SUB DUP3 MSTORE PUSH1 0x22 DUP2 MSTORE PUSH1 0x20 ADD DUP1 PUSH2 0x148B PUSH1 0x22 SWAP2 CODECOPY PUSH1 0x40 ADD SWAP2 POP POP PUSH1 0x40 MLOAD DUP1 SWAP2 SUB SWAP1 REVERT JUMPDEST DUP2 PUSH1 0x6 PUSH1 0x0 PUSH2 0x100 EXP DUP2 SLOAD DUP2 PUSH20 0xFFFFFFFFFFFFFFFFFFFFFFFFFFFFFFFFFFFFFFFF MUL NOT AND SWAP1 DUP4 PUSH20 0xFFFFFFFFFFFFFFFFFFFFFFFFFFFFFFFFFFFFFFFF AND MUL OR SWAP1 SSTORE POP PUSH1 0x2 PUSH1 0x6 DUP2 GT ISZERO PUSH2 0x140D JUMPI INVALID JUMPDEST PUSH1 0x9 PUSH1 0x0 PUSH2 0x100 EXP DUP2 SLOAD DUP2 PUSH1 0xFF MUL NOT AND SWAP1 DUP4 PUSH1 0x6 DUP2 GT ISZERO PUSH2 0x142A JUMPI INVALID JUMPDEST MUL OR SWAP1 SSTORE POP POP POP JUMP JUMPDEST PUSH1 0x40 MLOAD DUP1 PUSH1 0x60 ADD PUSH1 0x40 MSTORE DUP1 PUSH1 0x3 SWAP1 PUSH1 0x20 DUP3 MUL DUP1 CALLDATASIZE DUP4 CALLDATACOPY DUP1 DUP3 ADD SWAP2 POP POP SWAP1 POP POP SWAP1 JUMP INVALID 0x4F PUSH15 0x6C792057686F6C6573616C6572206F PUSH19 0x204469737472696275746F722063616E206361 PUSH13 0x6C20746869732066756E637469 PUSH16 0x6E746869732057686F6C6573616C6572 KECCAK256 PUSH10 0x73206E6F74204173736F PUSH4 0x69617465 PUSH5 0x2E54686973 KECCAK256 DIFFICULTY PUSH10 0x737472696275746F7220 PUSH10 0x73206E6F74204173736F PUSH4 0x69617465 PUSH5 0x2E4F6E6C79 KECCAK256 SLOAD PUSH19 0x616E73706F727465722063616E2063616C6C20 PUSH21 0x6869732066756E6374696F6EA26469706673582212 KECCAK256 0xD6 CALLDATALOAD 0xEE PUSH30 0x5106940E3955BB418AF00B36CCE23F65D8CDE1861E0669139472DB5C6473 PUSH16 0x6C634300060600336080604052600060 MUL SSTORE CALLVALUE DUP1 ISZERO PUSH2 0x15 JUMPI PUSH1 0x0 DUP1 REVERT JUMPDEST POP PUSH1 0x40 MLOAD PUSH3 0x11E8 CODESIZE SUB DUP1 PUSH3 0x11E8 DUP4 CODECOPY DUP2 DUP2 ADD PUSH1 0x40 MSTORE DUP2 ADD SWAP1 PUSH2 0x39 SWAP2 SWAP1 PUSH2 0x94 JUMP JUMPDEST DUP1 PUSH1 0x0 DUP1 PUSH2 0x100 EXP DUP2 SLOAD DUP2 PUSH20 0xFFFFFFFFFFFFFFFFFFFFFFFFFFFFFFFFFFFFFFFF MUL NOT AND SWAP1 DUP4 PUSH20 0xFFFFFFFFFFFFFFFFFFFFFFFFFFFFFFFFFFFFFFFF AND MUL OR SWAP1 SSTORE POP POP PUSH2 0x106 JUMP JUMPDEST PUSH1 0x0 DUP2 MLOAD SWAP1 POP PUSH2 0x8E DUP2 PUSH2 0xEF JUMP JUMPDEST SWAP3 SWAP2 POP POP JUMP JUMPDEST PUSH1 0x0 PUSH1 0x20 DUP3 DUP5 SUB SLT ISZERO PUSH2 0xA6 JUMPI PUSH1 0x0 DUP1 REVERT JUMPDEST PUSH1 0x0 PUSH2 0xB4 DUP5 DUP3 DUP6 ADD PUSH2 0x7F JUMP JUMPDEST SWAP2 POP POP SWAP3 SWAP2 POP POP JUMP JUMPDEST PUSH1 0x0 PUSH2 0xC8 DUP3 PUSH2 0xCF JUMP JUMPDEST SWAP1 POP SWAP2 SWAP1 POP JUMP JUMPDEST PUSH1 0x0 PUSH20 0xFFFFFFFFFFFFFFFFFFFFFFFFFFFFFFFFFFFFFFFF DUP3 AND SWAP1 POP SWAP2 SWAP1 POP JUMP JUMPDEST PUSH2 0xF8 DUP2 PUSH2 0xBD JUMP JUMPDEST DUP2 EQ PUSH2 0x103 JUMPI PUSH1 0x0 DUP1 REVERT JUMPDEST POP JUMP JUMPDEST PUSH2 0x10D2 DUP1 PUSH3 0x116 PUSH1 0x0 CODECOPY PUSH1 0x0 RETURN INVALID PUSH1 0x80 PUSH1 0x40 MSTORE CALLVALUE DUP1 ISZERO PUSH2 0x10 JUMPI PUSH1 0x0 DUP1 REVERT JUMPDEST POP PUSH1 0x4 CALLDATASIZE LT PUSH2 0x4C JUMPI PUSH1 0x0 CALLDATALOAD PUSH1 0xE0 SHR DUP1 PUSH4 0x27506F53 EQ PUSH2 0x51 JUMPI DUP1 PUSH4 0x3626A368 EQ PUSH2 0x6F JUMPI DUP1 PUSH4 0x78CE1365 EQ PUSH2 0x8B JUMPI DUP1 PUSH4 0x9ACE38C2 EQ PUSH2 0xA9 JUMPI JUMPDEST PUSH1 0x0 DUP1 REVERT JUMPDEST PUSH2 0x59 PUSH2 0xDF JUMP JUMPDEST PUSH1 0x40 MLOAD PUSH2 0x66 SWAP2 SWAP1 PUSH2 0xDA8 JUMP JUMPDEST PUSH1 0x40 MLOAD DUP1 SWAP2 SUB SWAP1 RETURN JUMPDEST PUSH2 0x89 PUSH1 0x4 DUP1 CALLDATASIZE SUB DUP2 ADD SWAP1 PUSH2 0x84 SWAP2 SWAP1 PUSH2 0xA8E JUMP JUMPDEST PUSH2 0x3A5 JUMP JUMPDEST STOP JUMPDEST PUSH2 0x93 PUSH2 0x72F JUMP JUMPDEST PUSH1 0x40 MLOAD PUSH2 0xA0 SWAP2 SWAP1 PUSH2 0xEE4 JUMP JUMPDEST PUSH1 0x40 MLOAD DUP1 SWAP2 SUB SWAP1 RETURN JUMPDEST PUSH2 0xC3 PUSH1 0x4 DUP1 CALLDATASIZE SUB DUP2 ADD SWAP1 PUSH2 0xBE SWAP2 SWAP1 PUSH2 0xB47 JUMP JUMPDEST PUSH2 0x735 JUMP JUMPDEST PUSH1 0x40 MLOAD PUSH2 0xD6 SWAP8 SWAP7 SWAP6 SWAP5 SWAP4 SWAP3 SWAP2 SWAP1 PUSH2 0xDCA JUMP JUMPDEST PUSH1 0x40 MLOAD DUP1 SWAP2 SUB SWAP1 RETURN JUMPDEST PUSH1 0x60 PUSH1 0x0 PUSH1 0x2 SLOAD SWAP1 POP PUSH1 0x60 DUP2 PUSH8 0xFFFFFFFFFFFFFFFF DUP2 GT DUP1 ISZERO PUSH2 0x101 JUMPI PUSH1 0x0 DUP1 REVERT JUMPDEST POP PUSH1 0x40 MLOAD SWAP1 DUP1 DUP3 MSTORE DUP1 PUSH1 0x20 MUL PUSH1 0x20 ADD DUP3 ADD PUSH1 0x40 MSTORE DUP1 ISZERO PUSH2 0x13B JUMPI DUP2 PUSH1 0x20 ADD JUMPDEST PUSH2 0x128 PUSH2 0x8E7 JUMP JUMPDEST DUP2 MSTORE PUSH1 0x20 ADD SWAP1 PUSH1 0x1 SWAP1 SUB SWAP1 DUP2 PUSH2 0x120 JUMPI SWAP1 POP JUMPDEST POP SWAP1 POP PUSH1 0x0 DUP1 SWAP1 POP JUMPDEST DUP3 DUP2 LT ISZERO PUSH2 0x39C JUMPI PUSH1 0x1 PUSH1 0x0 DUP3 DUP2 MSTORE PUSH1 0x20 ADD SWAP1 DUP2 MSTORE PUSH1 0x20 ADD PUSH1 0x0 KECCAK256 PUSH1 0x40 MLOAD DUP1 PUSH1 0xE0 ADD PUSH1 0x40 MSTORE SWAP1 DUP2 PUSH1 0x0 DUP3 ADD SLOAD DUP2 MSTORE PUSH1 0x20 ADD PUSH1 0x1 DUP3 ADD PUSH1 0x0 SWAP1 SLOAD SWAP1 PUSH2 0x100 EXP SWAP1 DIV PUSH20 0xFFFFFFFFFFFFFFFFFFFFFFFFFFFFFFFFFFFFFFFF AND PUSH20 0xFFFFFFFFFFFFFFFFFFFFFFFFFFFFFFFFFFFFFFFF AND PUSH20 0xFFFFFFFFFFFFFFFFFFFFFFFFFFFFFFFFFFFFFFFF AND DUP2 MSTORE PUSH1 0x20 ADD PUSH1 0x2 DUP3 ADD PUSH1 0x0 SWAP1 SLOAD SWAP1 PUSH2 0x100 EXP SWAP1 DIV PUSH20 0xFFFFFFFFFFFFFFFFFFFFFFFFFFFFFFFFFFFFFFFF AND PUSH20 0xFFFFFFFFFFFFFFFFFFFFFFFFFFFFFFFFFFFFFFFF AND PUSH20 0xFFFFFFFFFFFFFFFFFFFFFFFFFFFFFFFFFFFFFFFF AND DUP2 MSTORE PUSH1 0x20 ADD PUSH1 0x3 DUP3 ADD SLOAD DUP2 MSTORE PUSH1 0x20 ADD PUSH1 0x4 DUP3 ADD DUP1 SLOAD PUSH1 0x1 DUP2 PUSH1 0x1 AND ISZERO PUSH2 0x100 MUL SUB AND PUSH1 0x2 SWAP1 DIV DUP1 PUSH1 0x1F ADD PUSH1 0x20 DUP1 SWAP2 DIV MUL PUSH1 0x20 ADD PUSH1 0x40 MLOAD SWAP1 DUP2 ADD PUSH1 0x40 MSTORE DUP1 SWAP3 SWAP2 SWAP1 DUP2 DUP2 MSTORE PUSH1 0x20 ADD DUP3 DUP1 SLOAD PUSH1 0x1 DUP2 PUSH1 0x1 AND ISZERO PUSH2 0x100 MUL SUB AND PUSH1 0x2 SWAP1 DIV DUP1 ISZERO PUSH2 0x2C3 JUMPI DUP1 PUSH1 0x1F LT PUSH2 0x298 JUMPI PUSH2 0x100 DUP1 DUP4 SLOAD DIV MUL DUP4 MSTORE SWAP2 PUSH1 0x20 ADD SWAP2 PUSH2 0x2C3 JUMP JUMPDEST DUP3 ADD SWAP2 SWAP1 PUSH1 0x0 MSTORE PUSH1 0x20 PUSH1 0x0 KECCAK256 SWAP1 JUMPDEST DUP2 SLOAD DUP2 MSTORE SWAP1 PUSH1 0x1 ADD SWAP1 PUSH1 0x20 ADD DUP1 DUP4 GT PUSH2 0x2A6 JUMPI DUP3 SWAP1 SUB PUSH1 0x1F AND DUP3 ADD SWAP2 JUMPDEST POP POP POP POP POP DUP2 MSTORE PUSH1 0x20 ADD PUSH1 0x5 DUP3 ADD DUP1 SLOAD PUSH1 0x1 DUP2 PUSH1 0x1 AND ISZERO PUSH2 0x100 MUL SUB AND PUSH1 0x2 SWAP1 DIV DUP1 PUSH1 0x1F ADD PUSH1 0x20 DUP1 SWAP2 DIV MUL PUSH1 0x20 ADD PUSH1 0x40 MLOAD SWAP1 DUP2 ADD PUSH1 0x40 MSTORE DUP1 SWAP3 SWAP2 SWAP1 DUP2 DUP2 MSTORE PUSH1 0x20 ADD DUP3 DUP1 SLOAD PUSH1 0x1 DUP2 PUSH1 0x1 AND ISZERO PUSH2 0x100 MUL SUB AND PUSH1 0x2 SWAP1 DIV DUP1 ISZERO PUSH2 0x365 JUMPI DUP1 PUSH1 0x1F LT PUSH2 0x33A JUMPI PUSH2 0x100 DUP1 DUP4 SLOAD DIV MUL DUP4 MSTORE SWAP2 PUSH1 0x20 ADD SWAP2 PUSH2 0x365 JUMP JUMPDEST DUP3 ADD SWAP2 SWAP1 PUSH1 0x0 MSTORE PUSH1 0x20 PUSH1 0x0 KECCAK256 SWAP1 JUMPDEST DUP2 SLOAD DUP2 MSTORE SWAP1 PUSH1 0x1 ADD SWAP1 PUSH1 0x20 ADD DUP1 DUP4 GT PUSH2 0x348 JUMPI DUP3 SWAP1 SUB PUSH1 0x1F AND DUP3 ADD SWAP2 JUMPDEST POP POP POP POP POP DUP2 MSTORE PUSH1 0x20 ADD PUSH1 0x6 DUP3 ADD SLOAD DUP2 MSTORE POP POP DUP3 DUP3 DUP2 MLOAD DUP2 LT PUSH2 0x384 JUMPI INVALID JUMPDEST PUSH1 0x20 MUL PUSH1 0x20 ADD ADD DUP2 SWAP1 MSTORE POP DUP1 DUP1 PUSH1 0x1 ADD SWAP2 POP POP PUSH2 0x144 JUMP JUMPDEST POP DUP1 SWAP3 POP POP POP SWAP1 JUMP JUMPDEST PUSH1 0x0 TIMESTAMP SWAP1 POP PUSH1 0x0 PUSH1 0x2 SLOAD EQ ISZERO PUSH2 0x517 JUMPI PUSH1 0x40 MLOAD DUP1 PUSH1 0xE0 ADD PUSH1 0x40 MSTORE DUP1 DUP9 DUP2 MSTORE PUSH1 0x20 ADD DUP8 PUSH20 0xFFFFFFFFFFFFFFFFFFFFFFFFFFFFFFFFFFFFFFFF AND DUP2 MSTORE PUSH1 0x20 ADD DUP7 PUSH20 0xFFFFFFFFFFFFFFFFFFFFFFFFFFFFFFFFFFFFFFFF AND DUP2 MSTORE PUSH1 0x20 ADD DUP6 DUP2 MSTORE PUSH1 0x20 ADD DUP5 DUP2 MSTORE PUSH1 0x20 ADD DUP4 DUP2 MSTORE PUSH1 0x20 ADD DUP3 DUP2 MSTORE POP PUSH1 0x1 PUSH1 0x0 PUSH1 0x2 SLOAD DUP2 MSTORE PUSH1 0x20 ADD SWAP1 DUP2 MSTORE PUSH1 0x20 ADD PUSH1 0x0 KECCAK256 PUSH1 0x0 DUP3 ADD MLOAD DUP2 PUSH1 0x0 ADD SSTORE PUSH1 0x20 DUP3 ADD MLOAD DUP2 PUSH1 0x1 ADD PUSH1 0x0 PUSH2 0x100 EXP DUP2 SLOAD DUP2 PUSH20 0xFFFFFFFFFFFFFFFFFFFFFFFFFFFFFFFFFFFFFFFF MUL NOT AND SWAP1 DUP4 PUSH20 0xFFFFFFFFFFFFFFFFFFFFFFFFFFFFFFFFFFFFFFFF AND MUL OR SWAP1 SSTORE POP PUSH1 0x40 DUP3 ADD MLOAD DUP2 PUSH1 0x2 ADD PUSH1 0x0 PUSH2 0x100 EXP DUP2 SLOAD DUP2 PUSH20 0xFFFFFFFFFFFFFFFFFFFFFFFFFFFFFFFFFFFFFFFF MUL NOT AND SWAP1 DUP4 PUSH20 0xFFFFFFFFFFFFFFFFFFFFFFFFFFFFFFFFFFFFFFFF AND MUL OR SWAP1 SSTORE POP PUSH1 0x60 DUP3 ADD MLOAD DUP2 PUSH1 0x3 ADD SSTORE PUSH1 0x80 DUP3 ADD MLOAD DUP2 PUSH1 0x4 ADD SWAP1 DUP1 MLOAD SWAP1 PUSH1 0x20 ADD SWAP1 PUSH2 0x4E7 SWAP3 SWAP2 SWAP1 PUSH2 0x956 JUMP JUMPDEST POP PUSH1 0xA0 DUP3 ADD MLOAD DUP2 PUSH1 0x5 ADD SWAP1 DUP1 MLOAD SWAP1 PUSH1 0x20 ADD SWAP1 PUSH2 0x504 SWAP3 SWAP2 SWAP1 PUSH2 0x956 JUMP JUMPDEST POP PUSH1 0xC0 DUP3 ADD MLOAD DUP2 PUSH1 0x6 ADD SSTORE SWAP1 POP POP PUSH2 0x6D2 JUMP JUMPDEST DUP4 PUSH1 0x1 PUSH1 0x0 PUSH1 0x1 PUSH1 0x2 SLOAD SUB DUP2 MSTORE PUSH1 0x20 ADD SWAP1 DUP2 MSTORE PUSH1 0x20 ADD PUSH1 0x0 KECCAK256 PUSH1 0x0 ADD SLOAD EQ PUSH2 0x574 JUMPI PUSH1 0x40 MLOAD PUSH32 0x8C379A000000000000000000000000000000000000000000000000000000000 DUP2 MSTORE PUSH1 0x4 ADD PUSH2 0x56B SWAP1 PUSH2 0xEC4 JUMP JUMPDEST PUSH1 0x40 MLOAD DUP1 SWAP2 SUB SWAP1 REVERT JUMPDEST PUSH1 0x40 MLOAD DUP1 PUSH1 0xE0 ADD PUSH1 0x40 MSTORE DUP1 DUP9 DUP2 MSTORE PUSH1 0x20 ADD DUP8 PUSH20 0xFFFFFFFFFFFFFFFFFFFFFFFFFFFFFFFFFFFFFFFF AND DUP2 MSTORE PUSH1 0x20 ADD DUP7 PUSH20 0xFFFFFFFFFFFFFFFFFFFFFFFFFFFFFFFFFFFFFFFF AND DUP2 MSTORE PUSH1 0x20 ADD DUP6 DUP2 MSTORE PUSH1 0x20 ADD DUP5 DUP2 MSTORE PUSH1 0x20 ADD DUP4 DUP2 MSTORE PUSH1 0x20 ADD DUP3 DUP2 MSTORE POP PUSH1 0x1 PUSH1 0x0 PUSH1 0x2 SLOAD DUP2 MSTORE PUSH1 0x20 ADD SWAP1 DUP2 MSTORE PUSH1 0x20 ADD PUSH1 0x0 KECCAK256 PUSH1 0x0 DUP3 ADD MLOAD DUP2 PUSH1 0x0 ADD SSTORE PUSH1 0x20 DUP3 ADD MLOAD DUP2 PUSH1 0x1 ADD PUSH1 0x0 PUSH2 0x100 EXP DUP2 SLOAD DUP2 PUSH20 0xFFFFFFFFFFFFFFFFFFFFFFFFFFFFFFFFFFFFFFFF MUL NOT AND SWAP1 DUP4 PUSH20 0xFFFFFFFFFFFFFFFFFFFFFFFFFFFFFFFFFFFFFFFF AND MUL OR SWAP1 SSTORE POP PUSH1 0x40 DUP3 ADD MLOAD DUP2 PUSH1 0x2 ADD PUSH1 0x0 PUSH2 0x100 EXP DUP2 SLOAD DUP2 PUSH20 0xFFFFFFFFFFFFFFFFFFFFFFFFFFFFFFFFFFFFFFFF MUL NOT AND SWAP1 DUP4 PUSH20 0xFFFFFFFFFFFFFFFFFFFFFFFFFFFFFFFFFFFFFFFF AND MUL OR SWAP1 SSTORE POP PUSH1 0x60 DUP3 ADD MLOAD DUP2 PUSH1 0x3 ADD SSTORE PUSH1 0x80 DUP3 ADD MLOAD DUP2 PUSH1 0x4 ADD SWAP1 DUP1 MLOAD SWAP1 PUSH1 0x20 ADD SWAP1 PUSH2 0x6A6 SWAP3 SWAP2 SWAP1 PUSH2 0x956 JUMP JUMPDEST POP PUSH1 0xA0 DUP3 ADD MLOAD DUP2 PUSH1 0x5 ADD SWAP1 DUP1 MLOAD SWAP1 PUSH1 0x20 ADD SWAP1 PUSH2 0x6C3 SWAP3 SWAP2 SWAP1 PUSH2 0x956 JUMP JUMPDEST POP PUSH1 0xC0 DUP3 ADD MLOAD DUP2 PUSH1 0x6 ADD SSTORE SWAP1 POP POP JUMPDEST PUSH1 0x1 PUSH1 0x2 PUSH1 0x0 DUP3 DUP3 SLOAD ADD SWAP3 POP POP DUP2 SWAP1 SSTORE POP PUSH32 0x30D01D358FB0899FE4D50947B2E9301C952D9EED09B14C7ECDCBEED4434557C4 DUP8 DUP8 DUP8 DUP8 DUP6 DUP9 DUP9 PUSH1 0x40 MLOAD PUSH2 0x71E SWAP8 SWAP7 SWAP6 SWAP5 SWAP4 SWAP3 SWAP2 SWAP1 PUSH2 0xE47 JUMP JUMPDEST PUSH1 0x40 MLOAD DUP1 SWAP2 SUB SWAP1 LOG1 POP POP POP POP POP POP POP JUMP JUMPDEST PUSH1 0x2 SLOAD DUP2 JUMP JUMPDEST PUSH1 0x1 PUSH1 0x20 MSTORE DUP1 PUSH1 0x0 MSTORE PUSH1 0x40 PUSH1 0x0 KECCAK256 PUSH1 0x0 SWAP2 POP SWAP1 POP DUP1 PUSH1 0x0 ADD SLOAD SWAP1 DUP1 PUSH1 0x1 ADD PUSH1 0x0 SWAP1 SLOAD SWAP1 PUSH2 0x100 EXP SWAP1 DIV PUSH20 0xFFFFFFFFFFFFFFFFFFFFFFFFFFFFFFFFFFFFFFFF AND SWAP1 DUP1 PUSH1 0x2 ADD PUSH1 0x0 SWAP1 SLOAD SWAP1 PUSH2 0x100 EXP SWAP1 DIV PUSH20 0xFFFFFFFFFFFFFFFFFFFFFFFFFFFFFFFFFFFFFFFF AND SWAP1 DUP1 PUSH1 0x3 ADD SLOAD SWAP1 DUP1 PUSH1 0x4 ADD DUP1 SLOAD PUSH1 0x1 DUP2 PUSH1 0x1 AND ISZERO PUSH2 0x100 MUL SUB AND PUSH1 0x2 SWAP1 DIV DUP1 PUSH1 0x1F ADD PUSH1 0x20 DUP1 SWAP2 DIV MUL PUSH1 0x20 ADD PUSH1 0x40 MLOAD SWAP1 DUP2 ADD PUSH1 0x40 MSTORE DUP1 SWAP3 SWAP2 SWAP1 DUP2 DUP2 MSTORE PUSH1 0x20 ADD DUP3 DUP1 SLOAD PUSH1 0x1 DUP2 PUSH1 0x1 AND ISZERO PUSH2 0x100 MUL SUB AND PUSH1 0x2 SWAP1 DIV DUP1 ISZERO PUSH2 0x839 JUMPI DUP1 PUSH1 0x1F LT PUSH2 0x80E JUMPI PUSH2 0x100 DUP1 DUP4 SLOAD DIV MUL DUP4 MSTORE SWAP2 PUSH1 0x20 ADD SWAP2 PUSH2 0x839 JUMP JUMPDEST DUP3 ADD SWAP2 SWAP1 PUSH1 0x0 MSTORE PUSH1 0x20 PUSH1 0x0 KECCAK256 SWAP1 JUMPDEST DUP2 SLOAD DUP2 MSTORE SWAP1 PUSH1 0x1 ADD SWAP1 PUSH1 0x20 ADD DUP1 DUP4 GT PUSH2 0x81C JUMPI DUP3 SWAP1 SUB PUSH1 0x1F AND DUP3 ADD SWAP2 JUMPDEST POP POP POP POP POP SWAP1 DUP1 PUSH1 0x5 ADD DUP1 SLOAD PUSH1 0x1 DUP2 PUSH1 0x1 AND ISZERO PUSH2 0x100 MUL SUB AND PUSH1 0x2 SWAP1 DIV DUP1 PUSH1 0x1F ADD PUSH1 0x20 DUP1 SWAP2 DIV MUL PUSH1 0x20 ADD PUSH1 0x40 MLOAD SWAP1 DUP2 ADD PUSH1 0x40 MSTORE DUP1 SWAP3 SWAP2 SWAP1 DUP2 DUP2 MSTORE PUSH1 0x20 ADD DUP3 DUP1 SLOAD PUSH1 0x1 DUP2 PUSH1 0x1 AND ISZERO PUSH2 0x100 MUL SUB AND PUSH1 0x2 SWAP1 DIV DUP1 ISZERO PUSH2 0x8D7 JUMPI DUP1 PUSH1 0x1F LT PUSH2 0x8AC JUMPI PUSH2 0x100 DUP1 DUP4 SLOAD DIV MUL DUP4 MSTORE SWAP2 PUSH1 0x20 ADD SWAP2 PUSH2 0x8D7 JUMP JUMPDEST DUP3 ADD SWAP2 SWAP1 PUSH1 0x0 MSTORE PUSH1 0x20 PUSH1 0x0 KECCAK256 SWAP1 JUMPDEST DUP2 SLOAD DUP2 MSTORE SWAP1 PUSH1 0x1 ADD SWAP1 PUSH1 0x20 ADD DUP1 DUP4 GT PUSH2 0x8BA JUMPI DUP3 SWAP1 SUB PUSH1 0x1F AND DUP3 ADD SWAP2 JUMPDEST POP POP POP POP POP SWAP1 DUP1 PUSH1 0x6 ADD SLOAD SWAP1 POP DUP8 JUMP JUMPDEST PUSH1 0x40 MLOAD DUP1 PUSH1 0xE0 ADD PUSH1 0x40 MSTORE DUP1 PUSH1 0x0 DUP1 NOT AND DUP2 MSTORE PUSH1 0x20 ADD PUSH1 0x0 PUSH20 0xFFFFFFFFFFFFFFFFFFFFFFFFFFFFFFFFFFFFFFFF AND DUP2 MSTORE PUSH1 0x20 ADD PUSH1 0x0 PUSH20 0xFFFFFFFFFFFFFFFFFFFFFFFFFFFFFFFFFFFFFFFF AND DUP2 MSTORE PUSH1 0x20 ADD PUSH1 0x0 DUP1 NOT AND DUP2 MSTORE PUSH1 0x20 ADD PUSH1 0x60 DUP2 MSTORE PUSH1 0x20 ADD PUSH1 0x60 DUP2 MSTORE PUSH1 0x20 ADD PUSH1 0x0 DUP2 MSTORE POP SWAP1 JUMP JUMPDEST DUP3 DUP1 SLOAD PUSH1 0x1 DUP2 PUSH1 0x1 AND ISZERO PUSH2 0x100 MUL SUB AND PUSH1 0x2 SWAP1 DIV SWAP1 PUSH1 0x0 MSTORE PUSH1 0x20 PUSH1 0x0 KECCAK256 SWAP1 PUSH1 0x1F ADD PUSH1 0x20 SWAP1 DIV DUP2 ADD SWAP3 DUP3 PUSH1 0x1F LT PUSH2 0x997 JUMPI DUP1 MLOAD PUSH1 0xFF NOT AND DUP4 DUP1 ADD OR DUP6 SSTORE PUSH2 0x9C5 JUMP JUMPDEST DUP3 DUP1 ADD PUSH1 0x1 ADD DUP6 SSTORE DUP3 ISZERO PUSH2 0x9C5 JUMPI SWAP2 DUP3 ADD JUMPDEST DUP3 DUP2 GT ISZERO PUSH2 0x9C4 JUMPI DUP3 MLOAD DUP3 SSTORE SWAP2 PUSH1 0x20 ADD SWAP2 SWAP1 PUSH1 0x1 ADD SWAP1 PUSH2 0x9A9 JUMP JUMPDEST JUMPDEST POP SWAP1 POP PUSH2 0x9D2 SWAP2 SWAP1 PUSH2 0x9D6 JUMP JUMPDEST POP SWAP1 JUMP JUMPDEST PUSH2 0x9F8 SWAP2 SWAP1 JUMPDEST DUP1 DUP3 GT ISZERO PUSH2 0x9F4 JUMPI PUSH1 0x0 DUP2 PUSH1 0x0 SWAP1 SSTORE POP PUSH1 0x1 ADD PUSH2 0x9DC JUMP JUMPDEST POP SWAP1 JUMP JUMPDEST SWAP1 JUMP JUMPDEST PUSH1 0x0 DUP2 CALLDATALOAD SWAP1 POP PUSH2 0xA0A DUP2 PUSH2 0x1057 JUMP JUMPDEST SWAP3 SWAP2 POP POP JUMP JUMPDEST PUSH1 0x0 DUP2 CALLDATALOAD SWAP1 POP PUSH2 0xA1F DUP2 PUSH2 0x106E JUMP JUMPDEST SWAP3 SWAP2 POP POP JUMP JUMPDEST PUSH1 0x0 DUP3 PUSH1 0x1F DUP4 ADD SLT PUSH2 0xA36 JUMPI PUSH1 0x0 DUP1 REVERT JUMPDEST DUP2 CALLDATALOAD PUSH2 0xA49 PUSH2 0xA44 DUP3 PUSH2 0xF2C JUMP JUMPDEST PUSH2 0xEFF JUMP JUMPDEST SWAP2 POP DUP1 DUP3 MSTORE PUSH1 0x20 DUP4 ADD PUSH1 0x20 DUP4 ADD DUP6 DUP4 DUP4 ADD GT ISZERO PUSH2 0xA65 JUMPI PUSH1 0x0 DUP1 REVERT JUMPDEST PUSH2 0xA70 DUP4 DUP3 DUP5 PUSH2 0x1004 JUMP JUMPDEST POP POP POP SWAP3 SWAP2 POP POP JUMP JUMPDEST PUSH1 0x0 DUP2 CALLDATALOAD SWAP1 POP PUSH2 0xA88 DUP2 PUSH2 0x1085 JUMP JUMPDEST SWAP3 SWAP2 POP POP JUMP JUMPDEST PUSH1 0x0 DUP1 PUSH1 0x0 DUP1 PUSH1 0x0 DUP1 PUSH1 0xC0 DUP8 DUP10 SUB SLT ISZERO PUSH2 0xAA7 JUMPI PUSH1 0x0 DUP1 REVERT JUMPDEST PUSH1 0x0 PUSH2 0xAB5 DUP10 DUP3 DUP11 ADD PUSH2 0xA10 JUMP JUMPDEST SWAP7 POP POP PUSH1 0x20 PUSH2 0xAC6 DUP10 DUP3 DUP11 ADD PUSH2 0x9FB JUMP JUMPDEST SWAP6 POP POP PUSH1 0x40 PUSH2 0xAD7 DUP10 DUP3 DUP11 ADD PUSH2 0x9FB JUMP JUMPDEST SWAP5 POP POP PUSH1 0x60 PUSH2 0xAE8 DUP10 DUP3 DUP11 ADD PUSH2 0xA10 JUMP JUMPDEST SWAP4 POP POP PUSH1 0x80 DUP8 ADD CALLDATALOAD PUSH8 0xFFFFFFFFFFFFFFFF DUP2 GT ISZERO PUSH2 0xB05 JUMPI PUSH1 0x0 DUP1 REVERT JUMPDEST PUSH2 0xB11 DUP10 DUP3 DUP11 ADD PUSH2 0xA25 JUMP JUMPDEST SWAP3 POP POP PUSH1 0xA0 DUP8 ADD CALLDATALOAD PUSH8 0xFFFFFFFFFFFFFFFF DUP2 GT ISZERO PUSH2 0xB2E JUMPI PUSH1 0x0 DUP1 REVERT JUMPDEST PUSH2 0xB3A DUP10 DUP3 DUP11 ADD PUSH2 0xA25 JUMP JUMPDEST SWAP2 POP POP SWAP3 SWAP6 POP SWAP3 SWAP6 POP SWAP3 SWAP6 JUMP JUMPDEST PUSH1 0x0 PUSH1 0x20 DUP3 DUP5 SUB SLT ISZERO PUSH2 0xB59 JUMPI PUSH1 0x0 DUP1 REVERT JUMPDEST PUSH1 0x0 PUSH2 0xB67 DUP5 DUP3 DUP6 ADD PUSH2 0xA79 JUMP JUMPDEST SWAP2 POP POP SWAP3 SWAP2 POP POP JUMP JUMPDEST PUSH1 0x0 PUSH2 0xB7C DUP4 DUP4 PUSH2 0xCE7 JUMP JUMPDEST SWAP1 POP SWAP3 SWAP2 POP POP JUMP JUMPDEST PUSH2 0xB8D DUP2 PUSH2 0xFBE JUMP JUMPDEST DUP3 MSTORE POP POP JUMP JUMPDEST PUSH2 0xB9C DUP2 PUSH2 0xFBE JUMP JUMPDEST DUP3 MSTORE POP POP JUMP JUMPDEST PUSH1 0x0 PUSH2 0xBAD DUP3 PUSH2 0xF68 JUMP JUMPDEST PUSH2 0xBB7 DUP2 DUP6 PUSH2 0xF8B JUMP JUMPDEST SWAP4 POP DUP4 PUSH1 0x20 DUP3 MUL DUP6 ADD PUSH2 0xBC9 DUP6 PUSH2 0xF58 JUMP JUMPDEST DUP1 PUSH1 0x0 JUMPDEST DUP6 DUP2 LT ISZERO PUSH2 0xC05 JUMPI DUP5 DUP5 SUB DUP10 MSTORE DUP2 MLOAD PUSH2 0xBE6 DUP6 DUP3 PUSH2 0xB70 JUMP JUMPDEST SWAP5 POP PUSH2 0xBF1 DUP4 PUSH2 0xF7E JUMP JUMPDEST SWAP3 POP PUSH1 0x20 DUP11 ADD SWAP10 POP POP PUSH1 0x1 DUP2 ADD SWAP1 POP PUSH2 0xBCD JUMP JUMPDEST POP DUP3 SWAP8 POP DUP8 SWAP6 POP POP POP POP POP POP SWAP3 SWAP2 POP POP JUMP JUMPDEST PUSH2 0xC20 DUP2 PUSH2 0xFD0 JUMP JUMPDEST DUP3 MSTORE POP POP JUMP JUMPDEST PUSH2 0xC2F DUP2 PUSH2 0xFD0 JUMP JUMPDEST DUP3 MSTORE POP POP JUMP JUMPDEST PUSH1 0x0 PUSH2 0xC40 DUP3 PUSH2 0xF73 JUMP JUMPDEST PUSH2 0xC4A DUP2 DUP6 PUSH2 0xF9C JUMP JUMPDEST SWAP4 POP PUSH2 0xC5A DUP2 DUP6 PUSH1 0x20 DUP7 ADD PUSH2 0x1013 JUMP JUMPDEST PUSH2 0xC63 DUP2 PUSH2 0x1046 JUMP JUMPDEST DUP5 ADD SWAP2 POP POP SWAP3 SWAP2 POP POP JUMP JUMPDEST PUSH1 0x0 PUSH2 0xC79 DUP3 PUSH2 0xF73 JUMP JUMPDEST PUSH2 0xC83 DUP2 DUP6 PUSH2 0xFAD JUMP JUMPDEST SWAP4 POP PUSH2 0xC93 DUP2 DUP6 PUSH1 0x20 DUP7 ADD PUSH2 0x1013 JUMP JUMPDEST PUSH2 0xC9C DUP2 PUSH2 0x1046 JUMP JUMPDEST DUP5 ADD SWAP2 POP POP SWAP3 SWAP2 POP POP JUMP JUMPDEST PUSH1 0x0 PUSH2 0xCB4 PUSH1 0x1B DUP4 PUSH2 0xFAD JUMP JUMPDEST SWAP2 POP PUSH32 0x5472616E73616374696F6E206572726F72206F63637572726564210000000000 PUSH1 0x0 DUP4 ADD MSTORE PUSH1 0x20 DUP3 ADD SWAP1 POP SWAP2 SWAP1 POP JUMP JUMPDEST PUSH1 0x0 PUSH1 0xE0 DUP4 ADD PUSH1 0x0 DUP4 ADD MLOAD PUSH2 0xCFF PUSH1 0x0 DUP7 ADD DUP3 PUSH2 0xC17 JUMP JUMPDEST POP PUSH1 0x20 DUP4 ADD MLOAD PUSH2 0xD12 PUSH1 0x20 DUP7 ADD DUP3 PUSH2 0xB84 JUMP JUMPDEST POP PUSH1 0x40 DUP4 ADD MLOAD PUSH2 0xD25 PUSH1 0x40 DUP7 ADD DUP3 PUSH2 0xB84 JUMP JUMPDEST POP PUSH1 0x60 DUP4 ADD MLOAD PUSH2 0xD38 PUSH1 0x60 DUP7 ADD DUP3 PUSH2 0xC17 JUMP JUMPDEST POP PUSH1 0x80 DUP4 ADD MLOAD DUP5 DUP3 SUB PUSH1 0x80 DUP7 ADD MSTORE PUSH2 0xD50 DUP3 DUP3 PUSH2 0xC35 JUMP JUMPDEST SWAP2 POP POP PUSH1 0xA0 DUP4 ADD MLOAD DUP5 DUP3 SUB PUSH1 0xA0 DUP7 ADD MSTORE PUSH2 0xD6A DUP3 DUP3 PUSH2 0xC35 JUMP JUMPDEST SWAP2 POP POP PUSH1 0xC0 DUP4 ADD MLOAD PUSH2 0xD7F PUSH1 0xC0 DUP7 ADD DUP3 PUSH2 0xD8A JUMP JUMPDEST POP DUP1 SWAP2 POP POP SWAP3 SWAP2 POP POP JUMP JUMPDEST PUSH2 0xD93 DUP2 PUSH2 0xFFA JUMP JUMPDEST DUP3 MSTORE POP POP JUMP JUMPDEST PUSH2 0xDA2 DUP2 PUSH2 0xFFA JUMP JUMPDEST DUP3 MSTORE POP POP JUMP JUMPDEST PUSH1 0x0 PUSH1 0x20 DUP3 ADD SWAP1 POP DUP2 DUP2 SUB PUSH1 0x0 DUP4 ADD MSTORE PUSH2 0xDC2 DUP2 DUP5 PUSH2 0xBA2 JUMP JUMPDEST SWAP1 POP SWAP3 SWAP2 POP POP JUMP JUMPDEST PUSH1 0x0 PUSH1 0xE0 DUP3 ADD SWAP1 POP PUSH2 0xDDF PUSH1 0x0 DUP4 ADD DUP11 PUSH2 0xC26 JUMP JUMPDEST PUSH2 0xDEC PUSH1 0x20 DUP4 ADD DUP10 PUSH2 0xB93 JUMP JUMPDEST PUSH2 0xDF9 PUSH1 0x40 DUP4 ADD DUP9 PUSH2 0xB93 JUMP JUMPDEST PUSH2 0xE06 PUSH1 0x60 DUP4 ADD DUP8 PUSH2 0xC26 JUMP JUMPDEST DUP2 DUP2 SUB PUSH1 0x80 DUP4 ADD MSTORE PUSH2 0xE18 DUP2 DUP7 PUSH2 0xC6E JUMP JUMPDEST SWAP1 POP DUP2 DUP2 SUB PUSH1 0xA0 DUP4 ADD MSTORE PUSH2 0xE2C DUP2 DUP6 PUSH2 0xC6E JUMP JUMPDEST SWAP1 POP PUSH2 0xE3B PUSH1 0xC0 DUP4 ADD DUP5 PUSH2 0xD99 JUMP JUMPDEST SWAP9 SWAP8 POP POP POP POP POP POP POP POP JUMP JUMPDEST PUSH1 0x0 PUSH1 0xE0 DUP3 ADD SWAP1 POP PUSH2 0xE5C PUSH1 0x0 DUP4 ADD DUP11 PUSH2 0xC26 JUMP JUMPDEST PUSH2 0xE69 PUSH1 0x20 DUP4 ADD DUP10 PUSH2 0xB93 JUMP JUMPDEST PUSH2 0xE76 PUSH1 0x40 DUP4 ADD DUP9 PUSH2 0xB93 JUMP JUMPDEST PUSH2 0xE83 PUSH1 0x60 DUP4 ADD DUP8 PUSH2 0xC26 JUMP JUMPDEST PUSH2 0xE90 PUSH1 0x80 DUP4 ADD DUP7 PUSH2 0xD99 JUMP JUMPDEST DUP2 DUP2 SUB PUSH1 0xA0 DUP4 ADD MSTORE PUSH2 0xEA2 DUP2 DUP6 PUSH2 0xC6E JUMP JUMPDEST SWAP1 POP DUP2 DUP2 SUB PUSH1 0xC0 DUP4 ADD MSTORE PUSH2 0xEB6 DUP2 DUP5 PUSH2 0xC6E JUMP JUMPDEST SWAP1 POP SWAP9 SWAP8 POP POP POP POP POP POP POP POP JUMP JUMPDEST PUSH1 0x0 PUSH1 0x20 DUP3 ADD SWAP1 POP DUP2 DUP2 SUB PUSH1 0x0 DUP4 ADD MSTORE PUSH2 0xEDD DUP2 PUSH2 0xCA7 JUMP JUMPDEST SWAP1 POP SWAP2 SWAP1 POP JUMP JUMPDEST PUSH1 0x0 PUSH1 0x20 DUP3 ADD SWAP1 POP PUSH2 0xEF9 PUSH1 0x0 DUP4 ADD DUP5 PUSH2 0xD99 JUMP JUMPDEST SWAP3 SWAP2 POP POP JUMP JUMPDEST PUSH1 0x0 PUSH1 0x40 MLOAD SWAP1 POP DUP2 DUP2 ADD DUP2 DUP2 LT PUSH8 0xFFFFFFFFFFFFFFFF DUP3 GT OR ISZERO PUSH2 0xF22 JUMPI PUSH1 0x0 DUP1 REVERT JUMPDEST DUP1 PUSH1 0x40 MSTORE POP SWAP2 SWAP1 POP JUMP JUMPDEST PUSH1 0x0 PUSH8 0xFFFFFFFFFFFFFFFF DUP3 GT ISZERO PUSH2 0xF43 JUMPI PUSH1 0x0 DUP1 REVERT JUMPDEST PUSH1 0x1F NOT PUSH1 0x1F DUP4 ADD AND SWAP1 POP PUSH1 0x20 DUP2 ADD SWAP1 POP SWAP2 SWAP1 POP JUMP JUMPDEST PUSH1 0x0 DUP2 SWAP1 POP PUSH1 0x20 DUP3 ADD SWAP1 POP SWAP2 SWAP1 POP JUMP JUMPDEST PUSH1 0x0 DUP2 MLOAD SWAP1 POP SWAP2 SWAP1 POP JUMP JUMPDEST PUSH1 0x0 DUP2 MLOAD SWAP1 POP SWAP2 SWAP1 POP JUMP JUMPDEST PUSH1 0x0 PUSH1 0x20 DUP3 ADD SWAP1 POP SWAP2 SWAP1 POP JUMP JUMPDEST PUSH1 0x0 DUP3 DUP3 MSTORE PUSH1 0x20 DUP3 ADD SWAP1 POP SWAP3 SWAP2 POP POP JUMP JUMPDEST PUSH1 0x0 DUP3 DUP3 MSTORE PUSH1 0x20 DUP3 ADD SWAP1 POP SWAP3 SWAP2 POP POP JUMP JUMPDEST PUSH1 0x0 DUP3 DUP3 MSTORE PUSH1 0x20 DUP3 ADD SWAP1 POP SWAP3 SWAP2 POP POP JUMP JUMPDEST PUSH1 0x0 PUSH2 0xFC9 DUP3 PUSH2 0xFDA JUMP JUMPDEST SWAP1 POP SWAP2 SWAP1 POP JUMP JUMPDEST PUSH1 0x0 DUP2 SWAP1 POP SWAP2 SWAP1 POP JUMP JUMPDEST PUSH1 0x0 PUSH20 0xFFFFFFFFFFFFFFFFFFFFFFFFFFFFFFFFFFFFFFFF DUP3 AND SWAP1 POP SWAP2 SWAP1 POP JUMP JUMPDEST PUSH1 0x0 DUP2 SWAP1 POP SWAP2 SWAP1 POP JUMP JUMPDEST DUP3 DUP2 DUP4 CALLDATACOPY PUSH1 0x0 DUP4 DUP4 ADD MSTORE POP POP POP JUMP JUMPDEST PUSH1 0x0 JUMPDEST DUP4 DUP2 LT ISZERO PUSH2 0x1031 JUMPI DUP1 DUP3 ADD MLOAD DUP2 DUP5 ADD MSTORE PUSH1 0x20 DUP2 ADD SWAP1 POP PUSH2 0x1016 JUMP JUMPDEST DUP4 DUP2 GT ISZERO PUSH2 0x1040 JUMPI PUSH1 0x0 DUP5 DUP5 ADD MSTORE JUMPDEST POP POP POP POP JUMP JUMPDEST PUSH1 0x0 PUSH1 0x1F NOT PUSH1 0x1F DUP4 ADD AND SWAP1 POP SWAP2 SWAP1 POP JUMP JUMPDEST PUSH2 0x1060 DUP2 PUSH2 0xFBE JUMP JUMPDEST DUP2 EQ PUSH2 0x106B JUMPI PUSH1 0x0 DUP1 REVERT JUMPDEST POP JUMP JUMPDEST PUSH2 0x1077 DUP2 PUSH2 0xFD0 JUMP JUMPDEST DUP2 EQ PUSH2 0x1082 JUMPI PUSH1 0x0 DUP1 REVERT JUMPDEST POP JUMP JUMPDEST PUSH2 0x108E DUP2 PUSH2 0xFFA JUMP JUMPDEST DUP2 EQ PUSH2 0x1099 JUMPI PUSH1 0x0 DUP1 REVERT JUMPDEST POP JUMP INVALID LOG2 PUSH5 0x6970667358 0x22 SLT KECCAK256 LOG1 LOG2 0xEF 0xFC SIGNEXTEND DUP10 0xB7 CODESIZE PUSH1 0xC0 GASLIMIT PUSH31 0x3D76C0BF45CC1B5426FC8DFD03943BA5B861C82264736F6C63430006060033 "
				},
				"gasEstimates": {
					"creation": {
						"codeDepositCost": "1084000",
						"executionCost": "infinite",
						"totalCost": "infinite"
					},
					"external": {
						"getBatchIDStatus()": "1119",
						"getMedicineInfo()": "infinite",
						"getWDC()": "infinite",
						"pickMedicine(address)": "infinite",
						"receivedDtoC(address)": "22040",
						"receivedMedicine(address)": "infinite",
						"receivedWtoD(address)": "infinite",
						"sendDtoC(address,address)": "infinite",
						"sendWtoD(address,address)": "infinite",
						"updateTransporterArray(address)": "42080"
					}
				},
				"methodIdentifiers": {
					"getBatchIDStatus()": "d2f3fcc7",
					"getMedicineInfo()": "e002c8a5",
					"getWDC()": "abb428a6",
					"pickMedicine(address)": "ac42a415",
					"receivedDtoC(address)": "c8f5f189",
					"receivedMedicine(address)": "1fedd36c",
					"receivedWtoD(address)": "93a668b7",
					"sendDtoC(address,address)": "2f1d7588",
					"sendWtoD(address,address)": "f5c0e383",
					"updateTransporterArray(address)": "aab3a9d6"
				}
			},
			"storageLayout": {
				"storage": [
					{
						"astId": 4,
						"contract": "contracts/Medicine.sol:Medicine",
						"label": "Owner",
						"offset": 0,
						"slot": "0",
						"type": "t_address"
					},
					{
						"astId": 14,
						"contract": "contracts/Medicine.sol:Medicine",
						"label": "description",
						"offset": 0,
						"slot": "1",
						"type": "t_bytes32"
					},
					{
						"astId": 17,
						"contract": "contracts/Medicine.sol:Medicine",
						"label": "rawMaterials",
						"offset": 0,
						"slot": "2",
						"type": "t_array(t_address)dyn_storage"
					},
					{
						"astId": 20,
						"contract": "contracts/Medicine.sol:Medicine",
						"label": "transporters",
						"offset": 0,
						"slot": "3",
						"type": "t_array(t_address)dyn_storage"
					},
					{
						"astId": 22,
						"contract": "contracts/Medicine.sol:Medicine",
						"label": "manufacturer",
						"offset": 0,
						"slot": "4",
						"type": "t_address"
					},
					{
						"astId": 24,
						"contract": "contracts/Medicine.sol:Medicine",
						"label": "wholesaler",
						"offset": 0,
						"slot": "5",
						"type": "t_address"
					},
					{
						"astId": 26,
						"contract": "contracts/Medicine.sol:Medicine",
						"label": "distributor",
						"offset": 0,
						"slot": "6",
						"type": "t_address"
					},
					{
						"astId": 28,
						"contract": "contracts/Medicine.sol:Medicine",
						"label": "customer",
						"offset": 0,
						"slot": "7",
						"type": "t_address"
					},
					{
						"astId": 30,
						"contract": "contracts/Medicine.sol:Medicine",
						"label": "quantity",
						"offset": 0,
						"slot": "8",
						"type": "t_uint256"
					},
					{
						"astId": 32,
						"contract": "contracts/Medicine.sol:Medicine",
						"label": "status",
						"offset": 0,
						"slot": "9",
						"type": "t_enum(medicineStatus)12"
					},
					{
						"astId": 34,
						"contract": "contracts/Medicine.sol:Medicine",
						"label": "txnContractAddress",
						"offset": 1,
						"slot": "9",
						"type": "t_address"
					}
				],
				"types": {
					"t_address": {
						"encoding": "inplace",
						"label": "address",
						"numberOfBytes": "20"
					},
					"t_array(t_address)dyn_storage": {
						"base": "t_address",
						"encoding": "dynamic_array",
						"label": "address[]",
						"numberOfBytes": "32"
					},
					"t_bytes32": {
						"encoding": "inplace",
						"label": "bytes32",
						"numberOfBytes": "32"
					},
					"t_enum(medicineStatus)12": {
						"encoding": "inplace",
						"label": "enum Medicine.medicineStatus",
						"numberOfBytes": "1"
					},
					"t_uint256": {
						"encoding": "inplace",
						"label": "uint256",
						"numberOfBytes": "32"
					}
				}
			},
			"userdoc": {
				"methods": {}
			}
		}
	}
}